{"abi":[{"type":"constructor","inputs":[{"name":"_token0","type":"address","internalType":"address"},{"name":"_token1","type":"address","internalType":"address"},{"name":"_fee","type":"uint24","internalType":"uint24"}],"stateMutability":"nonpayable"},{"type":"function","name":"fee","inputs":[],"outputs":[{"name":"","type":"uint24","internalType":"uint24"}],"stateMutability":"view"},{"type":"function","name":"swap","inputs":[{"name":"recipient","type":"address","internalType":"address"},{"name":"zeroForOne","type":"bool","internalType":"bool"},{"name":"amountSpecified","type":"int256","internalType":"int256"},{"name":"","type":"uint160","internalType":"uint160"},{"name":"data","type":"bytes","internalType":"bytes"}],"outputs":[{"name":"amount0","type":"int256","internalType":"int256"},{"name":"amount1","type":"int256","internalType":"int256"}],"stateMutability":"nonpayable"},{"type":"function","name":"token0","inputs":[],"outputs":[{"name":"","type":"address","internalType":"address"}],"stateMutability":"view"},{"type":"function","name":"token1","inputs":[],"outputs":[{"name":"","type":"address","internalType":"address"}],"stateMutability":"view"}],"bytecode":{"object":"0x6080346100b757601f610c4438819003918201601f19168301916001600160401b038311848410176100bc578084926060946040528339810103126100b757610047816100d2565b6040610055602084016100d2565b9201519062ffffff821682036100b757600080546001600160a01b0319166001600160a01b03928316179055600180546001600160b81b031916939091169290921760a09190911b62ffffff60a01b16179055604051610b5d90816100e78239f35b600080fd5b634e487b7160e01b600052604160045260246000fd5b51906001600160a01b03821682036100b75756fe608080604052600436101561001357600080fd5b600090813560e01c9081630dfe1681146101ad57508063128acb08146100e5578063d21220a7146100935763ddca3f431461004d57600080fd5b3461009057807ffffffffffffffffffffffffffffffffffffffffffffffffffffffffffffffffc36011261009057602062ffffff60015460a01c16604051908152f35b80fd5b503461009057807ffffffffffffffffffffffffffffffffffffffffffffffffffffffffffffffffc36011261009057602073ffffffffffffffffffffffffffffffffffffffff60015416604051908152f35b50346100905760a07ffffffffffffffffffffffffffffffffffffffffffffffffffffffffffffffffc3601126100905773ffffffffffffffffffffffffffffffffffffffff60043581811681036101a5576024359182151583036101a957606435908116036101a55760843567ffffffffffffffff938482116100905736602383011215610090578160040135948511610090573660248684010111610090576040610199866024850160443588886103d5565b82519182526020820152f35b8280fd5b8380fd5b9050346101fb57817ffffffffffffffffffffffffffffffffffffffffffffffffffffffffffffffffc3601126101fb5773ffffffffffffffffffffffffffffffffffffffff60209254168152f35b5080fd5b7f8000000000000000000000000000000000000000000000000000000000000000811461022c5760000390565b7f4e487b7100000000000000000000000000000000000000000000000000000000600052601160045260246000fd5b67ffffffffffffffff811161026f57604052565b7f4e487b7100000000000000000000000000000000000000000000000000000000600052604160045260246000fd5b90601f7fffffffffffffffffffffffffffffffffffffffffffffffffffffffffffffffe0910116810190811067ffffffffffffffff82111761026f57604052565b908160209103126102f7575180151581036102f75790565b600080fd5b9062ffffff809216620f42400191821161022c57565b8181029291811591840414171561022c57565b9293806080957fffffffffffffffffffffffffffffffffffffffffffffffffffffffffffffffe094601f9487526020870152606060408701528160608701528686013760008582860101520116010190565b60646040517f08c379a000000000000000000000000000000000000000000000000000000000815260206004820152601660248201527f496e73756666696369656e7420616c6c6f77616e6365000000000000000000006044820152fd5b939492939190156107b5576103e9906101ff565b90600094859173ffffffffffffffffffffffffffffffffffffffff908482855416926040938451968780927fa9059cbb0000000000000000000000000000000000000000000000000000000082526020998a938161046f6004998b8b84016020909392919373ffffffffffffffffffffffffffffffffffffffff60408201951681520152565b03925af1801561078e57610798575b50620f42406104a162ffffff61049a8160015460a01c166102fc565b1689610312565b04988a828516966104b18a6101ff565b883b156101a5576104ef8d92895195869485947ffa461e330000000000000000000000000000000000000000000000000000000086528a8601610325565b0381838a5af1801561078e5761077b575b5060015484517fdd62ed3e00000000000000000000000000000000000000000000000000000000815273ffffffffffffffffffffffffffffffffffffffff8516848201908152306020820152918316968c939290919089908290819060400103818b5afa90811561077157918c95939185938b98969161073b575b50861161064757506105ed975060015416928651978895869485937f23b872dd0000000000000000000000000000000000000000000000000000000085523091850160409194939294606082019573ffffffffffffffffffffffffffffffffffffffff80921683521660208201520152565b03925af190811561063e575061060c94959650610610575b50506101ff565b9190565b8161062f92903d10610637575b610627818361029e565b8101906102df565b503880610605565b503d61061d565b513d88823e3d90fd5b939450505092508351907f70a08231000000000000000000000000000000000000000000000000000000008252838201528581602481885afa908115610731579089918b91610700575b50106106fb5782517f23b872dd00000000000000000000000000000000000000000000000000000000815273ffffffffffffffffffffffffffffffffffffffff9091169181019182523060208301526040820188905292849184919082908b9082906060016105ed565b610377565b809250878092503d831161072a575b610719818361029e565b810103126102f75788905138610691565b503d61070f565b84513d8c823e3d90fd5b93505094509481813d831161076a575b610755818361029e565b810103126102f7575187948b948d928661057b565b503d61074b565b87513d86823e3d90fd5b610787909a919a61025b565b9838610500565b85513d8d823e3d90fd5b6107ae90873d891161063757610627818361029e565b503861047e565b6107be906101ff565b90600094859173ffffffffffffffffffffffffffffffffffffffff90848260015416926040938451968780927fa9059cbb0000000000000000000000000000000000000000000000000000000082526020998a93816108456004998b8b84016020909392919373ffffffffffffffffffffffffffffffffffffffff60408201951681520152565b03925af1801561078e57610b0a575b50620f424061087062ffffff61049a8160015460a01c166102fc565b04988a828516966108808a6101ff565b90883b156101a5576108bf8d91895195869485947ffa461e330000000000000000000000000000000000000000000000000000000086528a8601610325565b0381838a5af1801561078e57610af7575b50895484517fdd62ed3e00000000000000000000000000000000000000000000000000000000815273ffffffffffffffffffffffffffffffffffffffff8516848201908152306020820152918316968c939290919089908290819060400103818b5afa90811561077157918c95939185938b989691610ac1575b5086116109dc57506109bb9750815416928651978895869485937f23b872dd0000000000000000000000000000000000000000000000000000000085523091850160409194939294606082019573ffffffffffffffffffffffffffffffffffffffff80921683521660208201520152565b03925af190811561063e57506109d9949596506106105750506101ff565b90565b939450505092508351907f70a08231000000000000000000000000000000000000000000000000000000008252838201528581602481885afa908115610731579089918b91610a90575b50106106fb5782517f23b872dd00000000000000000000000000000000000000000000000000000000815273ffffffffffffffffffffffffffffffffffffffff9091169181019182523060208301526040820188905292849184919082908b9082906060016109bb565b809250878092503d8311610aba575b610aa9818361029e565b810103126102f75788905138610a26565b503d610a9f565b93505094509481813d8311610af0575b610adb818361029e565b810103126102f7575187948b948d928661094a565b503d610ad1565b610b03909a919a61025b565b98386108d0565b610b2090873d891161063757610627818361029e565b503861085456fea2646970667358221220a490c5b558ca3c81748a778aef1d2b37816aa0d4e83257ab5f7b8ddb289eb9b264736f6c63430008160033","linkReferences":{}},"methodIdentifiers":{"fee()":"ddca3f43","swap(address,bool,int256,uint160,bytes)":"128acb08","token0()":"0dfe1681","token1()":"d21220a7"},"id":53}