{"abi":[{"type":"constructor","inputs":[{"name":"_token0","type":"address","internalType":"address"},{"name":"_token1","type":"address","internalType":"address"},{"name":"_fee","type":"uint24","internalType":"uint24"}],"stateMutability":"nonpayable"},{"type":"function","name":"fee","inputs":[],"outputs":[{"name":"","type":"uint24","internalType":"uint24"}],"stateMutability":"view"},{"type":"function","name":"swap","inputs":[{"name":"recipient","type":"address","internalType":"address"},{"name":"zeroForOne","type":"bool","internalType":"bool"},{"name":"amountSpecified","type":"int256","internalType":"int256"},{"name":"","type":"uint160","internalType":"uint160"},{"name":"data","type":"bytes","internalType":"bytes"}],"outputs":[{"name":"amount0","type":"int256","internalType":"int256"},{"name":"amount1","type":"int256","internalType":"int256"}],"stateMutability":"nonpayable"},{"type":"function","name":"token0","inputs":[],"outputs":[{"name":"","type":"address","internalType":"address"}],"stateMutability":"view"},{"type":"function","name":"token1","inputs":[],"outputs":[{"name":"","type":"address","internalType":"address"}],"stateMutability":"view"}],"bytecode":{"object":"0x6080346100b757601f61092b38819003918201601f19168301916001600160401b038311848410176100bc578084926060946040528339810103126100b757610047816100d2565b6040610055602084016100d2565b9201519062ffffff821682036100b757600080546001600160a01b0319166001600160a01b03928316179055600180546001600160b81b031916939091169290921760a09190911b62ffffff60a01b1617905560405161084490816100e78239f35b600080fd5b634e487b7160e01b600052604160045260246000fd5b51906001600160a01b03821682036100b75756fe608080604052600436101561001357600080fd5b600090813560e01c9081630dfe16811461013b57508063128acb081461009e578063d21220a7146100755763ddca3f431461004d57600080fd5b34610072578060031936011261007257602062ffffff60015460a01c16604051908152f35b80fd5b50346100725780600319360112610072576001546040516001600160a01b039091168152602090f35b50346100725760a0366003190112610072576001600160a01b0360043581811681036101335760243591821515830361013757606435908116036101335760843567ffffffffffffffff9384821161007257366023830112156100725781600401359485116100725736602486840101116100725760406101278660248501604435888861028d565b82519182526020820152f35b8280fd5b8380fd5b90503461015f578160031936011261015f5790546001600160a01b03168152602090f35b5080fd5b600160ff1b81146101745760000390565b634e487b7160e01b600052601160045260246000fd5b67ffffffffffffffff811161019e57604052565b634e487b7160e01b600052604160045260246000fd5b90601f8019910116810190811067ffffffffffffffff82111761019e57604052565b908160209103126101ee575180151581036101ee5790565b600080fd5b9062ffffff809216620f42400191821161017457565b8181029291811591840414171561017457565b928492608095928552602085015260606040850152816060850152848401376000828201840152601f01601f1916010190565b60405162461bcd60e51b8152602060048201526016602482015275496e73756666696369656e7420616c6c6f77616e636560501b6044820152606490fd5b93949293919015610585576102a190610163565b600080546040805163a9059cbb60e01b81526001600160a01b038681166004808401919091526024830187905294999596602096959394909392908790829060449082908f9087165af1801561055e57610568575b50620f424061031962ffffff6103128160015460a01c166101f3565b1689610209565b04988a828516966103298a610163565b883b156101335761034e8d928951958694859463fa461e3360e01b86528a860161021c565b0381838a5af1801561055e5761054b575b506001548451636eb1769f60e11b81526001600160a01b038516848201908152306020820152918316968c939290919089908290819060400103818b5afa90811561054157918c95939185938b98969161050b575b508611610456575060015487516323b872dd60e01b81526001600160a01b03909516938501938452306020850152604084019590955292965086939290921691839182906060015b03925af190811561044d575061041b9495965061041f575b5050610163565b9190565b8161043e92903d10610446575b61043681836101b4565b8101906101d6565b503880610414565b503d61042c565b513d88823e3d90fd5b939450505092508351906370a0823160e01b8252838201528581602481885afa908115610501579089918b916104d0575b50106104cb5782516323b872dd60e01b81526001600160a01b039091169181019182523060208301526040820188905292849184919082908b9082906060016103fc565b61024f565b809250878092503d83116104fa575b6104e981836101b4565b810103126101ee5788905138610487565b503d6104df565b84513d8c823e3d90fd5b93505094509481813d831161053a575b61052581836101b4565b810103126101ee575187948b948d92866103b4565b503d61051b565b87513d86823e3d90fd5b610557909a919a61018a565b983861035f565b85513d8d823e3d90fd5b61057e90873d89116104465761043681836101b4565b50386102f6565b61058e90610163565b6001546040805163a9059cbb60e01b81526001600160a01b03858116600480840191909152602483018690526000999596602096959093919291908790829060449082908f9087165af1801561055e576107f1575b50620f42406105ff62ffffff6103128160015460a01c166101f3565b04988a8285169661060f8a610163565b90883b15610133576106358d918951958694859463fa461e3360e01b86528a860161021c565b0381838a5af1801561055e576107de575b5089548451636eb1769f60e11b81526001600160a01b038516848201908152306020820152918316968c939290919089908290819060400103818b5afa90811561054157918c95939185938b9896916107a8575b5086116107025750815487516323b872dd60e01b81526001600160a01b03909516938501938452306020850152604084019590955292965086939290921691839182906060015b03925af190811561044d57506106ff9495965061041f575050610163565b90565b939450505092508351906370a0823160e01b8252838201528581602481885afa908115610501579089918b91610777575b50106104cb5782516323b872dd60e01b81526001600160a01b039091169181019182523060208301526040820188905292849184919082908b9082906060016106e1565b809250878092503d83116107a1575b61079081836101b4565b810103126101ee5788905138610733565b503d610786565b93505094509481813d83116107d7575b6107c281836101b4565b810103126101ee575187948b948d928661069a565b503d6107b8565b6107ea909a919a61018a565b9838610646565b61080790873d89116104465761043681836101b4565b50386105e356fea2646970667358221220694e7affc5bfc99e8d0b54d693aadd3ae53ce3a286bd8fb62223131c1ee0a46364736f6c63430008160033","linkReferences":{}},"methodIdentifiers":{"fee()":"ddca3f43","swap(address,bool,int256,uint160,bytes)":"128acb08","token0()":"0dfe1681","token1()":"d21220a7"},"id":55}