{"abi":[{"type":"constructor","inputs":[{"name":"_router","type":"address","internalType":"address"}],"stateMutability":"nonpayable"},{"type":"function","name":"executeWorkflow","inputs":[{"name":"tokenIn","type":"address","internalType":"address"},{"name":"amountIn","type":"uint256","internalType":"uint256"},{"name":"data","type":"bytes","internalType":"bytes"}],"outputs":[{"name":"success","type":"bool","internalType":"bool"},{"name":"amountOut","type":"uint256","internalType":"uint256"}],"stateMutability":"nonpayable"},{"type":"function","name":"router","inputs":[],"outputs":[{"name":"","type":"address","internalType":"address"}],"stateMutability":"view"},{"type":"event","name":"SwapExecuted","inputs":[{"name":"tokenIn","type":"address","indexed":false,"internalType":"address"},{"name":"tokenOut","type":"address","indexed":false,"internalType":"address"},{"name":"amountIn","type":"uint256","indexed":false,"internalType":"uint256"},{"name":"amountOut","type":"uint256","indexed":false,"internalType":"uint256"}],"anonymous":false}],"bytecode":{"object":"0x60803461007457601f6104f538819003918201601f19168301916001600160401b038311848410176100795780849260209460405283398101031261007457516001600160a01b0381169081900361007457600080546001600160a01b03191691909117905560405161046590816100908239f35b600080fd5b634e487b7160e01b600052604160045260246000fdfe6080604052600436101561001257600080fd5b6000803560e01c80634bf3e1dd146100865763f887ea401461003357600080fd5b3461008357807ffffffffffffffffffffffffffffffffffffffffffffffffffffffffffffffffc3601126100835773ffffffffffffffffffffffffffffffffffffffff6020915416604051908152f35b80fd5b50346100835760607ffffffffffffffffffffffffffffffffffffffffffffffffffffffffffffffffc3601126100835760043573ffffffffffffffffffffffffffffffffffffffff8116810361012e5760443567ffffffffffffffff9283821161008357366023830112156100835781600401359384116100835736602485840101116100835760406101208560248581019035876101a2565b825191151582526020820152f35b5080fd5b90601f7fffffffffffffffffffffffffffffffffffffffffffffffffffffffffffffffe0910116810190811067ffffffffffffffff82111761017357604052565b7f4e487b7100000000000000000000000000000000000000000000000000000000600052604160045260246000fd5b92908294929160409283918101031261042a5784359173ffffffffffffffffffffffffffffffffffffffff9283811680910361042a5783602080980135961693600090808254168451907f095ea7b300000000000000000000000000000000000000000000000000000000825260048201528560248201528981604481868b5af18015610420576103e9575b508154168351908982017fd5bcb9b50000000000000000000000000000000000000000000000000000000081528760248401528460448401528660648401528960848401523060a484015260a4835260e083019267ffffffffffffffff93818110858211176103bc57875251849283929083905af13d156103b3573d918211610386578451916102e58b7fffffffffffffffffffffffffffffffffffffffffffffffffffffffffffffffe0601f8401160184610132565b82523d838b84013e5b1561037a57888180518101031261012e578801519687106103495750917fdd36740e2a012d93061a0d99eaa9107860955de4e90027d3cf465a055026c40793916080936001985b8251948552840152820152846060820152a1565b969550917fdd36740e2a012d93061a0d99eaa9107860955de4e90027d3cf465a055026c40793916080938897610335565b50965086955050505050565b6024837f4e487b710000000000000000000000000000000000000000000000000000000081526041600452fd5b606091506102ee565b6024867f4e487b710000000000000000000000000000000000000000000000000000000081526041600452fd5b8981813d8311610419575b6103fe8183610132565b8101031261041557518015150361012e573861022e565b8280fd5b503d6103f4565b85513d85823e3d90fd5b600080fdfea26469706673582212203975071b8dd9cc5b2ac2668e6b7dd2ed33316daef0ad790794a790b164f29af564736f6c63430008160033","linkReferences":{}},"methodIdentifiers":{"executeWorkflow(address,uint256,bytes)":"4bf3e1dd","router()":"f887ea40"},"id":13}