{"abi":[{"type":"constructor","inputs":[{"name":"_router","type":"address","internalType":"address"}],"stateMutability":"nonpayable"},{"type":"function","name":"executeWorkflow","inputs":[{"name":"token","type":"address","internalType":"address"},{"name":"amount","type":"uint256","internalType":"uint256"},{"name":"data","type":"bytes","internalType":"bytes"}],"outputs":[{"name":"success","type":"bool","internalType":"bool"},{"name":"profit","type":"uint256","internalType":"uint256"}],"stateMutability":"nonpayable"},{"type":"function","name":"router","inputs":[],"outputs":[{"name":"","type":"address","internalType":"address"}],"stateMutability":"view"},{"type":"event","name":"SwapExecuted","inputs":[{"name":"tokenIn","type":"address","indexed":false,"internalType":"address"},{"name":"tokenOut","type":"address","indexed":false,"internalType":"address"},{"name":"amountIn","type":"uint256","indexed":false,"internalType":"uint256"},{"name":"amountOut","type":"uint256","indexed":false,"internalType":"uint256"}],"anonymous":false}],"bytecode":{"object":"0x60803461007457601f61040338819003918201601f19168301916001600160401b038311848410176100795780849260209460405283398101031261007457516001600160a01b0381169081900361007457600080546001600160a01b03191691909117905560405161037390816100908239f35b600080fd5b634e487b7160e01b600052604160045260246000fdfe6080604052600436101561001257600080fd5b6000803560e01c80634bf3e1dd1461005c5763f887ea401461003357600080fd5b34610059578060031936011261005957546040516001600160a01b039091168152602090f35b80fd5b5034610059576060366003190112610059576004356001600160a01b03811681036100d95760443567ffffffffffffffff9283821161005957366023830112156100595781600401359384116100595736602485840101116100595760406100cb856024858101903587610115565b825191151582526020820152f35b5080fd5b90601f8019910116810190811067ffffffffffffffff8211176100ff57604052565b634e487b7160e01b600052604160045260246000fd5b9391809193604091829181010312610338576001600160a01b03823581811695919290869003610338578260209716936000938085541683519063095ea7b360e01b825260048201528460248201528981604481898b5af1801561032e576102f3575b50845416825191898084019163d5bcb9b560e01b83528860248601528a6044860152866064860152013560848401523060a484015260a4835260e083019267ffffffffffffffff93818110858211176102df57855251869283929083905af13d156102d6573d9182116102c2578251916101fb601f8201601f19168b01846100dd565b82523d858a84013e5b156102b65787818051810103126102b2578701519282841115610281578284039084821161026d575091608093917fdd36740e2a012d93061a0d99eaa9107860955de4e90027d3cf465a055026c4079593976001995b82519586528501528301526060820152a1565b634e487b7160e01b81526011600452602490fd5b969591608093917fdd36740e2a012d93061a0d99eaa9107860955de4e90027d3cf465a055026c4079593899861025a565b8380fd5b50505093505090508190565b634e487b7160e01b85526041600452602485fd5b60609150610204565b634e487b7160e01b88526041600452602488fd5b8981813d8311610327575b61030881836100dd565b8101031261032357518015150361031f5738610178565b8480fd5b8580fd5b503d6102fe565b84513d88823e3d90fd5b600080fdfea26469706673582212202737559158ae3eb4db4a1bd074df1be77a9a07aa920ca1eee595f00e76bf747964736f6c63430008160033","linkReferences":{}},"methodIdentifiers":{"executeWorkflow(address,uint256,bytes)":"4bf3e1dd","router()":"f887ea40"},"id":38}