{"abi":[{"type":"function","name":"PREMIUM_BPS","inputs":[],"outputs":[{"name":"","type":"uint256","internalType":"uint256"}],"stateMutability":"view"},{"type":"function","name":"flashLoan","inputs":[{"name":"receiverAddress","type":"address","internalType":"address"},{"name":"assets","type":"address[]","internalType":"address[]"},{"name":"amounts","type":"uint256[]","internalType":"uint256[]"},{"name":"","type":"uint256[]","internalType":"uint256[]"},{"name":"onBehalfOf","type":"address","internalType":"address"},{"name":"params","type":"bytes","internalType":"bytes"},{"name":"","type":"uint16","internalType":"uint16"}],"outputs":[],"stateMutability":"nonpayable"}],"bytecode":{"object":"0x6080806040523461001657610853908161001c8239f35b600080fdfe608080604052600436101561001357600080fd5b60003560e01c908163ab9c4b5d14610074575063e22d70501461003557600080fd5b3461006f5760007ffffffffffffffffffffffffffffffffffffffffffffffffffffffffffffffffc36011261006f57602060405160098152f35b600080fd5b3461006f5760e07ffffffffffffffffffffffffffffffffffffffffffffffffffffffffffffffffc36011261006f5760043573ffffffffffffffffffffffffffffffffffffffff8116810361006f5767ffffffffffffffff9160243583811161006f576100e59036906004016106d8565b929060443585811161006f576100ff9036906004016106d8565b909360643587811161006f576101199036906004016106d8565b50506084359673ffffffffffffffffffffffffffffffffffffffff8816880361006f578060a4351161006f5736602360a43501121561006f5760a435600401351161006f5736602460a4356004013560a43501011161006f5760c43561ffff81160361006f5781860361067c575060005b8581106105c2575061019b856107f1565b956101a96040519788610769565b8587527fffffffffffffffffffffffffffffffffffffffffffffffffffffffffffffffe06101d6876107f1565b0136602089013760005b8681106105895750604051907f920f5c840000000000000000000000000000000000000000000000000000000082528660a4830160a060048501525260c482018460005b8981106105535750507ffffffffffffffffffffffffffffffffffffffffffffffffffffffffffffffffc8382030160248401528381527f07ffffffffffffffffffffffffffffffffffffffffffffffffffffffffffffff841161006f5782908460051b9081896020830137019160406020840193601c8482030160448501528b51809552019060208b019360005b81811061053a57505073ffffffffffffffffffffffffffffffffffffffff1660648301527ffffffffffffffffffffffffffffffffffffffffffffffffffffffffffffffffc82820301608483015260a435600481013580835260209450849284929091906024018483013760008360a43560040135830101527fffffffffffffffffffffffffffffffffffffffffffffffffffffffffffffffe0601f60a43560040135011601030181600073ffffffffffffffffffffffffffffffffffffffff89165af19081156104825760009161051b575b50156104bd5760005b85811061039757005b73ffffffffffffffffffffffffffffffffffffffff6103bf6103ba838987610709565b610748565b16906103cc818488610709565b356103d7828a610809565b51810180911161048e57600092606460209260405195869384927f23b872dd00000000000000000000000000000000000000000000000000000000845273ffffffffffffffffffffffffffffffffffffffff8c16600485015230602485015260448401525af191821561048257600192610453575b500161038e565b6104749060203d60201161047b575b61046c8183610769565b8101906107d9565b508861044c565b503d610462565b6040513d6000823e3d90fd5b7f4e487b7100000000000000000000000000000000000000000000000000000000600052601160045260246000fd5b60646040517f08c379a000000000000000000000000000000000000000000000000000000000815260206004820152601a60248201527f466c6173686c6f616e20657865637574696f6e206661696c65640000000000006044820152fd5b610534915060203d60201161047b5761046c8183610769565b87610385565b85518452602095860195879550909301926001016102b2565b909182359073ffffffffffffffffffffffffffffffffffffffff821680920361006f576020816001938293520193019101610224565b610594818488610709565b3590600991808381020483148115171561048e576001926127109102046105bb828b610809565b52016101e0565b80602073ffffffffffffffffffffffffffffffffffffffff6105ea6103ba6000958b89610709565b1660446105f884878b610709565b3560405195869384927fa9059cbb00000000000000000000000000000000000000000000000000000000845273ffffffffffffffffffffffffffffffffffffffff8c16600485015260248401525af19182156104825760019261065d575b500161018a565b6106759060203d60201161047b5761046c8183610769565b5088610656565b807f08c379a0000000000000000000000000000000000000000000000000000000006064925260206004820152600e60248201527f496e76616c6964206172726179730000000000000000000000000000000000006044820152fd5b9181601f8401121561006f5782359167ffffffffffffffff831161006f576020808501948460051b01011161006f57565b91908110156107195760051b0190565b7f4e487b7100000000000000000000000000000000000000000000000000000000600052603260045260246000fd5b3573ffffffffffffffffffffffffffffffffffffffff8116810361006f5790565b90601f7fffffffffffffffffffffffffffffffffffffffffffffffffffffffffffffffe0910116810190811067ffffffffffffffff8211176107aa57604052565b7f4e487b7100000000000000000000000000000000000000000000000000000000600052604160045260246000fd5b9081602091031261006f5751801515810361006f5790565b67ffffffffffffffff81116107aa5760051b60200190565b80518210156107195760209160051b01019056fea264697066735822122094f74392c9b59fbfc18f1bf7dbfad29a06587e58bffd47fb00626ead655bda7f64736f6c63430008160033","linkReferences":{}},"methodIdentifiers":{"PREMIUM_BPS()":"e22d7050","flashLoan(address,address[],uint256[],uint256[],address,bytes,uint16)":"ab9c4b5d"},"id":55}