{"abi":[{"type":"function","name":"PREMIUM_BPS","inputs":[],"outputs":[{"name":"","type":"uint256","internalType":"uint256"}],"stateMutability":"view"},{"type":"function","name":"flashLoan","inputs":[{"name":"receiverAddress","type":"address","internalType":"address"},{"name":"assets","type":"address[]","internalType":"address[]"},{"name":"amounts","type":"uint256[]","internalType":"uint256[]"},{"name":"","type":"uint256[]","internalType":"uint256[]"},{"name":"onBehalfOf","type":"address","internalType":"address"},{"name":"params","type":"bytes","internalType":"bytes"},{"name":"","type":"uint16","internalType":"uint16"}],"outputs":[],"stateMutability":"nonpayable"}],"bytecode":{"object":"0x6080806040523461001657610615908161001c8239f35b600080fdfe608080604052600436101561001357600080fd5b60003560e01c908163ab9c4b5d14610056575063e22d70501461003557600080fd5b3461005157600036600319011261005157602060405160098152f35b600080fd5b346100515760e0366003190112610051576004356001600160a01b03811681036100515767ffffffffffffffff906024358281116100515761009c9036906004016104f8565b604493919335828111610051576100b79036906004016104f8565b9095606435848111610051576100d19036906004016104f8565b5050608435936001600160a01b0385168503610051578060a435116100515736602360a4350112156100515760a43560040135116100515736602460a4356004013560a4350101116100515760c43561ffff811603610051578183036104c5575060005b82811061043c5750610146826105b3565b926101546040519485610563565b828452610160836105b3565b601f190136602086013760005b8381106104035750604051632483d72160e21b815260a0600482015260a481018490529060c482018760005b8681106103d95750508281036003190160248401528381526001600160fb1b0384116100515782908460051b90818b6020830137019160406020840193601c84820301604485015288518095520190602088019360005b8181106103c05750506001600160a01b0316606483015260031982820301608483015260a435600481013580835260209450849284929091906024018483013760008360a4356004013583010152601f19601f60a43560040135011601030181600060018060a01b038a165af190811561033a576000916103a1575b501561035c5760005b82811061027e57005b6001600160a01b0361029961029483868a610529565b61054f565b16906102a681848a610529565b356102b182876105cb565b518101809111610346576040516323b872dd60e01b81526001600160a01b0388166004820152306024820152604481019190915291602090839060649082906000905af191821561033a5760019261030b575b5001610275565b61032c9060203d602011610333575b6103248183610563565b81019061059b565b5088610304565b503d61031a565b6040513d6000823e3d90fd5b634e487b7160e01b600052601160045260246000fd5b60405162461bcd60e51b815260206004820152601a60248201527f466c6173686c6f616e20657865637574696f6e206661696c65640000000000006044820152606490fd5b6103ba915060203d602011610333576103248183610563565b8761026c565b85518452602095860195879550909301926001016101f0565b909182356001600160a01b0381169190829003610051576020816001938293520193019101610199565b61040e81848a610529565b359060099180838102048314811517156103465760019261271091020461043582886105cb565b520161016d565b60009060206001600160a01b0361045761029484888c610529565b16604461046584878d610529565b60405163a9059cbb60e01b81526001600160a01b038b166004820152903560248201529485928391905af191821561033a576001926104a6575b5001610135565b6104be9060203d602011610333576103248183610563565b508861049f565b62461bcd60e51b815260206004820152600e60248201526d496e76616c69642061727261797360901b6044820152606490fd5b9181601f840112156100515782359167ffffffffffffffff8311610051576020808501948460051b01011161005157565b91908110156105395760051b0190565b634e487b7160e01b600052603260045260246000fd5b356001600160a01b03811681036100515790565b90601f8019910116810190811067ffffffffffffffff82111761058557604052565b634e487b7160e01b600052604160045260246000fd5b90816020910312610051575180151581036100515790565b67ffffffffffffffff81116105855760051b60200190565b80518210156105395760209160051b01019056fea264697066735822122025e8f90792761faaf0b233c6981e2f4a496ea22ea8074184184f9b29349d5d6064736f6c63430008160033","linkReferences":{}},"methodIdentifiers":{"PREMIUM_BPS()":"e22d7050","flashLoan(address,address[],uint256[],uint256[],address,bytes,uint16)":"ab9c4b5d"},"id":48}