{"src/AAVEFlashloan.sol":{"AAVEFlashloan":{"abi":[{"type":"function","name":"MAX_FEE_BPS","inputs":[],"outputs":[{"name":"","type":"uint256","internalType":"uint256"}],"stateMutability":"view"},{"type":"function","name":"UPGRADE_INTERFACE_VERSION","inputs":[],"outputs":[{"name":"","type":"string","internalType":"string"}],"stateMutability":"view"},{"type":"function","name":"activeFlashloans","inputs":[{"name":"","type":"bytes32","internalType":"bytes32"}],"outputs":[{"name":"","type":"bool","internalType":"bool"}],"stateMutability":"view"},{"type":"function","name":"currentOperation","inputs":[],"outputs":[{"name":"user","type":"address","internalType":"address"},{"name":"token","type":"address","internalType":"address"},{"name":"amount","type":"uint256","internalType":"uint256"},{"name":"executed","type":"bool","internalType":"bool"}],"stateMutability":"view"},{"type":"function","name":"emergencyWithdraw","inputs":[],"outputs":[],"stateMutability":"nonpayable"},{"type":"function","name":"executeFlashloan","inputs":[{"name":"token","type":"address","internalType":"address"},{"name":"amount","type":"uint256","internalType":"uint256"},{"name":"workflows","type":"address[]","internalType":"address[]"},{"name":"workflowData","type":"bytes[]","internalType":"bytes[]"}],"outputs":[],"stateMutability":"nonpayable"},{"type":"function","name":"executeOperation","inputs":[{"name":"assets","type":"address[]","internalType":"address[]"},{"name":"amounts","type":"uint256[]","internalType":"uint256[]"},{"name":"premiums","type":"uint256[]","internalType":"uint256[]"},{"name":"","type":"address","internalType":"address"},{"name":"params","type":"bytes","internalType":"bytes"}],"outputs":[{"name":"","type":"bool","internalType":"bool"}],"stateMutability":"nonpayable"},{"type":"function","name":"feeBps","inputs":[],"outputs":[{"name":"","type":"uint256","internalType":"uint256"}],"stateMutability":"view"},{"type":"function","name":"initialize","inputs":[{"name":"_owner","type":"address","internalType":"address"},{"name":"_pool","type":"address","internalType":"address"},{"name":"_feeBps","type":"uint256","internalType":"uint256"},{"name":"_minProfitBps","type":"uint256","internalType":"uint256"}],"outputs":[],"stateMutability":"nonpayable"},{"type":"function","name":"minProfitBps","inputs":[],"outputs":[{"name":"","type":"uint256","internalType":"uint256"}],"stateMutability":"view"},{"type":"function","name":"owner","inputs":[],"outputs":[{"name":"","type":"address","internalType":"address"}],"stateMutability":"view"},{"type":"function","name":"pause","inputs":[],"outputs":[],"stateMutability":"nonpayable"},{"type":"function","name":"paused","inputs":[],"outputs":[{"name":"","type":"bool","internalType":"bool"}],"stateMutability":"view"},{"type":"function","name":"pool","inputs":[],"outputs":[{"name":"","type":"address","internalType":"contract IPool"}],"stateMutability":"view"},{"type":"function","name":"proxiableUUID","inputs":[],"outputs":[{"name":"","type":"bytes32","internalType":"bytes32"}],"stateMutability":"view"},{"type":"function","name":"setFee","inputs":[{"name":"_feeBps","type":"uint256","internalType":"uint256"}],"outputs":[],"stateMutability":"nonpayable"},{"type":"function","name":"setMinProfit","inputs":[{"name":"_minProfitBps","type":"uint256","internalType":"uint256"}],"outputs":[],"stateMutability":"nonpayable"},{"type":"function","name":"setPool","inputs":[{"name":"_pool","type":"address","internalType":"address"}],"outputs":[],"stateMutability":"nonpayable"},{"type":"function","name":"transferOwnership","inputs":[{"name":"newOwner","type":"address","internalType":"address"}],"outputs":[],"stateMutability":"nonpayable"},{"type":"function","name":"unpause","inputs":[],"outputs":[],"stateMutability":"nonpayable"},{"type":"function","name":"upgradeToAndCall","inputs":[{"name":"newImplementation","type":"address","internalType":"address"},{"name":"data","type":"bytes","internalType":"bytes"}],"outputs":[],"stateMutability":"payable"},{"type":"function","name":"withdrawFees","inputs":[{"name":"token","type":"address","internalType":"address"},{"name":"to","type":"address","internalType":"address"}],"outputs":[],"stateMutability":"nonpayable"},{"type":"event","name":"FeeUpdated","inputs":[{"name":"oldFee","type":"uint256","indexed":false,"internalType":"uint256"},{"name":"newFee","type":"uint256","indexed":false,"internalType":"uint256"}],"anonymous":false},{"type":"event","name":"FlashloanExecuted","inputs":[{"name":"user","type":"address","indexed":true,"internalType":"address"},{"name":"token","type":"address","indexed":true,"internalType":"address"},{"name":"amount","type":"uint256","indexed":false,"internalType":"uint256"},{"name":"success","type":"bool","indexed":false,"internalType":"bool"},{"name":"profit","type":"uint256","indexed":false,"internalType":"uint256"},{"name":"fee","type":"uint256","indexed":false,"internalType":"uint256"}],"anonymous":false},{"type":"event","name":"Initialized","inputs":[{"name":"version","type":"uint64","indexed":false,"internalType":"uint64"}],"anonymous":false},{"type":"event","name":"MinProfitUpdated","inputs":[{"name":"oldMinProfit","type":"uint256","indexed":false,"internalType":"uint256"},{"name":"newMinProfit","type":"uint256","indexed":false,"internalType":"uint256"}],"anonymous":false},{"type":"event","name":"OwnershipTransferred","inputs":[{"name":"previousOwner","type":"address","indexed":true,"internalType":"address"},{"name":"newOwner","type":"address","indexed":true,"internalType":"address"}],"anonymous":false},{"type":"event","name":"Paused","inputs":[{"name":"account","type":"address","indexed":false,"internalType":"address"}],"anonymous":false},{"type":"event","name":"Unpaused","inputs":[{"name":"account","type":"address","indexed":false,"internalType":"address"}],"anonymous":false},{"type":"event","name":"Upgraded","inputs":[{"name":"implementation","type":"address","indexed":true,"internalType":"address"}],"anonymous":false},{"type":"event","name":"WorkflowExecuted","inputs":[{"name":"workflow","type":"address","indexed":true,"internalType":"address"},{"name":"tokenIn","type":"address","indexed":true,"internalType":"address"},{"name":"tokenOut","type":"address","indexed":true,"internalType":"address"},{"name":"amountIn","type":"uint256","indexed":false,"internalType":"uint256"},{"name":"amountOut","type":"uint256","indexed":false,"internalType":"uint256"},{"name":"success","type":"bool","indexed":false,"internalType":"bool"}],"anonymous":false},{"type":"error","name":"AddressEmptyCode","inputs":[{"name":"target","type":"address","internalType":"address"}]},{"type":"error","name":"ERC1967InvalidImplementation","inputs":[{"name":"implementation","type":"address","internalType":"address"}]},{"type":"error","name":"ERC1967NonPayable","inputs":[]},{"type":"error","name":"EnforcedPause","inputs":[]},{"type":"error","name":"ExpectedPause","inputs":[]},{"type":"error","name":"FailedCall","inputs":[]},{"type":"error","name":"FeeTooHigh","inputs":[]},{"type":"error","name":"FlashloanFailed","inputs":[]},{"type":"error","name":"InsufficientProfit","inputs":[]},{"type":"error","name":"InvalidAmount","inputs":[]},{"type":"error","name":"InvalidFee","inputs":[]},{"type":"error","name":"InvalidInitialization","inputs":[]},{"type":"error","name":"InvalidToken","inputs":[]},{"type":"error","name":"InvalidWorkflow","inputs":[]},{"type":"error","name":"InvalidWorkflowChain","inputs":[]},{"type":"error","name":"NotInitializing","inputs":[]},{"type":"error","name":"OnlyPool","inputs":[]},{"type":"error","name":"OperationAlreadyExecuted","inputs":[]},{"type":"error","name":"OperationNotInitialized","inputs":[]},{"type":"error","name":"OwnableInvalidOwner","inputs":[{"name":"owner","type":"address","internalType":"address"}]},{"type":"error","name":"OwnableUnauthorizedAccount","inputs":[{"name":"account","type":"address","internalType":"address"}]},{"type":"error","name":"ReentrancyGuardReentrantCall","inputs":[]},{"type":"error","name":"RepaymentFailed","inputs":[]},{"type":"error","name":"UUPSUnauthorizedCallContext","inputs":[]},{"type":"error","name":"UUPSUnsupportedProxiableUUID","inputs":[{"name":"slot","type":"bytes32","internalType":"bytes32"}]},{"type":"error","name":"WorkflowChainMismatch","inputs":[]},{"type":"error","name":"WorkflowExecutionFailed","inputs":[]}],"userdoc":{},"devdoc":{},"evm":{"bytecode":{"object":"60a0806040523461002a5730608052612a6890816100308239608051818181611f0c0152611fd30152f35b600080fdfe608080604052600436101561001357600080fd5b600090813560e01c90816316f0115b1461234a5750806324a9d8531461232c578063383aeeae1461230e5780633f4ba83a1461226c5780634437152a146122085780634f1ef28614611f8657806352d1902d14611ee45780635c975abb14611ebf5780636568e0e61461138857806369fe0e2d1461132857806378400f17146112d25780638456cb59146112475780638da5cb5b14611214578063920f5c8414610701578063ad3cb1cc1461069f578063d55be8c614610682578063db2e21bc146105b6578063eb990c591461033f578063f05396ac146102ea578063f255527814610171578063f2fde38b146101445763f3288bd01461011357600080fd5b346101415760206003193601126101415760ff60406020926004358152600384522054166040519015158152f35b80fd5b50346101415760206003193601126101415761016e61016161237c565b61016961284a565b6127a7565b80f35b50346101415760406003193601126101415761018b61237c565b73ffffffffffffffffffffffffffffffffffffffff6101a861239f565b916101b161284a565b1690604051907f70a082310000000000000000000000000000000000000000000000000000000082523060048301526020918281602481875afa9081156102df5785916102ae575b5080610203578480f35b6040517fa9059cbb00000000000000000000000000000000000000000000000000000000815273ffffffffffffffffffffffffffffffffffffffff92909216600483015260248201529181908390604490829087905af180156102a35761026b575b80808480f35b81813d831161029c575b61027f818361242e565b81010312610298576102909061279a565b503880610265565b5080fd5b503d610275565b6040513d85823e3d90fd5b90508281813d83116102d8575b6102c5818361242e565b810103126102d45751386101f9565b8480fd5b503d6102bb565b6040513d87823e3d90fd5b5034610141578060031936011261014157608073ffffffffffffffffffffffffffffffffffffffff8060055416906006541660075460ff600a5416916040519384526020840152604083015215156060820152f35b50346101415760806003193601126101415761035961237c565b61036161239f565b906044357ff0c57e16840df040f15088dc2f81fe391c3923bec73e23a9662efc9c229c6a0092835460ff8160401c16159367ffffffffffffffff8216801590816105ae575b60011490816105a4575b15908161059b575b5061057157818560017fffffffffffffffffffffffffffffffffffffffffffffffff0000000000000000610400951617885561053c575b506103f8612908565b610169612908565b610408612908565b60017f9b779b17422d0df92223018b32b4d1fa46e071723d6817e2486d003becc55f0055610434612908565b61043c612908565b7fffffffffffffffffffffff00ffffffffffffffffffffffffffffffffffffffff600054166000556103e882116105125773ffffffffffffffffffffffffffffffffffffffff91600155606435600255167fffffffffffffffffffffffff000000000000000000000000000000000000000060045416176004556104be575080f35b7fffffffffffffffffffffffffffffffffffffffffffffff00ffffffffffffffff81541690557fc7f505b2f371ae2175ee4913f4499e1f2633a7b5936321eed1cdaeb6115181d2602060405160018152a180f35b60046040517fcd4e6167000000000000000000000000000000000000000000000000000000008152fd5b7fffffffffffffffffffffffffffffffffffffffffffffff0000000000000000001668010000000000000001178655386103ef565b60046040517ff92ee8a9000000000000000000000000000000000000000000000000000000008152fd5b905015386103b8565b303b1591506103b0565b8691506103a6565b50346101415780600319360112610141576105cf61284a565b8080808073ffffffffffffffffffffffffffffffffffffffff81541647905af13d1561067d573d6105ff8161246f565b9061060d604051928361242e565b81528260203d92013e5b1561061f5780f35b60646040517f08c379a000000000000000000000000000000000000000000000000000000000815260206004820152600f60248201527f5472616e73666572206661696c656400000000000000000000000000000000006044820152fd5b610617565b503461014157806003193601126101415760206040516103e88152f35b50346101415780600319360112610141576106fd6040516106bf816123e3565b600581527f352e302e300000000000000000000000000000000000000000000000000000006020820152604051918291602083526020830190612521565b0390f35b50346101415760a06003193601126101415760043567ffffffffffffffff8111610298576107339036906004016124f0565b909160243567ffffffffffffffff8111610298576107559036906004016124f0565b60443567ffffffffffffffff811161105e576107759036906004016124f0565b60649591953573ffffffffffffffffffffffffffffffffffffffff81160361120f5767ffffffffffffffff608435116102d4573660236084350112156102d457608435600401359267ffffffffffffffff841161116057366024856084350101116111605773ffffffffffffffffffffffffffffffffffffffff6004541633036111e55773ffffffffffffffffffffffffffffffffffffffff60055416156111bb57600a549260ff841661119157156111645773ffffffffffffffffffffffffffffffffffffffff88351688350361116057156111335715611106577fffffffffffffffffffffffffffffffffffffffffffffffffffffffffffffff0016600117600a556040608435828101031261101b576024608435013567ffffffffffffffff811161105e5760843501602482608435010160438201121561105e576108ce90602483608435010190604460248201359101612597565b906044608435013567ffffffffffffffff81116102d457608435019060248160843501016043830112156102d457906024610917926084350101906044602482013591016125ed565b91815115610c645781518351036110dc57853591849180355b8251841015610cc05760206109458588612745565b515110610c645773ffffffffffffffffffffffffffffffffffffffff61097e61096e8689612745565b51602080825183010191016128d4565b50169084610cbb5773ffffffffffffffffffffffffffffffffffffffff8a351673ffffffffffffffffffffffffffffffffffffffff871603610c64575b8351807fffffffffffffffffffffffffffffffffffffffffffffffffffffffffffffffff810111610c8e577fffffffffffffffffffffffffffffffffffffffffffffffffffffffffffffffff018514610c2e575b73ffffffffffffffffffffffffffffffffffffffff610a2e8686612745565b511695610a3b8689612745565b51918715610c0457604051977f4bf3e1dd00000000000000000000000000000000000000000000000000000000895273ffffffffffffffffffffffffffffffffffffffff831660048a01528160248a0152606060448a01526040898c8180610aa6606482018a612521565b0391855af1988915610bf9578b908c9a610bb4575b508b9480516020811015610b5a575b5050606073ffffffffffffffffffffffffffffffffffffffff807fdcf941573760651eb31470e27635440b1d12a9d89cd4c40c1ac1e33a281b3be7936040519687528d602088015215978815604088015216951693a4610b305760019094930192610930565b60046040517f5c3cf956000000000000000000000000000000000000000000000000000000008152fd5b7fdcf941573760651eb31470e27635440b1d12a9d89cd4c40c1ac1e33a281b3be792965073ffffffffffffffffffffffffffffffffffffffff80610ba9846020808496606098010191016128d4565b501697935050610aca565b9950506040893d604011610bf1575b81610bd06040938361242e565b81010312610bed576020610be38a61279a565b9901519838610abb565b8a80fd5b3d9150610bc3565b6040513d8d823e3d90fd5b60046040517f4ef96acd000000000000000000000000000000000000000000000000000000008152fd5b73ffffffffffffffffffffffffffffffffffffffff8a351673ffffffffffffffffffffffffffffffffffffffff83160315610a0f575b60046040517f5d0ae914000000000000000000000000000000000000000000000000000000008152fd5b6024897f4e487b710000000000000000000000000000000000000000000000000000000081526011600452fd5b6109bb565b888891888773ffffffffffffffffffffffffffffffffffffffff80853516911603610c645784358211156110d557610cf985358361278d565b915b84358635018635116110a85784358635018110611075576127109485610d236001548661265d565b0493848082111561109f57610d379161278d565b955b610d46600254893561265d565b04861061107557600480546040517f095ea7b300000000000000000000000000000000000000000000000000000000815273ffffffffffffffffffffffffffffffffffffffff9091169181019190915281358835016024820152602081806044810103818773ffffffffffffffffffffffffffffffffffffffff8b35165af1801561106a57611027575b5090610de091358735019061278d565b828111610f56575b828015159182610f4b575b5050610e62575b5073ffffffffffffffffffffffffffffffffffffffff7f16b7d373c2893ea51f29d08638ec2be5ec165800baf41ceaab6e75b7842ed8af92608092826005541695604051973588526001602089015260408801526060870152351693a3602060405160018152f35b6040517fa9059cbb000000000000000000000000000000000000000000000000000000008152306004820152602481018390529060208260448184883573ffffffffffffffffffffffffffffffffffffffff165af18015610f3e57610ec8575b50610dfa565b6020823d602011610f36575b81610ee16020938361242e565b8101031261014157507f16b7d373c2893ea51f29d08638ec2be5ec165800baf41ceaab6e75b7842ed8af92608092610f2d73ffffffffffffffffffffffffffffffffffffffff9361279a565b50925092610ec2565b3d9150610ed4565b50604051903d90823e3d90fd5b101590508287610df3565b610f60838261278d565b80610f6c575b50610de8565b6005546040517fa9059cbb00000000000000000000000000000000000000000000000000000000815273ffffffffffffffffffffffffffffffffffffffff90911660048201526024810191909152602081806044810103818673ffffffffffffffffffffffffffffffffffffffff8a35165af180156102a35715610f66576020813d60201161101f575b816110036020938361242e565b8101031261101b576110149061279a565b5086610f66565b8280fd5b3d9150610ff6565b6020813d602011611062575b816110406020938361242e565b8101031261105e5790611056610de0939261279a565b509091610dd0565b8380fd5b3d9150611033565b6040513d86823e3d90fd5b60046040517f4e47f8ea000000000000000000000000000000000000000000000000000000008152fd5b50508295610d39565b6024827f4e487b710000000000000000000000000000000000000000000000000000000081526011600452fd5b8091610cfb565b60046040517f9df263bd000000000000000000000000000000000000000000000000000000008152fd5b6024847f4e487b710000000000000000000000000000000000000000000000000000000081526032600452fd5b6024857f4e487b710000000000000000000000000000000000000000000000000000000081526032600452fd5b8580fd5b6024867f4e487b710000000000000000000000000000000000000000000000000000000081526032600452fd5b60046040517fb84231a4000000000000000000000000000000000000000000000000000000008152fd5b60046040517f4ea38043000000000000000000000000000000000000000000000000000000008152fd5b60046040517f4b602735000000000000000000000000000000000000000000000000000000008152fd5b600080fd5b503461014157806003193601126101415773ffffffffffffffffffffffffffffffffffffffff6020915416604051908152f35b503461014157806003193601126101415761126061284a565b61126861289b565b740100000000000000000000000000000000000000007fffffffffffffffffffffff00ffffffffffffffffffffffffffffffffffffffff8254161781557f62e78cea01bee320cd4e420270b5ea74000d11b0c9f74754ebdbfc544b05a2586020604051338152a180f35b5034610141576020600319360112610141577f369aaa64746f21909173e6b1331c9929562f5d22457e9dead997fec9dfa0b903604060043561131261284a565b600254908060025582519182526020820152a180f35b50346101415760206003193601126101415760043561134561284a565b6103e881116105125760407f528d9479e9f9889a87a3c30c7f7ba537e5e59c4c85a37733b16e57c62df6130291600154908060015582519182526020820152a180f35b5034610141576080600319360112610141576113a261237c565b60443567ffffffffffffffff811161101b576113c29036906004016124f0565b60649291923567ffffffffffffffff81116102d4576113e59036906004016124f0565b9060027f9b779b17422d0df92223018b32b4d1fa46e071723d6817e2486d003becc55f005414611e955760027f9b779b17422d0df92223018b32b4d1fa46e071723d6817e2486d003becc55f005561143b61289b565b73ffffffffffffffffffffffffffffffffffffffff841615611e6b5760243515611e41578215610c0457818303610c045760405160c0810181811067ffffffffffffffff821117611e145760405233815273ffffffffffffffffffffffffffffffffffffffff8516602082015260243560408201526114bb368588612597565b60608201526114cb3684846125ed565b60808201528660a082015273ffffffffffffffffffffffffffffffffffffffff8151167fffffffffffffffffffffffff0000000000000000000000000000000000000000600554161760055573ffffffffffffffffffffffffffffffffffffffff6020820151167fffffffffffffffffffffffff000000000000000000000000000000000000000060065416176006556040810151600755606081015180519067ffffffffffffffff8211611d6757680100000000000000008211611d675760209060085483600855808410611dde575b500160088952885b828110611d94575050506080810151805190680100000000000000008211611d675760095482600955808310611cd7575b5060209097959701600989527f6e1540171b6c0c960b71a7020d9f60077f6af931a8bbf590da0223dacf75c7af89915b838310611b11575050505060a00151151560ff7fffffffffffffffffffffffffffffffffffffffffffffffffffffffffffffff00600a5416911617600a5573ffffffffffffffffffffffffffffffffffffffff60405194611665866123e3565b60018652602036818801371661167a85612709565b5260405194611688866123e3565b600186526020368188013760243561169f87612709565b52604051926116ad846123e3565b6001845260203681860137876116c285612709565b52604051948286936060850160406020870152526080840191908a5b818110611ad8575050507fffffffffffffffffffffffffffffffffffffffffffffffffffffffffffffffe0838203016040840152818152602081019160208160051b83010192858b935b838510611a0a5750505050506117659250037fffffffffffffffffffffffffffffffffffffffffffffffffffffffffffffffe0810184528361242e565b73ffffffffffffffffffffffffffffffffffffffff6004541692833b156111605793918593916040519586947fab9c4b5d00000000000000000000000000000000000000000000000000000000865260e4860130600488015260e06024880152825180915260206101048801930190885b8181106119d857505050859361181388946118018561182b956003198a809903016044890152612759565b90600319868303016064870152612759565b903060848501526003198483030160a4850152612521565b8260c483015203925af180156119cd57611988575b50806005558060065580600755600854600060085580611944575b50600954600060095580611896575b5080600a5560017f9b779b17422d0df92223018b32b4d1fa46e071723d6817e2486d003becc55f005580f35b60096000527f6e1540171b6c0c960b71a7020d9f60077f6af931a8bbf590da0223dacf75c7af017f6e1540171b6c0c960b71a7020d9f60077f6af931a8bbf590da0223dacf75c7af5b8181106118ec575061186a565b806118f9600192546126b6565b80611906575b50016118df565b601f90818111841461191f575050600081555b386118ff565b61193b60009284845260208420920160051c820185830161269f565b81835555611919565b60086000527ff3f7a9fe364faab93b216da50a3214154f22a0a2b415b23a84c8169e8b636ee3908101905b81811061197c575061185b565b6000815560010161196f565b67ffffffffffffffff81116119a05760405238611840565b6024827f4e487b710000000000000000000000000000000000000000000000000000000081526041600452fd5b6040513d84823e3d90fd5b825173ffffffffffffffffffffffffffffffffffffffff1685528b99508a9850602094850194909201916001016117d6565b9193955091937fffffffffffffffffffffffffffffffffffffffffffffffffffffffffffffffe08282030184528b87357fffffffffffffffffffffffffffffffffffffffffffffffffffffffffffffffe1853603018112156102985784016020813591019067ffffffffffffffff811161101b57803603821361101b57837fffffffffffffffffffffffffffffffffffffffffffffffffffffffffffffffe0601f83602096818897889760019b52878701378582860101520116010198019401950192959391889591611728565b9194509160208060019273ffffffffffffffffffffffffffffffffffffffff611b00896123c2565b1681520195019101918794926116de565b809997995180519067ffffffffffffffff8211611caa578c611b3385546126b6565b601f8111611c6f575b50506020908d601f8411600114611ba957928060209360019693879692611b9e575b50507fffffffffffffffffffffffffffffffffffffffffffffffffffffffffffffffff82861b9260031b1c19161785555b01920192019190989698611605565b015190503880611b5e565b919085835260208320925b7fffffffffffffffffffffffffffffffffffffffffffffffffffffffffffffffe085168110611c57575092602092600195928695837fffffffffffffffffffffffffffffffffffffffffffffffffffffffffffffffe0811610611c20575b505050831b83018555611b8f565b01517fffffffffffffffffffffffffffffffffffffffffffffffffffffffffffffffff60f88460031b161c19169055388080611c12565b91926020600181928685015181550194019201611bb4565b60208287611c99945220601f850160051c81019160208610611ca0575b601f0160051c019061269f565b8c38611b3c565b9091508190611c8c565b60248d7f4e487b710000000000000000000000000000000000000000000000000000000081526041600452fd5b60098a527f6e1540171b6c0c960b71a7020d9f60077f6af931a8bbf590da0223dacf75c7af908382015b8183018110611d115750506115d5565b808c611d1f600193546126b6565b80611d2d575b505001611d01565b601f8082118514611d4457505081555b8c38611d25565b611d5e9084845260208420920160051c820185830161269f565b81835555611d3d565b6024897f4e487b710000000000000000000000000000000000000000000000000000000081526041600452fd5b600190602073ffffffffffffffffffffffffffffffffffffffff845116930192817ff3f7a9fe364faab93b216da50a3214154f22a0a2b415b23a84c8169e8b636ee30155016115a4565b611e0e90847ff3f7a9fe364faab93b216da50a3214154f22a0a2b415b23a84c8169e8b636ee3918201910161269f565b3861159c565b6024887f4e487b710000000000000000000000000000000000000000000000000000000081526041600452fd5b60046040517f2c5211c6000000000000000000000000000000000000000000000000000000008152fd5b60046040517fc1ab6dc1000000000000000000000000000000000000000000000000000000008152fd5b60046040517f3ee5aeb5000000000000000000000000000000000000000000000000000000008152fd5b503461014157806003193601126101415760ff6020915460a01c166040519015158152f35b503461014157806003193601126101415773ffffffffffffffffffffffffffffffffffffffff7f0000000000000000000000000000000000000000000000000000000000000000163003611f5c5760206040517f360894a13ba1a3210667c828492db98dca3e2076cc3735a920a3ca505d382bbc8152f35b60046040517fe07c8dba000000000000000000000000000000000000000000000000000000008152fd5b50604060031936011261014157611f9b61237c565b60243567ffffffffffffffff811161101b57611fbb9036906004016124a9565b73ffffffffffffffffffffffffffffffffffffffff807f0000000000000000000000000000000000000000000000000000000000000000168030149081156121da575b50611f5c5761200b61284a565b8216916040517f52d1902d000000000000000000000000000000000000000000000000000000008152602081600481875afa8591816121a6575b5061207b57602484604051907f4c9c8ce30000000000000000000000000000000000000000000000000000000082526004820152fd5b7f360894a13ba1a3210667c828492db98dca3e2076cc3735a920a3ca505d382bbc908181036121755750813b1561214457837fffffffffffffffffffffffff0000000000000000000000000000000000000000825416179055604051927fbc7cd75a20ee27fd9adebab32041f755214dbc6bffa90cc0225b39da2e5c2d3b8580a28151156121115761210d9250612961565b5080f35b50503461211c575080f35b807fb398979f0000000000000000000000000000000000000000000000000000000060049252fd5b602484604051907f4c9c8ce30000000000000000000000000000000000000000000000000000000082526004820152fd5b602490604051907faa1d49a40000000000000000000000000000000000000000000000000000000082526004820152fd5b9091506020813d6020116121d2575b816121c26020938361242e565b8101031261116057519038612045565b3d91506121b5565b9050817f360894a13ba1a3210667c828492db98dca3e2076cc3735a920a3ca505d382bbc5416141538611ffe565b50346101415760206003193601126101415773ffffffffffffffffffffffffffffffffffffffff61223761237c565b61223f61284a565b167fffffffffffffffffffffffff0000000000000000000000000000000000000000600454161760045580f35b503461014157806003193601126101415761228561284a565b805460ff8160a01c16156122e4577fffffffffffffffffffffff00ffffffffffffffffffffffffffffffffffffffff1681557f5db9ee0a495bf2e6ff9c91a7834c1ba4fdd244a5e8aa4e537bd38aeae4b073aa6020604051338152a180f35b60046040517f8dfc202b000000000000000000000000000000000000000000000000000000008152fd5b50346101415780600319360112610141576020600254604051908152f35b50346101415780600319360112610141576020600154604051908152f35b90503461029857816003193601126102985760209073ffffffffffffffffffffffffffffffffffffffff600454168152f35b6004359073ffffffffffffffffffffffffffffffffffffffff8216820361120f57565b6024359073ffffffffffffffffffffffffffffffffffffffff8216820361120f57565b359073ffffffffffffffffffffffffffffffffffffffff8216820361120f57565b6040810190811067ffffffffffffffff8211176123ff57604052565b7f4e487b7100000000000000000000000000000000000000000000000000000000600052604160045260246000fd5b90601f7fffffffffffffffffffffffffffffffffffffffffffffffffffffffffffffffe0910116810190811067ffffffffffffffff8211176123ff57604052565b67ffffffffffffffff81116123ff57601f017fffffffffffffffffffffffffffffffffffffffffffffffffffffffffffffffe01660200190565b81601f8201121561120f578035906124c08261246f565b926124ce604051948561242e565b8284526020838301011161120f57816000926020809301838601378301015290565b9181601f8401121561120f5782359167ffffffffffffffff831161120f576020808501948460051b01011161120f57565b919082519283825260005b84811061256b5750507fffffffffffffffffffffffffffffffffffffffffffffffffffffffffffffffe0601f8460006020809697860101520116010190565b60208183018101518483018201520161252c565b67ffffffffffffffff81116123ff5760051b60200190565b92916125a28261257f565b916125b0604051938461242e565b829481845260208094019160051b810192831161120f57905b8282106125d65750505050565b8380916125e2846123c2565b8152019101906125c9565b929190926125fa8461257f565b91612608604051938461242e565b829480845260208094019060051b83019282841161120f5780915b84831061263257505050505050565b823567ffffffffffffffff811161120f57869161265286849386016124a9565b815201920191612623565b8181029291811591840414171561267057565b7f4e487b7100000000000000000000000000000000000000000000000000000000600052601160045260246000fd5b8181106126aa575050565b6000815560010161269f565b90600182811c921680156126ff575b60208310146126d057565b7f4e487b7100000000000000000000000000000000000000000000000000000000600052602260045260246000fd5b91607f16916126c5565b8051156127165760200190565b7f4e487b7100000000000000000000000000000000000000000000000000000000600052603260045260246000fd5b80518210156127165760209160051b010190565b90815180825260208080930193019160005b828110612779575050505090565b83518552938101939281019260010161276b565b9190820391821161267057565b5190811515820361120f57565b73ffffffffffffffffffffffffffffffffffffffff80911690811561281957600054827fffffffffffffffffffffffff0000000000000000000000000000000000000000821617600055167f8be0079c531659141344cd1fd0a4f28419497f9722a3daafe3b4186f6b6457e0600080a3565b60246040517f1e4fbdf700000000000000000000000000000000000000000000000000000000815260006004820152fd5b73ffffffffffffffffffffffffffffffffffffffff60005416330361286b57565b60246040517f118cdaa7000000000000000000000000000000000000000000000000000000008152336004820152fd5b60ff60005460a01c166128aa57565b60046040517fd93c0665000000000000000000000000000000000000000000000000000000008152fd5b919082604091031261120f57815173ffffffffffffffffffffffffffffffffffffffff8116810361120f5760209092015190565b60ff7ff0c57e16840df040f15088dc2f81fe391c3923bec73e23a9662efc9c229c6a005460401c161561293757565b60046040517fd7e6bcf8000000000000000000000000000000000000000000000000000000008152fd5b9060008091602081519101845af48080612a1f575b156129975750506040513d81523d6000602083013e60203d82010160405290565b156129e35760249073ffffffffffffffffffffffffffffffffffffffff604051917f9996b315000000000000000000000000000000000000000000000000000000008352166004820152fd5b3d156129f5576040513d6000823e3d90fd5b60046040517fd6bda275000000000000000000000000000000000000000000000000000000008152fd5b503d1515806129765750813b151561297656fea2646970667358221220e29f22e2c53fcd80f575fea58256dc2d86de8173999fac5de0ebff731207a46e64736f6c63430008160033","linkReferences":{}},"methodIdentifiers":{"MAX_FEE_BPS()":"d55be8c6","UPGRADE_INTERFACE_VERSION()":"ad3cb1cc","activeFlashloans(bytes32)":"f3288bd0","currentOperation()":"f05396ac","emergencyWithdraw()":"db2e21bc","executeFlashloan(address,uint256,address[],bytes[])":"6568e0e6","executeOperation(address[],uint256[],uint256[],address,bytes)":"920f5c84","feeBps()":"24a9d853","initialize(address,address,uint256,uint256)":"eb990c59","minProfitBps()":"383aeeae","owner()":"8da5cb5b","pause()":"8456cb59","paused()":"5c975abb","pool()":"16f0115b","proxiableUUID()":"52d1902d","setFee(uint256)":"69fe0e2d","setMinProfit(uint256)":"78400f17","setPool(address)":"4437152a","transferOwnership(address)":"f2fde38b","unpause()":"3f4ba83a","upgradeToAndCall(address,bytes)":"4f1ef286","withdrawFees(address,address)":"f2555278"}}}}}