{"src/UniswapFlashSwap.sol":{"UniswapFlashSwap":{"abi":[{"type":"function","name":"MAX_FEE_BPS","inputs":[],"outputs":[{"name":"","type":"uint256","internalType":"uint256"}],"stateMutability":"view"},{"type":"function","name":"UPGRADE_INTERFACE_VERSION","inputs":[],"outputs":[{"name":"","type":"string","internalType":"string"}],"stateMutability":"view"},{"type":"function","name":"activeFlashloans","inputs":[{"name":"","type":"bytes32","internalType":"bytes32"}],"outputs":[{"name":"","type":"bool","internalType":"bool"}],"stateMutability":"view"},{"type":"function","name":"currentOperation","inputs":[],"outputs":[{"name":"user","type":"address","internalType":"address"},{"name":"tokenIn","type":"address","internalType":"address"},{"name":"tokenOut","type":"address","internalType":"address"},{"name":"amountIn","type":"uint256","internalType":"uint256"},{"name":"pool","type":"address","internalType":"address"},{"name":"executed","type":"bool","internalType":"bool"}],"stateMutability":"view"},{"type":"function","name":"emergencyWithdraw","inputs":[],"outputs":[],"stateMutability":"nonpayable"},{"type":"function","name":"executeFlashSwap","inputs":[{"name":"pool","type":"address","internalType":"address"},{"name":"tokenIn","type":"address","internalType":"address"},{"name":"tokenOut","type":"address","internalType":"address"},{"name":"amountIn","type":"uint256","internalType":"uint256"},{"name":"workflows","type":"address[]","internalType":"address[]"},{"name":"workflowData","type":"bytes[]","internalType":"bytes[]"}],"outputs":[],"stateMutability":"nonpayable"},{"type":"function","name":"feeBps","inputs":[],"outputs":[{"name":"","type":"uint256","internalType":"uint256"}],"stateMutability":"view"},{"type":"function","name":"initialize","inputs":[{"name":"_owner","type":"address","internalType":"address"},{"name":"_feeBps","type":"uint256","internalType":"uint256"},{"name":"_minProfitBps","type":"uint256","internalType":"uint256"}],"outputs":[],"stateMutability":"nonpayable"},{"type":"function","name":"minProfitBps","inputs":[],"outputs":[{"name":"","type":"uint256","internalType":"uint256"}],"stateMutability":"view"},{"type":"function","name":"owner","inputs":[],"outputs":[{"name":"","type":"address","internalType":"address"}],"stateMutability":"view"},{"type":"function","name":"pause","inputs":[],"outputs":[],"stateMutability":"nonpayable"},{"type":"function","name":"paused","inputs":[],"outputs":[{"name":"","type":"bool","internalType":"bool"}],"stateMutability":"view"},{"type":"function","name":"proxiableUUID","inputs":[],"outputs":[{"name":"","type":"bytes32","internalType":"bytes32"}],"stateMutability":"view"},{"type":"function","name":"setFee","inputs":[{"name":"_feeBps","type":"uint256","internalType":"uint256"}],"outputs":[],"stateMutability":"nonpayable"},{"type":"function","name":"setMinProfit","inputs":[{"name":"_minProfitBps","type":"uint256","internalType":"uint256"}],"outputs":[],"stateMutability":"nonpayable"},{"type":"function","name":"transferOwnership","inputs":[{"name":"newOwner","type":"address","internalType":"address"}],"outputs":[],"stateMutability":"nonpayable"},{"type":"function","name":"uniswapV3SwapCallback","inputs":[{"name":"amount0Delta","type":"int256","internalType":"int256"},{"name":"amount1Delta","type":"int256","internalType":"int256"},{"name":"data","type":"bytes","internalType":"bytes"}],"outputs":[],"stateMutability":"nonpayable"},{"type":"function","name":"unpause","inputs":[],"outputs":[],"stateMutability":"nonpayable"},{"type":"function","name":"upgradeToAndCall","inputs":[{"name":"newImplementation","type":"address","internalType":"address"},{"name":"data","type":"bytes","internalType":"bytes"}],"outputs":[],"stateMutability":"payable"},{"type":"function","name":"withdrawFees","inputs":[{"name":"token","type":"address","internalType":"address"},{"name":"to","type":"address","internalType":"address"}],"outputs":[],"stateMutability":"nonpayable"},{"type":"event","name":"FeeUpdated","inputs":[{"name":"oldFee","type":"uint256","indexed":false,"internalType":"uint256"},{"name":"newFee","type":"uint256","indexed":false,"internalType":"uint256"}],"anonymous":false},{"type":"event","name":"FlashloanExecuted","inputs":[{"name":"user","type":"address","indexed":true,"internalType":"address"},{"name":"token","type":"address","indexed":true,"internalType":"address"},{"name":"amount","type":"uint256","indexed":false,"internalType":"uint256"},{"name":"success","type":"bool","indexed":false,"internalType":"bool"},{"name":"profit","type":"uint256","indexed":false,"internalType":"uint256"},{"name":"fee","type":"uint256","indexed":false,"internalType":"uint256"}],"anonymous":false},{"type":"event","name":"Initialized","inputs":[{"name":"version","type":"uint64","indexed":false,"internalType":"uint64"}],"anonymous":false},{"type":"event","name":"MinProfitUpdated","inputs":[{"name":"oldMinProfit","type":"uint256","indexed":false,"internalType":"uint256"},{"name":"newMinProfit","type":"uint256","indexed":false,"internalType":"uint256"}],"anonymous":false},{"type":"event","name":"OwnershipTransferred","inputs":[{"name":"previousOwner","type":"address","indexed":true,"internalType":"address"},{"name":"newOwner","type":"address","indexed":true,"internalType":"address"}],"anonymous":false},{"type":"event","name":"Paused","inputs":[{"name":"account","type":"address","indexed":false,"internalType":"address"}],"anonymous":false},{"type":"event","name":"Unpaused","inputs":[{"name":"account","type":"address","indexed":false,"internalType":"address"}],"anonymous":false},{"type":"event","name":"Upgraded","inputs":[{"name":"implementation","type":"address","indexed":true,"internalType":"address"}],"anonymous":false},{"type":"event","name":"WorkflowExecuted","inputs":[{"name":"workflow","type":"address","indexed":true,"internalType":"address"},{"name":"tokenIn","type":"address","indexed":true,"internalType":"address"},{"name":"tokenOut","type":"address","indexed":true,"internalType":"address"},{"name":"amountIn","type":"uint256","indexed":false,"internalType":"uint256"},{"name":"amountOut","type":"uint256","indexed":false,"internalType":"uint256"},{"name":"success","type":"bool","indexed":false,"internalType":"bool"}],"anonymous":false},{"type":"error","name":"AddressEmptyCode","inputs":[{"name":"target","type":"address","internalType":"address"}]},{"type":"error","name":"ERC1967InvalidImplementation","inputs":[{"name":"implementation","type":"address","internalType":"address"}]},{"type":"error","name":"ERC1967NonPayable","inputs":[]},{"type":"error","name":"EnforcedPause","inputs":[]},{"type":"error","name":"ExpectedPause","inputs":[]},{"type":"error","name":"FailedCall","inputs":[]},{"type":"error","name":"FeeTooHigh","inputs":[]},{"type":"error","name":"FlashloanFailed","inputs":[]},{"type":"error","name":"InsufficientProfit","inputs":[]},{"type":"error","name":"InsufficientRepayment","inputs":[]},{"type":"error","name":"InvalidAmount","inputs":[]},{"type":"error","name":"InvalidFee","inputs":[]},{"type":"error","name":"InvalidInitialization","inputs":[]},{"type":"error","name":"InvalidPool","inputs":[]},{"type":"error","name":"InvalidToken","inputs":[]},{"type":"error","name":"InvalidWorkflow","inputs":[]},{"type":"error","name":"InvalidWorkflowChain","inputs":[]},{"type":"error","name":"NotInitializing","inputs":[]},{"type":"error","name":"OnlyPool","inputs":[]},{"type":"error","name":"OperationAlreadyExecuted","inputs":[]},{"type":"error","name":"OperationNotInitialized","inputs":[]},{"type":"error","name":"OwnableInvalidOwner","inputs":[{"name":"owner","type":"address","internalType":"address"}]},{"type":"error","name":"OwnableUnauthorizedAccount","inputs":[{"name":"account","type":"address","internalType":"address"}]},{"type":"error","name":"ReentrancyGuardReentrantCall","inputs":[]},{"type":"error","name":"RepaymentFailed","inputs":[]},{"type":"error","name":"UUPSUnauthorizedCallContext","inputs":[]},{"type":"error","name":"UUPSUnsupportedProxiableUUID","inputs":[{"name":"slot","type":"bytes32","internalType":"bytes32"}]},{"type":"error","name":"WorkflowChainMismatch","inputs":[]},{"type":"error","name":"WorkflowExecutionFailed","inputs":[]}],"userdoc":{},"devdoc":{},"evm":{"bytecode":{"object":"60a0806040523461002a5730608052612a0290816100308239608051818181611265015261206b0152f35b600080fdfe608080604052600436101561001357600080fd5b60003560e01c90816324a9d8531461235d57508063383aeeae1461233f5780633f4ba83a1461229c5780634f1ef2861461201f5780634fd378a2146112df57806352d1902d1461123d5780635c975abb1461121757806369fe0e2d146111b957806378400f17146111655780637a1ac61e14610f3a5780638456cb5914610eae5780638da5cb5b14610e7a578063ad3cb1cc14610dd6578063d55be8c614610db9578063db2e21bc14610cec578063f05396ac14610c7f578063f255527814610b32578063f2fde38b14610b07578063f3288bd014610ad65763fa461e33146100fb57600080fd5b346105f85760606003193601126105f85767ffffffffffffffff604435116105f8573660236044350112156105f8576044356004013567ffffffffffffffff81116105f857366024826044350101116105f85773ffffffffffffffffffffffffffffffffffffffff6004541615610aac57600b5460ff8116610a825773ffffffffffffffffffffffffffffffffffffffff6008541691823303610a58576040517f0dfe1681000000000000000000000000000000000000000000000000000000008152602081600481875afa90811561060557600091610a39575b50604051907fd21220a7000000000000000000000000000000000000000000000000000000008252602082600481885afa91821561060557600092610a08575b50600060043512156109cf579061022e6004356126b7565b909460017fffffffffffffffffffffffffffffffffffffffffffffffffffffffffffffff00602435965b1617600b55604051907f095ea7b300000000000000000000000000000000000000000000000000000000825260048201527fffffffffffffffffffffffffffffffffffffffffffffffffffffffffffffffff6024820152602081604481600073ffffffffffffffffffffffffffffffffffffffff8b165af1801561060557610996575b50604060443584810103126105f8576024604435013567ffffffffffffffff81116105f8576044350160248460443501016043820112156105f85761033190602485604435010190604460248201359101612574565b9260448035013567ffffffffffffffff81116105f8576024826044350101604382604435010112156105f857602461037d926044350101906044602482823501013591813501016125ca565b926000929182815b83518610156106c9576103ab61039b8789612794565b51602080825183010191016127d7565b50908451807fffffffffffffffffffffffffffffffffffffffffffffffffffffffffffffffff81011161069a577fffffffffffffffffffffffffffffffffffffffffffffffffffffffffffffffff01871461063b575b73ffffffffffffffffffffffffffffffffffffffff6104208887612794565b51169561042d888a612794565b5191871561061157604051977f4bf3e1dd00000000000000000000000000000000000000000000000000000000895273ffffffffffffffffffffffffffffffffffffffff831660048a01528160248a0152606060448a01526040898061049660648201886124d2565b03816000855af19889156106055760009060009a6105bf575b5060009480516020811015610565575b5050606073ffffffffffffffffffffffffffffffffffffffff807fdcf941573760651eb31470e27635440b1d12a9d89cd4c40c1ac1e33a281b3be7936040519687528d602088015215978815604088015216951693a461053b5773ffffffffffffffffffffffffffffffffffffffff6001911694950194610385565b60046040517f5c3cf956000000000000000000000000000000000000000000000000000000008152fd5b7fdcf941573760651eb31470e27635440b1d12a9d89cd4c40c1ac1e33a281b3be792965073ffffffffffffffffffffffffffffffffffffffff806105b4846020808496606098010191016127d7565b5016979350506104bf565b9950506040893d6040116105fd575b816105db604093836123df565b810103126105f85760206105ee8a6126e4565b99015198386104af565b600080fd5b3d91506105ce565b6040513d6000823e3d90fd5b60046040517f4ef96acd000000000000000000000000000000000000000000000000000000008152fd5b73ffffffffffffffffffffffffffffffffffffffff8a1673ffffffffffffffffffffffffffffffffffffffff83160315610401575b60046040517f5d0ae914000000000000000000000000000000000000000000000000000000008152fd5b7f4e487b7100000000000000000000000000000000000000000000000000000000600052601160045260246000fd5b8890888673ffffffffffffffffffffffffffffffffffffffff8085169116036106705780821061096c576106fc9161280b565b916127108061070d6001548661263a565b0492838511948560001461096457610725858261280b565b925b6107336002548961263a565b04831061093a5773ffffffffffffffffffffffffffffffffffffffff60045416956107b2575b50506080917f16b7d373c2893ea51f29d08638ec2be5ec165800baf41ceaab6e75b7842ed8af9373ffffffffffffffffffffffffffffffffffffffff9260405197885260016020890152604088015260608701521693a3005b846107bc9161280b565b6040517fa9059cbb0000000000000000000000000000000000000000000000000000000080825273ffffffffffffffffffffffffffffffffffffffff88166004830152602482019290925260208180604481010381600073ffffffffffffffffffffffffffffffffffffffff88165af1801561060557610901575b5084156107595760405190815230600482015260248101859052906020908290604490829060009073ffffffffffffffffffffffffffffffffffffffff165af1801561060557610888575b80610759565b90916020823d6020116108f9575b816108a3602093836123df565b810103126105f8577f16b7d373c2893ea51f29d08638ec2be5ec165800baf41ceaab6e75b7842ed8af936080936108ee73ffffffffffffffffffffffffffffffffffffffff946126e4565b509250935091610882565b3d9150610896565b6020813d602011610932575b8161091a602093836123df565b810103126105f85761092b906126e4565b5087610837565b3d915061090d565b60046040517f4e47f8ea000000000000000000000000000000000000000000000000000000008152fd5b600092610727565b60046040517f110fd504000000000000000000000000000000000000000000000000000000008152fd5b6020813d6020116109c7575b816109af602093836123df565b810103126105f8576109c0906126e4565b50386102db565b3d91506109a2565b6109da6024356126b7565b909460017fffffffffffffffffffffffffffffffffffffffffffffffffffffffffffffff0060043596610258565b610a2b91925060203d602011610a32575b610a2381836123df565b810190612530565b9038610216565b503d610a19565b610a52915060203d602011610a3257610a2381836123df565b386101d6565b60046040517f4b602735000000000000000000000000000000000000000000000000000000008152fd5b60046040517fb84231a4000000000000000000000000000000000000000000000000000000008152fd5b60046040517f4ea38043000000000000000000000000000000000000000000000000000000008152fd5b346105f85760206003193601126105f8576004356000526003602052602060ff604060002054166040519015158152f35b346105f85760206003193601126105f857610b30610b23612378565b610b2b612818565b6126f1565b005b346105f85760406003193601126105f857610b4b612378565b73ffffffffffffffffffffffffffffffffffffffff610b6861239b565b91610b71612818565b1690604051907f70a082310000000000000000000000000000000000000000000000000000000082523060048301526020918281602481875afa90811561060557600091610c52575b5080610bc257005b6040517fa9059cbb00000000000000000000000000000000000000000000000000000000815273ffffffffffffffffffffffffffffffffffffffff9290921660048301526024820152918190839060449082906000905af1801561060557610c2657005b81813d8311610c4b575b610c3a81836123df565b810103126105f857610b30906126e4565b503d610c30565b90508281813d8311610c78575b610c6981836123df565b810103126105f8575184610bba565b503d610c5f565b346105f85760006003193601126105f85760c073ffffffffffffffffffffffffffffffffffffffff80600454169080600554169080600654169060075490600854169160ff600b5416936040519586526020860152604085015260608401526080830152151560a0820152f35b346105f85760006003193601126105f857610d05612818565b600080808073ffffffffffffffffffffffffffffffffffffffff81541647905af13d15610db4573d610d3681612420565b90610d4460405192836123df565b8152600060203d92013e5b15610d5657005b60646040517f08c379a000000000000000000000000000000000000000000000000000000000815260206004820152600f60248201527f5472616e73666572206661696c656400000000000000000000000000000000006044820152fd5b610d4f565b346105f85760006003193601126105f85760206040516103e88152f35b346105f85760006003193601126105f857604051604081019080821067ffffffffffffffff831117610e4b57610e4791604052600581527f352e302e3000000000000000000000000000000000000000000000000000000060208201526040519182916020835260208301906124d2565b0390f35b7f4e487b7100000000000000000000000000000000000000000000000000000000600052604160045260246000fd5b346105f85760006003193601126105f857602073ffffffffffffffffffffffffffffffffffffffff60005416604051908152f35b346105f85760006003193601126105f857610ec7612818565b610ecf612869565b740100000000000000000000000000000000000000007fffffffffffffffffffffff00ffffffffffffffffffffffffffffffffffffffff60005416176000557f62e78cea01bee320cd4e420270b5ea74000d11b0c9f74754ebdbfc544b05a2586020604051338152a1005b346105f85760606003193601126105f857610f53612378565b602435907ff0c57e16840df040f15088dc2f81fe391c3923bec73e23a9662efc9c229c6a0091825460ff8160401c16159267ffffffffffffffff82168015908161115d575b6001149081611153575b15908161114a575b5061112057818460017fffffffffffffffffffffffffffffffffffffffffffffffff0000000000000000610ff295161787556110eb575b50610fea6128a2565b610b2b6128a2565b610ffa6128a2565b60017f9b779b17422d0df92223018b32b4d1fa46e071723d6817e2486d003becc55f00556110266128a2565b61102e6128a2565b7fffffffffffffffffffffff00ffffffffffffffffffffffffffffffffffffffff600054166000556103e881116110c15760015560443560025561106e57005b7fffffffffffffffffffffffffffffffffffffffffffffff00ffffffffffffffff81541690557fc7f505b2f371ae2175ee4913f4499e1f2633a7b5936321eed1cdaeb6115181d2602060405160018152a1005b60046040517fcd4e6167000000000000000000000000000000000000000000000000000000008152fd5b7fffffffffffffffffffffffffffffffffffffffffffffff000000000000000000166801000000000000000117855585610fe1565b60046040517ff92ee8a9000000000000000000000000000000000000000000000000000000008152fd5b90501586610faa565b303b159150610fa2565b859150610f98565b346105f85760206003193601126105f8577f369aaa64746f21909173e6b1331c9929562f5d22457e9dead997fec9dfa0b90360406004356111a4612818565b600254908060025582519182526020820152a1005b346105f85760206003193601126105f8576004356111d5612818565b6103e881116110c15760407f528d9479e9f9889a87a3c30c7f7ba537e5e59c4c85a37733b16e57c62df6130291600154908060015582519182526020820152a1005b346105f85760006003193601126105f857602060ff60005460a01c166040519015158152f35b346105f85760006003193601126105f85773ffffffffffffffffffffffffffffffffffffffff7f00000000000000000000000000000000000000000000000000000000000000001630036112b55760206040517f360894a13ba1a3210667c828492db98dca3e2076cc3735a920a3ca505d382bbc8152f35b60046040517fe07c8dba000000000000000000000000000000000000000000000000000000008152fd5b346105f85760c06003193601126105f8576112f8612378565b61130061239b565b9060443573ffffffffffffffffffffffffffffffffffffffff811681036105f85760843567ffffffffffffffff81116105f8576113419036906004016124a1565b9060a43567ffffffffffffffff81116105f8576113629036906004016124a1565b919060027f9b779b17422d0df92223018b32b4d1fa46e071723d6817e2486d003becc55f005414611ff55760027f9b779b17422d0df92223018b32b4d1fa46e071723d6817e2486d003becc55f00556113b9612869565b73ffffffffffffffffffffffffffffffffffffffff871615611fcb5760643515611fa15773ffffffffffffffffffffffffffffffffffffffff861615611f775783156106115782840361061157604051947f0dfe168100000000000000000000000000000000000000000000000000000000865260208660048173ffffffffffffffffffffffffffffffffffffffff8b165afa95861561060557600096611f56575b506040517fd21220a700000000000000000000000000000000000000000000000000000000815260208160048173ffffffffffffffffffffffffffffffffffffffff8c165afa90811561060557600091611f37575b5073ffffffffffffffffffffffffffffffffffffffff891673ffffffffffffffffffffffffffffffffffffffff8816149081611f00575b8115611ea2575b5015611e4457604051908161010081011067ffffffffffffffff61010084011117610e4b5773ffffffffffffffffffffffffffffffffffffffff906101008301604052338352818a166020840152166040820152606435606082015273ffffffffffffffffffffffffffffffffffffffff87166080820152611571368685612574565b60a08201526115813685846125ca565b60c0820152600060e082015273ffffffffffffffffffffffffffffffffffffffff8151167fffffffffffffffffffffffff0000000000000000000000000000000000000000600454161760045573ffffffffffffffffffffffffffffffffffffffff6020820151167fffffffffffffffffffffffff0000000000000000000000000000000000000000600554161760055573ffffffffffffffffffffffffffffffffffffffff6040820151167fffffffffffffffffffffffff00000000000000000000000000000000000000006006541617600655606081015160075573ffffffffffffffffffffffffffffffffffffffff6080820151167fffffffffffffffffffffffff0000000000000000000000000000000000000000600854161760085560a081015180519067ffffffffffffffff8211610e4b57680100000000000000008211610e4b5760209060095483600955808410611e0e575b5001600960005260005b828110611dc45750505060c0810151805190680100000000000000008211610e4b57600a5482600a55808310611d31575b5060200190600a6000527fc65a7bb8d6351c1cf70c95a316cc6a92839c986682d98bc35f958f4883f9d2a8916000905b828210611b9a575050505060e00151151560ff7fffffffffffffffffffffffffffffffffffffffffffffffffffffffffffffff00600b5416911617600b5561178f6064356126b7565b9173ffffffffffffffffffffffffffffffffffffffff861673ffffffffffffffffffffffffffffffffffffffff891614600014611b7c576401000276a3939190915b604051958060608801604060208a01525260808701939060005b818110611b45575050507fffffffffffffffffffffffffffffffffffffffffffffffffffffffffffffffe0868403016040870152808352602083019060208160051b85010193836000915b838310611a795750505050505073ffffffffffffffffffffffffffffffffffffffff946118ef8587809660009661189860409c9a8498037fffffffffffffffffffffffffffffffffffffffffffffffffffffffffffffffe081018652856123df565b8b519c8d9b8c9a8b987f128acb08000000000000000000000000000000000000000000000000000000008a523060048b0152169116146024870152604486015216606484015260a0608484015260a48301906124d2565b0393165af1801561060557611a4e575b5060006004556000600555600060065560006007556000600855600954600060095580611a0f575b50600a546000600a5580611961575b6000600b5560017f9b779b17422d0df92223018b32b4d1fa46e071723d6817e2486d003becc55f0055005b600a6000527fc65a7bb8d6351c1cf70c95a316cc6a92839c986682d98bc35f958f4883f9d2a8017fc65a7bb8d6351c1cf70c95a316cc6a92839c986682d98bc35f958f4883f9d2a85b8181106119b75750611936565b806119c460019254612664565b806119d1575b50016119aa565b601f9081811184146119ea575050600081555b836119ca565b611a0660009284845260208420920160051c820185830161264d565b818355556119e4565b7f6e1540171b6c0c960b71a7020d9f60077f6af931a8bbf590da0223dacf75c7af908101905b818110611a425750611927565b60008155600101611a35565b604090813d8311611a72575b611a6481836123df565b810103126105f857806118ff565b503d611a5a565b9091929394957fffffffffffffffffffffffffffffffffffffffffffffffffffffffffffffffe082820301865286357fffffffffffffffffffffffffffffffffffffffffffffffffffffffffffffffe1843603018112156105f8578301906020823592019167ffffffffffffffff81116105f85780360383136105f8576020827fffffffffffffffffffffffffffffffffffffffffffffffffffffffffffffffe0601f848060019886989787985286860137600084820186015201160101980196019493019190611836565b9091939460208060019273ffffffffffffffffffffffffffffffffffffffff611b6d896123be565b168152019695019291016117eb565b73fffd8963efd1fc6a506488495d951d5263988d26939190916117d1565b805180519067ffffffffffffffff8211610e4b57611bb88654612664565b601f8111611cf4575b50602090601f8311600114611c2b579282600194936020938695600092611c20575b50507fffffffffffffffffffffffffffffffffffffffffffffffffffffffffffffffff82861b9260031b1c19161787555b01940191019092611746565b015190503880611be3565b908660005260206000209160005b7fffffffffffffffffffffffffffffffffffffffffffffffffffffffffffffffe085168110611cdc575092602092600195928695837fffffffffffffffffffffffffffffffffffffffffffffffffffffffffffffffe0811610611ca5575b505050831b83018755611c14565b01517fffffffffffffffffffffffffffffffffffffffffffffffffffffffffffffffff60f88460031b161c19169055388080611c97565b91926020600181928685015181550194019201611c39565b611d2190876000526020600020601f850160051c81019160208610611d27575b601f0160051c019061264d565b8e611bc1565b9091508190611d14565b600a6000527fc65a7bb8d6351c1cf70c95a316cc6a92839c986682d98bc35f958f4883f9d2a8908382015b8183018110611d6c575050611716565b80611d7960019254612664565b80611d86575b5001611d5c565b601f908181118414611d9f575050600081555b8e611d7f565b611dbb60009284845260208420920160051c820185830161264d565b81835555611d99565b600190602073ffffffffffffffffffffffffffffffffffffffff845116930192817f6e1540171b6c0c960b71a7020d9f60077f6af931a8bbf590da0223dacf75c7af0155016116e5565b611e3e90847f6e1540171b6c0c960b71a7020d9f60077f6af931a8bbf590da0223dacf75c7af918201910161264d565b8b6116db565b60646040517f08c379a000000000000000000000000000000000000000000000000000000000815260206004820152601360248201527f496e76616c696420706f6f6c20746f6b656e73000000000000000000000000006044820152fd5b905073ffffffffffffffffffffffffffffffffffffffff808a1691161480611ecb575b896114ee565b5073ffffffffffffffffffffffffffffffffffffffff811673ffffffffffffffffffffffffffffffffffffffff871614611ec5565b905073ffffffffffffffffffffffffffffffffffffffff821673ffffffffffffffffffffffffffffffffffffffff821614906114e7565b611f50915060203d602011610a3257610a2381836123df565b896114b0565b611f7091965060203d602011610a3257610a2381836123df565b948861145b565b60046040517f2083cd40000000000000000000000000000000000000000000000000000000008152fd5b60046040517f2c5211c6000000000000000000000000000000000000000000000000000000008152fd5b60046040517fc1ab6dc1000000000000000000000000000000000000000000000000000000008152fd5b60046040517f3ee5aeb5000000000000000000000000000000000000000000000000000000008152fd5b60406003193601126105f857612033612378565b60243567ffffffffffffffff81116105f85761205390369060040161245a565b73ffffffffffffffffffffffffffffffffffffffff807f00000000000000000000000000000000000000000000000000000000000000001680301490811561226e575b506112b5576120a3612818565b8216916040517f52d1902d000000000000000000000000000000000000000000000000000000008152602081600481875afa6000918161223a575b5061211457602484604051907f4c9c8ce30000000000000000000000000000000000000000000000000000000082526004820152fd5b7f360894a13ba1a3210667c828492db98dca3e2076cc3735a920a3ca505d382bbc908181036122095750813b156121d857837fffffffffffffffffffffffff0000000000000000000000000000000000000000825416179055604051927fbc7cd75a20ee27fd9adebab32041f755214dbc6bffa90cc0225b39da2e5c2d3b600080a28151156121a757610b3092506128fb565b5050346121b057005b807fb398979f0000000000000000000000000000000000000000000000000000000060049252fd5b602484604051907f4c9c8ce30000000000000000000000000000000000000000000000000000000082526004820152fd5b602490604051907faa1d49a40000000000000000000000000000000000000000000000000000000082526004820152fd5b9091506020813d602011612266575b81612256602093836123df565b810103126105f8575190856120de565b3d9150612249565b9050817f360894a13ba1a3210667c828492db98dca3e2076cc3735a920a3ca505d382bbc5416141584612096565b346105f85760006003193601126105f8576122b5612818565b60005460ff8160a01c1615612315577fffffffffffffffffffffff00ffffffffffffffffffffffffffffffffffffffff166000557f5db9ee0a495bf2e6ff9c91a7834c1ba4fdd244a5e8aa4e537bd38aeae4b073aa6020604051338152a1005b60046040517f8dfc202b000000000000000000000000000000000000000000000000000000008152fd5b346105f85760006003193601126105f8576020600254604051908152f35b346105f85760006003193601126105f8576020906001548152f35b6004359073ffffffffffffffffffffffffffffffffffffffff821682036105f857565b6024359073ffffffffffffffffffffffffffffffffffffffff821682036105f857565b359073ffffffffffffffffffffffffffffffffffffffff821682036105f857565b90601f7fffffffffffffffffffffffffffffffffffffffffffffffffffffffffffffffe0910116810190811067ffffffffffffffff821117610e4b57604052565b67ffffffffffffffff8111610e4b57601f017fffffffffffffffffffffffffffffffffffffffffffffffffffffffffffffffe01660200190565b81601f820112156105f85780359061247182612420565b9261247f60405194856123df565b828452602083830101116105f857816000926020809301838601378301015290565b9181601f840112156105f85782359167ffffffffffffffff83116105f8576020808501948460051b0101116105f857565b919082519283825260005b84811061251c5750507fffffffffffffffffffffffffffffffffffffffffffffffffffffffffffffffe0601f8460006020809697860101520116010190565b6020818301810151848301820152016124dd565b908160209103126105f8575173ffffffffffffffffffffffffffffffffffffffff811681036105f85790565b67ffffffffffffffff8111610e4b5760051b60200190565b929161257f8261255c565b9161258d60405193846123df565b829481845260208094019160051b81019283116105f857905b8282106125b35750505050565b8380916125bf846123be565b8152019101906125a6565b929190926125d78461255c565b916125e560405193846123df565b829480845260208094019060051b8301928284116105f85780915b84831061260f57505050505050565b823567ffffffffffffffff81116105f857869161262f868493860161245a565b815201920191612600565b8181029291811591840414171561069a57565b818110612658575050565b6000815560010161264d565b90600182811c921680156126ad575b602083101461267e57565b7f4e487b7100000000000000000000000000000000000000000000000000000000600052602260045260246000fd5b91607f1691612673565b7f8000000000000000000000000000000000000000000000000000000000000000811461069a5760000390565b519081151582036105f857565b73ffffffffffffffffffffffffffffffffffffffff80911690811561276357600054827fffffffffffffffffffffffff0000000000000000000000000000000000000000821617600055167f8be0079c531659141344cd1fd0a4f28419497f9722a3daafe3b4186f6b6457e0600080a3565b60246040517f1e4fbdf700000000000000000000000000000000000000000000000000000000815260006004820152fd5b80518210156127a85760209160051b010190565b7f4e487b7100000000000000000000000000000000000000000000000000000000600052603260045260246000fd5b91908260409103126105f857815173ffffffffffffffffffffffffffffffffffffffff811681036105f85760209092015190565b9190820391821161069a57565b73ffffffffffffffffffffffffffffffffffffffff60005416330361283957565b60246040517f118cdaa7000000000000000000000000000000000000000000000000000000008152336004820152fd5b60ff60005460a01c1661287857565b60046040517fd93c0665000000000000000000000000000000000000000000000000000000008152fd5b60ff7ff0c57e16840df040f15088dc2f81fe391c3923bec73e23a9662efc9c229c6a005460401c16156128d157565b60046040517fd7e6bcf8000000000000000000000000000000000000000000000000000000008152fd5b9060008091602081519101845af480806129b9575b156129315750506040513d81523d6000602083013e60203d82010160405290565b1561297d5760249073ffffffffffffffffffffffffffffffffffffffff604051917f9996b315000000000000000000000000000000000000000000000000000000008352166004820152fd5b3d1561298f576040513d6000823e3d90fd5b60046040517fd6bda275000000000000000000000000000000000000000000000000000000008152fd5b503d1515806129105750813b151561291056fea2646970667358221220273870c26fb3b07d2c9f03a88b78852ba3543b9f13661a4382dd110b23d916f064736f6c63430008160033","linkReferences":{}},"methodIdentifiers":{"MAX_FEE_BPS()":"d55be8c6","UPGRADE_INTERFACE_VERSION()":"ad3cb1cc","activeFlashloans(bytes32)":"f3288bd0","currentOperation()":"f05396ac","emergencyWithdraw()":"db2e21bc","executeFlashSwap(address,address,address,uint256,address[],bytes[])":"4fd378a2","feeBps()":"24a9d853","initialize(address,uint256,uint256)":"7a1ac61e","minProfitBps()":"383aeeae","owner()":"8da5cb5b","pause()":"8456cb59","paused()":"5c975abb","proxiableUUID()":"52d1902d","setFee(uint256)":"69fe0e2d","setMinProfit(uint256)":"78400f17","transferOwnership(address)":"f2fde38b","uniswapV3SwapCallback(int256,int256,bytes)":"fa461e33","unpause()":"3f4ba83a","upgradeToAndCall(address,bytes)":"4f1ef286","withdrawFees(address,address)":"f2555278"}}}}}