{"abi":[{"type":"function","name":"executeWorkflow","inputs":[{"name":"","type":"address","internalType":"address"},{"name":"","type":"uint256","internalType":"uint256"},{"name":"","type":"bytes","internalType":"bytes"}],"outputs":[{"name":"","type":"bool","internalType":"bool"},{"name":"","type":"uint256","internalType":"uint256"}],"stateMutability":"pure"}],"bytecode":{"object":"0x608080604052346100155760c4908161001b8239f35b600080fdfe6080806040526004361015601257600080fd5b600090813560e01c634bf3e1dd14602857600080fd5b3460865760603660031901126086576004356001600160a01b0381160360865760443567ffffffffffffffff808211608a5736602383011215608a578160040135908111608a57369101602401116086578160409282526020820152f35b5080fd5b8380fdfea2646970667358221220168e1b333bca55b9946a21ad7a96faf5abf2c6f55df02da0d956564845728f9a64736f6c63430008160033","linkReferences":{}},"methodIdentifiers":{"executeWorkflow(address,uint256,bytes)":"4bf3e1dd"},"id":56}