{"abi":[{"type":"function","name":"executeWorkflow","inputs":[{"name":"","type":"address","internalType":"address"},{"name":"","type":"uint256","internalType":"uint256"},{"name":"","type":"bytes","internalType":"bytes"}],"outputs":[{"name":"","type":"bool","internalType":"bool"},{"name":"","type":"uint256","internalType":"uint256"}],"stateMutability":"pure"}],"bytecode":{"object":"0x608080604052346100155760ef908161001b8239f35b600080fdfe6080806040526004361015601257600080fd5b600090813560e01c634bf3e1dd14602857600080fd5b3460b15760607ffffffffffffffffffffffffffffffffffffffffffffffffffffffffffffffffc36011260b15760043573ffffffffffffffffffffffffffffffffffffffff81160360b15760443567ffffffffffffffff80821160b5573660238301121560b557816004013590811160b5573691016024011160b1578160409282526020820152f35b5080fd5b8380fdfea264697066735822122008e4e210aa846ec4030fa01b8efa5af8d3c375ce09ddb9de736a8d246e5b2ba264736f6c63430008160033","linkReferences":{}},"methodIdentifiers":{"executeWorkflow(address,uint256,bytes)":"4bf3e1dd"},"id":54}