{"abi":[{"type":"function","name":"executeWorkflow","inputs":[{"name":"","type":"address","internalType":"address"},{"name":"","type":"uint256","internalType":"uint256"},{"name":"","type":"bytes","internalType":"bytes"}],"outputs":[{"name":"success","type":"bool","internalType":"bool"},{"name":"amountOut","type":"uint256","internalType":"uint256"}],"stateMutability":"pure"}],"bytecode":{"object":"0x608080604052346100155760ef908161001b8239f35b600080fdfe6080806040526004361015601257600080fd5b600090813560e01c634bf3e1dd14602857600080fd5b3460b15760607ffffffffffffffffffffffffffffffffffffffffffffffffffffffffffffffffc36011260b15760043573ffffffffffffffffffffffffffffffffffffffff81160360b15760443567ffffffffffffffff80821160b5573660238301121560b557816004013590811160b5573691016024011160b1578160409282526020820152f35b5080fd5b8380fdfea26469706673582212202727159460d7945863d4436760c43cb38aed4557e31cfee78ea5913e937da85c64736f6c63430008160033","linkReferences":{}},"methodIdentifiers":{"executeWorkflow(address,uint256,bytes)":"4bf3e1dd"},"id":58}