{"abi":[{"type":"constructor","inputs":[{"name":"_tokenOut","type":"address","internalType":"address"},{"name":"_outputMultiplier","type":"uint256","internalType":"uint256"}],"stateMutability":"nonpayable"},{"type":"function","name":"executeWorkflow","inputs":[{"name":"tokenIn","type":"address","internalType":"address"},{"name":"amountIn","type":"uint256","internalType":"uint256"},{"name":"data","type":"bytes","internalType":"bytes"}],"outputs":[{"name":"success","type":"bool","internalType":"bool"},{"name":"amountOut","type":"uint256","internalType":"uint256"}],"stateMutability":"nonpayable"},{"type":"function","name":"mintTokens","inputs":[{"name":"token","type":"address","internalType":"address"},{"name":"amount","type":"uint256","internalType":"uint256"}],"outputs":[],"stateMutability":"nonpayable"},{"type":"function","name":"outputMultiplier","inputs":[],"outputs":[{"name":"","type":"uint256","internalType":"uint256"}],"stateMutability":"view"},{"type":"function","name":"tokenOut","inputs":[],"outputs":[{"name":"","type":"address","internalType":"address"}],"stateMutability":"view"},{"type":"event","name":"WorkflowExecuted","inputs":[{"name":"tokenIn","type":"address","indexed":false,"internalType":"address"},{"name":"tokenOut","type":"address","indexed":false,"internalType":"address"},{"name":"amountIn","type":"uint256","indexed":false,"internalType":"uint256"},{"name":"amountOut","type":"uint256","indexed":false,"internalType":"uint256"}],"anonymous":false}],"bytecode":{"object":"0x60803461007c57601f6105bb38819003918201601f19168301916001600160401b0383118484101761008157808492604094855283398101031261007c5780516001600160a01b038116919082900361007c5760200151600080546001600160a01b03191690921790915560015560405161052390816100988239f35b600080fd5b634e487b7160e01b600052604160045260246000fdfe604060808152600436101561001357600080fd5b600090813560e01c80634bf3e1dd1461021f578063d0202d3b146101cf578063e265ae45146101935763f0dda65c1461004b57600080fd5b3461015057807ffffffffffffffffffffffffffffffffffffffffffffffffffffffffffffffffc360112610150576100816102b1565b81517fa9059cbb0000000000000000000000000000000000000000000000000000000081523360048201526024803590820152919060209083906044908290879073ffffffffffffffffffffffffffffffffffffffff165af18015610189576100e8578280f35b6020903d602011610181575b7fffffffffffffffffffffffffffffffffffffffffffffffffffffffffffffffe0601f83011683019083821067ffffffffffffffff831117610154575260209082018290031261015057518015150361014d5738808280f35b80fd5b5080fd5b6024857f4e487b710000000000000000000000000000000000000000000000000000000081526041600452fd5b3d91506100f4565b81513d85823e3d90fd5b503461015057817ffffffffffffffffffffffffffffffffffffffffffffffffffffffffffffffffc360112610150576020906001549051908152f35b503461015057817ffffffffffffffffffffffffffffffffffffffffffffffffffffffffffffffffc3601126101505773ffffffffffffffffffffffffffffffffffffffff60209254169051908152f35b50346101505760607ffffffffffffffffffffffffffffffffffffffffffffffffffffffffffffffffc360112610150576102576102b1565b916044359267ffffffffffffffff9182851161014d573660238601121561014d57846004013592831161014d57366024848701011161014d575060246102a393940190602435906102d9565b825191151582526020820152f35b6004359073ffffffffffffffffffffffffffffffffffffffff821682036102d457565b600080fd5b90939192936000946000946040918281101561047e575b505060015480830290838204148315171561044f5761271090049485106104435773ffffffffffffffffffffffffffffffffffffffff8060005416803b156102d45782517f40c10f1900000000000000000000000000000000000000000000000000000000815233600482015260248101889052906000908290604490829084905af18015610438576103c4575b50917f5ebf29a5cb558f8d4945bca106d57eaa0dcf594e6d9f2cb3ea27f80b8c65fc289391836080946001995416908251941684526020840152820152846060820152a1565b9290965067ffffffffffffffff8394929411610409579183526000959092907f5ebf29a5cb558f8d4945bca106d57eaa0dcf594e6d9f2cb3ea27f80b8c65fc2861037e565b7f4e487b7100000000000000000000000000000000000000000000000000000000600052604160045260246000fd5b83513d6000823e3d90fd5b50600094508493505050565b7f4e487b7100000000000000000000000000000000000000000000000000000000600052601160045260246000fd5b819650908291810103126102d45784359473ffffffffffffffffffffffffffffffffffffffff86168096036102d4576020013594806104be575b806102f0565b7fffffffffffffffffffffffff00000000000000000000000000000000000000006000541617600055386104b856fea26469706673582212202541971ad7217b2858c8f89ba4ecd17308b4fbc8e8ed96c5c77bf2f91929059664736f6c63430008160033","linkReferences":{}},"methodIdentifiers":{"executeWorkflow(address,uint256,bytes)":"4bf3e1dd","mintTokens(address,uint256)":"f0dda65c","outputMultiplier()":"e265ae45","tokenOut()":"d0202d3b"},"id":58}