{"abi":[{"type":"constructor","inputs":[{"name":"_tokenOut","type":"address","internalType":"address"},{"name":"_profitMultiplier","type":"uint256","internalType":"uint256"}],"stateMutability":"nonpayable"},{"type":"function","name":"executeWorkflow","inputs":[{"name":"token","type":"address","internalType":"address"},{"name":"amount","type":"uint256","internalType":"uint256"},{"name":"","type":"bytes","internalType":"bytes"}],"outputs":[{"name":"success","type":"bool","internalType":"bool"},{"name":"profit","type":"uint256","internalType":"uint256"}],"stateMutability":"nonpayable"},{"type":"function","name":"mintTokens","inputs":[{"name":"token","type":"address","internalType":"address"},{"name":"amount","type":"uint256","internalType":"uint256"}],"outputs":[],"stateMutability":"nonpayable"},{"type":"function","name":"profitMultiplier","inputs":[],"outputs":[{"name":"","type":"uint256","internalType":"uint256"}],"stateMutability":"view"},{"type":"function","name":"tokenOut","inputs":[],"outputs":[{"name":"","type":"address","internalType":"address"}],"stateMutability":"view"},{"type":"event","name":"WorkflowExecuted","inputs":[{"name":"tokenIn","type":"address","indexed":false,"internalType":"address"},{"name":"amountIn","type":"uint256","indexed":false,"internalType":"uint256"},{"name":"profit","type":"uint256","indexed":false,"internalType":"uint256"}],"anonymous":false}],"bytecode":{"object":"0x60803461007c57601f61055c38819003918201601f19168301916001600160401b0383118484101761008157808492604094855283398101031261007c5780516001600160a01b038116919082900361007c5760200151600080546001600160a01b0319169092179091556001556040516104c490816100988239f35b600080fd5b634e487b7160e01b600052604160045260246000fdfe608060408181526004908136101561001657600080fd5b600092833560e01c9081634bf3e1dd1461017257508063ad9318e914610153578063d0202d3b1461012b5763f0dda65c1461005057600080fd5b34610127578060031936011261012757610068610426565b815163a9059cbb60e01b815233818501908152602435602082810191909152919492859182908890829060400103926001600160a01b03165af1801561011d576100b0578380f35b6020913d602011610115575b601f8301601f191684019167ffffffffffffffff8311858410176101005750526020908201829003126100fc5751801515036100f9573880808380f35b80fd5b5080fd5b604190634e487b7160e01b6000525260246000fd5b3d92506100bc565b82513d86823e3d90fd5b8280fd5b8382346100fc57816003193601126100fc57905490516001600160a01b039091168152602090f35b8382346100fc57816003193601126100fc576020906001549051908152f35b91939050346100f95760603660031901126100f95761018f610426565b906024359360443567ffffffffffffffff8082116103d457366023830112156103d457818301359081116103d457369101602401116100fc57600154938486029486159087870414811715610413576127108096049460018060a01b03808654169116968188146000146102f05750505050833b156100fc5785516340c10f1960e01b8152339181019182526020820184905290829082908190604001038183885af180156102e65790859392916102cc575b505b8282111561029d575061027a7f33bfd05bff4b2d0d8f13631c5fc8228d68a2780b49a73f99388f131afc37296f9260609261046b565b926001945b865191825260208201528386820152a1825191151582526020820152f35b927f33bfd05bff4b2d0d8f13631c5fc8228d68a2780b49a73f99388f131afc37296f925060609150839461027f565b819293506102d990610441565b6100f95790839138610242565b86513d84823e3d90fd5b612774999897969594929399938489029489860414171561040057813b156103fc576340c10f1960e01b808b5233848c0190815291909404602082015284918a9182908490829060400103925af19788156103f2578697989695966103df575b50848411156103d857610363858561046b565b915b82610373575b505050610244565b909192939450853b156103d4578751908152339181019182526020820192909252829082908190604001038183885af180156102e65790859392916103ba575b808061036b565b819293506103c790610441565b6100f957908391386103b3565b8380fd5b8291610365565b6103eb90939193610441565b9138610350565b87513d85823e3d90fd5b8480fd5b634e487b7160e01b855260118352602485fd5b634e487b7160e01b845260118352602484fd5b600435906001600160a01b038216820361043c57565b600080fd5b67ffffffffffffffff811161045557604052565b634e487b7160e01b600052604160045260246000fd5b9190820391821161047857565b634e487b7160e01b600052601160045260246000fdfea26469706673582212205461e93434d1bfbac6e4cbe6902f5f51cd0b376dbdbc15c5892cbb82c114f36d64736f6c63430008160033","linkReferences":{}},"methodIdentifiers":{"executeWorkflow(address,uint256,bytes)":"4bf3e1dd","mintTokens(address,uint256)":"f0dda65c","profitMultiplier()":"ad9318e9","tokenOut()":"d0202d3b"},"id":56}