{"abi":[{"type":"function","name":"MAX_FEE_BPS","inputs":[],"outputs":[{"name":"","type":"uint256","internalType":"uint256"}],"stateMutability":"view"},{"type":"function","name":"UPGRADE_INTERFACE_VERSION","inputs":[],"outputs":[{"name":"","type":"string","internalType":"string"}],"stateMutability":"view"},{"type":"function","name":"activeFlashloans","inputs":[{"name":"","type":"bytes32","internalType":"bytes32"}],"outputs":[{"name":"","type":"bool","internalType":"bool"}],"stateMutability":"view"},{"type":"function","name":"currentOperation","inputs":[],"outputs":[{"name":"user","type":"address","internalType":"address"},{"name":"tokenIn","type":"address","internalType":"address"},{"name":"tokenOut","type":"address","internalType":"address"},{"name":"amountIn","type":"uint256","internalType":"uint256"},{"name":"pool","type":"address","internalType":"address"},{"name":"workflow","type":"address","internalType":"address"},{"name":"workflowData","type":"bytes","internalType":"bytes"},{"name":"executed","type":"bool","internalType":"bool"}],"stateMutability":"view"},{"type":"function","name":"emergencyWithdraw","inputs":[],"outputs":[],"stateMutability":"nonpayable"},{"type":"function","name":"executeFlashSwap","inputs":[{"name":"pool","type":"address","internalType":"address"},{"name":"tokenIn","type":"address","internalType":"address"},{"name":"tokenOut","type":"address","internalType":"address"},{"name":"amountIn","type":"uint256","internalType":"uint256"},{"name":"workflow","type":"address","internalType":"address"},{"name":"workflowData","type":"bytes","internalType":"bytes"}],"outputs":[],"stateMutability":"nonpayable"},{"type":"function","name":"feeBps","inputs":[],"outputs":[{"name":"","type":"uint256","internalType":"uint256"}],"stateMutability":"view"},{"type":"function","name":"initialize","inputs":[{"name":"_owner","type":"address","internalType":"address"},{"name":"_feeBps","type":"uint256","internalType":"uint256"},{"name":"_minProfitBps","type":"uint256","internalType":"uint256"}],"outputs":[],"stateMutability":"nonpayable"},{"type":"function","name":"minProfitBps","inputs":[],"outputs":[{"name":"","type":"uint256","internalType":"uint256"}],"stateMutability":"view"},{"type":"function","name":"owner","inputs":[],"outputs":[{"name":"","type":"address","internalType":"address"}],"stateMutability":"view"},{"type":"function","name":"pause","inputs":[],"outputs":[],"stateMutability":"nonpayable"},{"type":"function","name":"paused","inputs":[],"outputs":[{"name":"","type":"bool","internalType":"bool"}],"stateMutability":"view"},{"type":"function","name":"proxiableUUID","inputs":[],"outputs":[{"name":"","type":"bytes32","internalType":"bytes32"}],"stateMutability":"view"},{"type":"function","name":"setFee","inputs":[{"name":"_feeBps","type":"uint256","internalType":"uint256"}],"outputs":[],"stateMutability":"nonpayable"},{"type":"function","name":"setMinProfit","inputs":[{"name":"_minProfitBps","type":"uint256","internalType":"uint256"}],"outputs":[],"stateMutability":"nonpayable"},{"type":"function","name":"transferOwnership","inputs":[{"name":"newOwner","type":"address","internalType":"address"}],"outputs":[],"stateMutability":"nonpayable"},{"type":"function","name":"uniswapV3SwapCallback","inputs":[{"name":"amount0Delta","type":"int256","internalType":"int256"},{"name":"amount1Delta","type":"int256","internalType":"int256"},{"name":"data","type":"bytes","internalType":"bytes"}],"outputs":[],"stateMutability":"nonpayable"},{"type":"function","name":"unpause","inputs":[],"outputs":[],"stateMutability":"nonpayable"},{"type":"function","name":"upgradeToAndCall","inputs":[{"name":"newImplementation","type":"address","internalType":"address"},{"name":"data","type":"bytes","internalType":"bytes"}],"outputs":[],"stateMutability":"payable"},{"type":"function","name":"withdrawFees","inputs":[{"name":"token","type":"address","internalType":"address"},{"name":"to","type":"address","internalType":"address"}],"outputs":[],"stateMutability":"nonpayable"},{"type":"event","name":"FeeUpdated","inputs":[{"name":"oldFee","type":"uint256","indexed":false,"internalType":"uint256"},{"name":"newFee","type":"uint256","indexed":false,"internalType":"uint256"}],"anonymous":false},{"type":"event","name":"FlashloanExecuted","inputs":[{"name":"user","type":"address","indexed":true,"internalType":"address"},{"name":"token","type":"address","indexed":true,"internalType":"address"},{"name":"amount","type":"uint256","indexed":false,"internalType":"uint256"},{"name":"success","type":"bool","indexed":false,"internalType":"bool"},{"name":"profit","type":"uint256","indexed":false,"internalType":"uint256"},{"name":"fee","type":"uint256","indexed":false,"internalType":"uint256"}],"anonymous":false},{"type":"event","name":"Initialized","inputs":[{"name":"version","type":"uint64","indexed":false,"internalType":"uint64"}],"anonymous":false},{"type":"event","name":"MinProfitUpdated","inputs":[{"name":"oldMinProfit","type":"uint256","indexed":false,"internalType":"uint256"},{"name":"newMinProfit","type":"uint256","indexed":false,"internalType":"uint256"}],"anonymous":false},{"type":"event","name":"OwnershipTransferred","inputs":[{"name":"previousOwner","type":"address","indexed":true,"internalType":"address"},{"name":"newOwner","type":"address","indexed":true,"internalType":"address"}],"anonymous":false},{"type":"event","name":"Paused","inputs":[{"name":"account","type":"address","indexed":false,"internalType":"address"}],"anonymous":false},{"type":"event","name":"Unpaused","inputs":[{"name":"account","type":"address","indexed":false,"internalType":"address"}],"anonymous":false},{"type":"event","name":"Upgraded","inputs":[{"name":"implementation","type":"address","indexed":true,"internalType":"address"}],"anonymous":false},{"type":"event","name":"WorkflowExecuted","inputs":[{"name":"workflow","type":"address","indexed":true,"internalType":"address"},{"name":"token","type":"address","indexed":true,"internalType":"address"},{"name":"amount","type":"uint256","indexed":false,"internalType":"uint256"},{"name":"success","type":"bool","indexed":false,"internalType":"bool"}],"anonymous":false},{"type":"error","name":"AddressEmptyCode","inputs":[{"name":"target","type":"address","internalType":"address"}]},{"type":"error","name":"ERC1967InvalidImplementation","inputs":[{"name":"implementation","type":"address","internalType":"address"}]},{"type":"error","name":"ERC1967NonPayable","inputs":[]},{"type":"error","name":"EnforcedPause","inputs":[]},{"type":"error","name":"ExpectedPause","inputs":[]},{"type":"error","name":"FailedCall","inputs":[]},{"type":"error","name":"FeeTooHigh","inputs":[]},{"type":"error","name":"FlashloanFailed","inputs":[]},{"type":"error","name":"InsufficientProfit","inputs":[]},{"type":"error","name":"InsufficientRepayment","inputs":[]},{"type":"error","name":"InvalidAmount","inputs":[]},{"type":"error","name":"InvalidFee","inputs":[]},{"type":"error","name":"InvalidInitialization","inputs":[]},{"type":"error","name":"InvalidPool","inputs":[]},{"type":"error","name":"InvalidToken","inputs":[]},{"type":"error","name":"InvalidWorkflow","inputs":[]},{"type":"error","name":"NotInitializing","inputs":[]},{"type":"error","name":"OnlyPool","inputs":[]},{"type":"error","name":"OperationAlreadyExecuted","inputs":[]},{"type":"error","name":"OperationNotInitialized","inputs":[]},{"type":"error","name":"OwnableInvalidOwner","inputs":[{"name":"owner","type":"address","internalType":"address"}]},{"type":"error","name":"OwnableUnauthorizedAccount","inputs":[{"name":"account","type":"address","internalType":"address"}]},{"type":"error","name":"ReentrancyGuardReentrantCall","inputs":[]},{"type":"error","name":"RepaymentFailed","inputs":[]},{"type":"error","name":"UUPSUnauthorizedCallContext","inputs":[]},{"type":"error","name":"UUPSUnsupportedProxiableUUID","inputs":[{"name":"slot","type":"bytes32","internalType":"bytes32"}]},{"type":"error","name":"WorkflowExecutionFailed","inputs":[]}],"bytecode":{"object":"0x60a0806040523461002a573060805261250d90816100308239608051818181611c030152611cc90152f35b600080fdfe608080604052600436101561001357600080fd5b60003560e01c90816324a9d85314611fbb57508063383aeeae14611f9d5780633f4ba83a14611efa5780634f1ef28614611c7d57806352d1902d14611bdb5780635c975abb14611bb557806369fe0e2d14611b5757806378400f1714611b035780637a1ac61e146118d85780638456cb591461184c5780638da5cb5b14611818578063ad3cb1cc146117a3578063d55be8c614611786578063db2e21bc146116b9578063ec0deb9d14610c13578063f05396ac14610ab3578063f255527814610966578063f2fde38b1461093b578063f3288bd01461090a5763fa461e33146100fb57600080fd5b346105735760606003193601126105735760043567ffffffffffffffff6024356044358281116105735761013390369060040161214a565b909273ffffffffffffffffffffffffffffffffffffffff948560045416156108e057600b549060ff82166108b65786600854169586330361088c57604051947f0dfe168100000000000000000000000000000000000000000000000000000000865260209687876004818c5afa96871561057f5760009761086d575b50604051907fd21220a700000000000000000000000000000000000000000000000000000000825288826004818d5afa97881561057f578b9260009961083e575b506000861215610807577fffffffffffffffffffffffffffffffffffffffffffffffffffffffffffffff00610227600192976121f7565b9992975b1617600b551697604051907f095ea7b300000000000000000000000000000000000000000000000000000000825260048201527fffffffffffffffffffffffffffffffffffffffffffffffffffffffffffffffff6024820152878160448160008d5af1801561057f576107d3575b508101604082820312610573578135948986168096036105735787830135908111610573576102c892016120ce565b9683156107a95760408161031f93825194859283927f4bf3e1dd000000000000000000000000000000000000000000000000000000008452169b8c60048401528960248401526060604484015260648301906120ec565b03816000885af193841561057f57600092600095610768575b50886040519387855215917f5dee3edaeb80cf46cfae409cbfc46656849e646c6133b76a81faaddb19bd02156040841596878c820152a361073e57612710928361038460015487612253565b049485808211156107345761039891612316565b935b6103a660025488612253565b04841061070a5760405187816024817f70a08231000000000000000000000000000000000000000000000000000000009c8d82523060048301525afa90811561057f576000916106dd575b50106106b35760405196875230600488015285876024818b5afa96871561057f57600097610684575b50600454169580610465575b509060809392917f16b7d373c2893ea51f29d08638ec2be5ec165800baf41ceaab6e75b7842ed8af9560405194855284015260408301526060820152a3005b83868115158061067a575b1561058b575061047f91612316565b806104ba575b509060809392917f16b7d373c2893ea51f29d08638ec2be5ec165800baf41ceaab6e75b7842ed8af955b955090919293610426565b6040517fa9059cbb00000000000000000000000000000000000000000000000000000000815273ffffffffffffffffffffffffffffffffffffffff881660048201526024810191909152858160448160008c5af1801561057f571561048557939291908585813d8311610578575b610532818361201c565b81010312610573577f16b7d373c2893ea51f29d08638ec2be5ec165800baf41ceaab6e75b7842ed8af95610567608096612266565b50955090919293610485565b600080fd5b503d610528565b6040513d6000823e3d90fd5b6040517fa9059cbb00000000000000000000000000000000000000000000000000000000815273ffffffffffffffffffffffffffffffffffffffff8a166004820152602481019390935290508160448160008c5af1801561057f57610619575b509060809392917f16b7d373c2893ea51f29d08638ec2be5ec165800baf41ceaab6e75b7842ed8af956104af565b939291908585813d8311610673575b610632818361201c565b81010312610573577f16b7d373c2893ea51f29d08638ec2be5ec165800baf41ceaab6e75b7842ed8af95610667608096612266565b509550909192936105eb565b503d610628565b5081831015610470565b9096508581813d83116106ac575b61069c818361201c565b810103126105735751953861041a565b503d610692565b60046040517f110fd504000000000000000000000000000000000000000000000000000000008152fd5b90508781813d8311610703575b6106f4818361201c565b810103126105735751386103f1565b503d6106ea565b60046040517f4e47f8ea000000000000000000000000000000000000000000000000000000008152fd5b505060009361039a565b60046040517f5c3cf956000000000000000000000000000000000000000000000000000000008152fd5b925093506040823d6040116107a1575b816107856040938361201c565b81010312610573578561079783612266565b9201519338610338565b3d9150610778565b60046040517f4ef96acd000000000000000000000000000000000000000000000000000000008152fd5b8781813d8311610800575b6107e8818361201c565b81010312610573576107f990612266565b5038610299565b503d6107de565b977fffffffffffffffffffffffffffffffffffffffffffffffffffffffffffffff0061083660019297936121f7565b99929761022b565b61085f9199508a3d8c11610866575b610857818361201c565b8101906121cb565b97386101f0565b503d61084d565b610885919750883d8a1161086657610857818361201c565b95386101af565b60046040517f4b602735000000000000000000000000000000000000000000000000000000008152fd5b60046040517fb84231a4000000000000000000000000000000000000000000000000000000008152fd5b60046040517f4ea38043000000000000000000000000000000000000000000000000000000008152fd5b34610573576020600319360112610573576004356000526003602052602060ff604060002054166040519015158152f35b3461057357602060031936011261057357610964610957611fd6565b61095f612323565b612273565b005b346105735760406003193601126105735761097f611fd6565b73ffffffffffffffffffffffffffffffffffffffff61099c611ff9565b916109a5612323565b1690604051907f70a082310000000000000000000000000000000000000000000000000000000082523060048301526020918281602481875afa90811561057f57600091610a86575b50806109f657005b6040517fa9059cbb00000000000000000000000000000000000000000000000000000000815273ffffffffffffffffffffffffffffffffffffffff9290921660048301526024820152918190839060449082906000905af1801561057f57610a5a57005b81813d8311610a7f575b610a6e818361201c565b810103126105735761096490612266565b503d610a64565b90508281813d8311610aac575b610a9d818361201c565b810103126105735751846109ee565b503d610a93565b346105735760006003193601126105735773ffffffffffffffffffffffffffffffffffffffff8060045416816005541690826006541660075491846008541694600954169060405191600096600a5495610b0c87612178565b808652602097600190818116908115610bd75750600114610b80575b5050610b3c85610b749798999a038661201c565b60ff600b541696604051998a99610100968b528a015260408901526060880152608087015260a08601528060c08601528401906120ec565b90151560e08301520390f35b600a60009081529a507fc65a7bb8d6351c1cf70c95a316cc6a92839c986682d98bc35f958f4883f9d2a85b828c10610bc457505050978401860197610b3c85610b28565b8054888d018b01529a89019a8101610bab565b7fffffffffffffffffffffffffffffffffffffffffffffffffffffffffffffff0016888b01525050151560051b850187019850610b3c85610b28565b346105735760c060031936011261057357610c2c611fd6565b610c34611ff9565b906044359173ffffffffffffffffffffffffffffffffffffffff831683036105735760843573ffffffffffffffffffffffffffffffffffffffff811681036105735760a43567ffffffffffffffff811161057357610c9690369060040161214a565b92909460027f9b779b17422d0df92223018b32b4d1fa46e071723d6817e2486d003becc55f00541461168f5760027f9b779b17422d0df92223018b32b4d1fa46e071723d6817e2486d003becc55f0055610cee612374565b73ffffffffffffffffffffffffffffffffffffffff821615611665576064351561163b5773ffffffffffffffffffffffffffffffffffffffff85161561161157604051907f0dfe168100000000000000000000000000000000000000000000000000000000825260208260048173ffffffffffffffffffffffffffffffffffffffff8a165afa91821561057f576000926115f0575b506040517fd21220a700000000000000000000000000000000000000000000000000000000815260208160048173ffffffffffffffffffffffffffffffffffffffff8b165afa90811561057f576000916115d1575b5073ffffffffffffffffffffffffffffffffffffffff841673ffffffffffffffffffffffffffffffffffffffff841614908161159a575b811561153c575b50156114de57604051908161010081011067ffffffffffffffff610100840111176114af5773ffffffffffffffffffffffffffffffffffffffff9061010083016040523383528185166020840152166040820152606435606082015273ffffffffffffffffffffffffffffffffffffffff8616608082015273ffffffffffffffffffffffffffffffffffffffff841660a0820152610eb5368689612097565b8060c0830152600060e083015273ffffffffffffffffffffffffffffffffffffffff8251167fffffffffffffffffffffffff0000000000000000000000000000000000000000600454161760045573ffffffffffffffffffffffffffffffffffffffff6020830151167fffffffffffffffffffffffff0000000000000000000000000000000000000000600554161760055573ffffffffffffffffffffffffffffffffffffffff6040830151167fffffffffffffffffffffffff00000000000000000000000000000000000000006006541617600655606082015160075573ffffffffffffffffffffffffffffffffffffffff6080830151167fffffffffffffffffffffffff0000000000000000000000000000000000000000600854161760085573ffffffffffffffffffffffffffffffffffffffff60a0830151167fffffffffffffffffffffffff0000000000000000000000000000000000000000600954161760095580519067ffffffffffffffff82116114af57611038600a54612178565b601f8111611410575b50602090601f83116001146112fe57611168608073ffffffffffffffffffffffffffffffffffffffff9b99978c8060009960e060409f9d999a8b849c6111bb9b8f9b879c926112f3575b50507fffffffffffffffffffffffffffffffffffffffffffffffffffffffffffffffff8260011b9260031b1c191617600a555b0151151560ff7fffffffffffffffffffffffffffffffffffffffffffffffffffffffffffffff00600b5416911617600b5516911614947fffffffffffffffffffffffffffffffffffffffffffffffffffffffffffffffe0601f6111226064356121f7565b9a888b146112d757806401000276a39e5b604051988996166020870152604080870152816060870152868601378a8582860101520116810103606081018452018261201c565b8851998a98899788957f128acb080000000000000000000000000000000000000000000000000000000087523060048801526024870152604486015216606484015260a0608484015260a48301906120ec565b0393165af1801561057f576112ac575b506000600455600060055560006006556000600755600060085560006009556111f5600a54612178565b80611226575b6000600b5560017f9b779b17422d0df92223018b32b4d1fa46e071723d6817e2486d003becc55f0055005b601f811160011461123e57506000600a555b806111fb565b601f7fc65a7bb8d6351c1cf70c95a316cc6a92839c986682d98bc35f958f4883f9d2a8910160051c81017fc65a7bb8d6351c1cf70c95a316cc6a92839c986682d98bc35f958f4883f9d2a95b8181106112a057505060009081600a5555611238565b6000815560010161128a565b604090813d83116112d0575b6112c2818361201c565b8101031261057357806111cb565b503d6112b8565b8073fffd8963efd1fc6a506488495d951d5263988d269e611133565b01519050388061108b565b90600a6000527fc65a7bb8d6351c1cf70c95a316cc6a92839c986682d98bc35f958f4883f9d2a89160005b7fffffffffffffffffffffffffffffffffffffffffffffffffffffffffffffffe0851681106113f85750608073ffffffffffffffffffffffffffffffffffffffff9b99978c8060009960e060409f9d999a60018c6111bb9b869e9b6111689b837fffffffffffffffffffffffffffffffffffffffffffffffffffffffffffffffe08a9f16106113c1575b505050811b01600a556110be565b01517fffffffffffffffffffffffffffffffffffffffffffffffffffffffffffffffff60f88460031b161c191690553880806113b3565b91926020600181928685015181550194019201611329565b600a600052601f830160051c7fc65a7bb8d6351c1cf70c95a316cc6a92839c986682d98bc35f958f4883f9d2a80160208410611488575b601f820160051c7fc65a7bb8d6351c1cf70c95a316cc6a92839c986682d98bc35f958f4883f9d2a801811061147c5750611041565b60008155600101611447565b507fc65a7bb8d6351c1cf70c95a316cc6a92839c986682d98bc35f958f4883f9d2a8611447565b7f4e487b7100000000000000000000000000000000000000000000000000000000600052604160045260246000fd5b60646040517f08c379a000000000000000000000000000000000000000000000000000000000815260206004820152601360248201527f496e76616c696420706f6f6c20746f6b656e73000000000000000000000000006044820152fd5b905073ffffffffffffffffffffffffffffffffffffffff80851691161480611565575b88610e16565b5073ffffffffffffffffffffffffffffffffffffffff811673ffffffffffffffffffffffffffffffffffffffff83161461155f565b905073ffffffffffffffffffffffffffffffffffffffff821673ffffffffffffffffffffffffffffffffffffffff82161490610e0f565b6115ea915060203d60201161086657610857818361201c565b88610dd8565b61160a91925060203d60201161086657610857818361201c565b9087610d83565b60046040517f2083cd40000000000000000000000000000000000000000000000000000000008152fd5b60046040517f2c5211c6000000000000000000000000000000000000000000000000000000008152fd5b60046040517fc1ab6dc1000000000000000000000000000000000000000000000000000000008152fd5b60046040517f3ee5aeb5000000000000000000000000000000000000000000000000000000008152fd5b34610573576000600319360112610573576116d2612323565b600080808073ffffffffffffffffffffffffffffffffffffffff81541647905af13d15611781573d6117038161205d565b90611711604051928361201c565b8152600060203d92013e5b1561172357005b60646040517f08c379a000000000000000000000000000000000000000000000000000000000815260206004820152600f60248201527f5472616e73666572206661696c656400000000000000000000000000000000006044820152fd5b61171c565b346105735760006003193601126105735760206040516103e88152f35b3461057357600060031936011261057357604051604081019080821067ffffffffffffffff8311176114af5761181491604052600581527f352e302e3000000000000000000000000000000000000000000000000000000060208201526040519182916020835260208301906120ec565b0390f35b3461057357600060031936011261057357602073ffffffffffffffffffffffffffffffffffffffff60005416604051908152f35b3461057357600060031936011261057357611865612323565b61186d612374565b740100000000000000000000000000000000000000007fffffffffffffffffffffff00ffffffffffffffffffffffffffffffffffffffff60005416176000557f62e78cea01bee320cd4e420270b5ea74000d11b0c9f74754ebdbfc544b05a2586020604051338152a1005b34610573576060600319360112610573576118f1611fd6565b602435907ff0c57e16840df040f15088dc2f81fe391c3923bec73e23a9662efc9c229c6a0091825460ff8160401c16159267ffffffffffffffff821680159081611afb575b6001149081611af1575b159081611ae8575b50611abe57818460017fffffffffffffffffffffffffffffffffffffffffffffffff00000000000000006119909516178755611a89575b506119886123ad565b61095f6123ad565b6119986123ad565b60017f9b779b17422d0df92223018b32b4d1fa46e071723d6817e2486d003becc55f00556119c46123ad565b6119cc6123ad565b7fffffffffffffffffffffff00ffffffffffffffffffffffffffffffffffffffff600054166000556103e88111611a5f57600155604435600255611a0c57005b7fffffffffffffffffffffffffffffffffffffffffffffff00ffffffffffffffff81541690557fc7f505b2f371ae2175ee4913f4499e1f2633a7b5936321eed1cdaeb6115181d2602060405160018152a1005b60046040517fcd4e6167000000000000000000000000000000000000000000000000000000008152fd5b7fffffffffffffffffffffffffffffffffffffffffffffff00000000000000000016680100000000000000011785558561197f565b60046040517ff92ee8a9000000000000000000000000000000000000000000000000000000008152fd5b90501586611948565b303b159150611940565b859150611936565b34610573576020600319360112610573577f369aaa64746f21909173e6b1331c9929562f5d22457e9dead997fec9dfa0b9036040600435611b42612323565b600254908060025582519182526020820152a1005b3461057357602060031936011261057357600435611b73612323565b6103e88111611a5f5760407f528d9479e9f9889a87a3c30c7f7ba537e5e59c4c85a37733b16e57c62df6130291600154908060015582519182526020820152a1005b3461057357600060031936011261057357602060ff60005460a01c166040519015158152f35b346105735760006003193601126105735773ffffffffffffffffffffffffffffffffffffffff7f0000000000000000000000000000000000000000000000000000000000000000163003611c535760206040517f360894a13ba1a3210667c828492db98dca3e2076cc3735a920a3ca505d382bbc8152f35b60046040517fe07c8dba000000000000000000000000000000000000000000000000000000008152fd5b604060031936011261057357611c91611fd6565b60243567ffffffffffffffff811161057357611cb19036906004016120ce565b73ffffffffffffffffffffffffffffffffffffffff807f000000000000000000000000000000000000000000000000000000000000000016803014908115611ecc575b50611c5357611d01612323565b8216916040517f52d1902d000000000000000000000000000000000000000000000000000000008152602081600481875afa60009181611e98575b50611d7257602484604051907f4c9c8ce30000000000000000000000000000000000000000000000000000000082526004820152fd5b7f360894a13ba1a3210667c828492db98dca3e2076cc3735a920a3ca505d382bbc90818103611e675750813b15611e3657837fffffffffffffffffffffffff0000000000000000000000000000000000000000825416179055604051927fbc7cd75a20ee27fd9adebab32041f755214dbc6bffa90cc0225b39da2e5c2d3b600080a2815115611e05576109649250612406565b505034611e0e57005b807fb398979f0000000000000000000000000000000000000000000000000000000060049252fd5b602484604051907f4c9c8ce30000000000000000000000000000000000000000000000000000000082526004820152fd5b602490604051907faa1d49a40000000000000000000000000000000000000000000000000000000082526004820152fd5b9091506020813d602011611ec4575b81611eb46020938361201c565b8101031261057357519085611d3c565b3d9150611ea7565b9050817f360894a13ba1a3210667c828492db98dca3e2076cc3735a920a3ca505d382bbc5416141584611cf4565b3461057357600060031936011261057357611f13612323565b60005460ff8160a01c1615611f73577fffffffffffffffffffffff00ffffffffffffffffffffffffffffffffffffffff166000557f5db9ee0a495bf2e6ff9c91a7834c1ba4fdd244a5e8aa4e537bd38aeae4b073aa6020604051338152a1005b60046040517f8dfc202b000000000000000000000000000000000000000000000000000000008152fd5b34610573576000600319360112610573576020600254604051908152f35b34610573576000600319360112610573576020906001548152f35b6004359073ffffffffffffffffffffffffffffffffffffffff8216820361057357565b6024359073ffffffffffffffffffffffffffffffffffffffff8216820361057357565b90601f7fffffffffffffffffffffffffffffffffffffffffffffffffffffffffffffffe0910116810190811067ffffffffffffffff8211176114af57604052565b67ffffffffffffffff81116114af57601f017fffffffffffffffffffffffffffffffffffffffffffffffffffffffffffffffe01660200190565b9291926120a38261205d565b916120b1604051938461201c565b829481845281830111610573578281602093846000960137010152565b9080601f83011215610573578160206120e993359101612097565b90565b919082519283825260005b8481106121365750507fffffffffffffffffffffffffffffffffffffffffffffffffffffffffffffffe0601f8460006020809697860101520116010190565b6020818301810151848301820152016120f7565b9181601f840112156105735782359167ffffffffffffffff8311610573576020838186019501011161057357565b90600182811c921680156121c1575b602083101461219257565b7f4e487b7100000000000000000000000000000000000000000000000000000000600052602260045260246000fd5b91607f1691612187565b90816020910312610573575173ffffffffffffffffffffffffffffffffffffffff811681036105735790565b7f800000000000000000000000000000000000000000000000000000000000000081146122245760000390565b7f4e487b7100000000000000000000000000000000000000000000000000000000600052601160045260246000fd5b8181029291811591840414171561222457565b5190811515820361057357565b73ffffffffffffffffffffffffffffffffffffffff8091169081156122e557600054827fffffffffffffffffffffffff0000000000000000000000000000000000000000821617600055167f8be0079c531659141344cd1fd0a4f28419497f9722a3daafe3b4186f6b6457e0600080a3565b60246040517f1e4fbdf700000000000000000000000000000000000000000000000000000000815260006004820152fd5b9190820391821161222457565b73ffffffffffffffffffffffffffffffffffffffff60005416330361234457565b60246040517f118cdaa7000000000000000000000000000000000000000000000000000000008152336004820152fd5b60ff60005460a01c1661238357565b60046040517fd93c0665000000000000000000000000000000000000000000000000000000008152fd5b60ff7ff0c57e16840df040f15088dc2f81fe391c3923bec73e23a9662efc9c229c6a005460401c16156123dc57565b60046040517fd7e6bcf8000000000000000000000000000000000000000000000000000000008152fd5b9060008091602081519101845af480806124c4575b1561243c5750506040513d81523d6000602083013e60203d82010160405290565b156124885760249073ffffffffffffffffffffffffffffffffffffffff604051917f9996b315000000000000000000000000000000000000000000000000000000008352166004820152fd5b3d1561249a576040513d6000823e3d90fd5b60046040517fd6bda275000000000000000000000000000000000000000000000000000000008152fd5b503d15158061241b5750813b151561241b56fea26469706673582212200ce6978666a44ac2f1462c36ba20dd16394e2358d9251d9ebc5ab8b0bcf67d0764736f6c63430008160033","linkReferences":{}},"methodIdentifiers":{"MAX_FEE_BPS()":"d55be8c6","UPGRADE_INTERFACE_VERSION()":"ad3cb1cc","activeFlashloans(bytes32)":"f3288bd0","currentOperation()":"f05396ac","emergencyWithdraw()":"db2e21bc","executeFlashSwap(address,address,address,uint256,address,bytes)":"ec0deb9d","feeBps()":"24a9d853","initialize(address,uint256,uint256)":"7a1ac61e","minProfitBps()":"383aeeae","owner()":"8da5cb5b","pause()":"8456cb59","paused()":"5c975abb","proxiableUUID()":"52d1902d","setFee(uint256)":"69fe0e2d","setMinProfit(uint256)":"78400f17","transferOwnership(address)":"f2fde38b","uniswapV3SwapCallback(int256,int256,bytes)":"fa461e33","unpause()":"3f4ba83a","upgradeToAndCall(address,bytes)":"4f1ef286","withdrawFees(address,address)":"f2555278"},"id":35}