{"abi":[{"type":"function","name":"MAX_FEE_BPS","inputs":[],"outputs":[{"name":"","type":"uint256","internalType":"uint256"}],"stateMutability":"view"},{"type":"function","name":"UPGRADE_INTERFACE_VERSION","inputs":[],"outputs":[{"name":"","type":"string","internalType":"string"}],"stateMutability":"view"},{"type":"function","name":"activeFlashloans","inputs":[{"name":"","type":"bytes32","internalType":"bytes32"}],"outputs":[{"name":"","type":"bool","internalType":"bool"}],"stateMutability":"view"},{"type":"function","name":"currentOperation","inputs":[],"outputs":[{"name":"user","type":"address","internalType":"address"},{"name":"tokenIn","type":"address","internalType":"address"},{"name":"tokenOut","type":"address","internalType":"address"},{"name":"amountIn","type":"uint256","internalType":"uint256"},{"name":"pool","type":"address","internalType":"address"},{"name":"workflow","type":"address","internalType":"address"},{"name":"workflowData","type":"bytes","internalType":"bytes"},{"name":"executed","type":"bool","internalType":"bool"}],"stateMutability":"view"},{"type":"function","name":"emergencyWithdraw","inputs":[],"outputs":[],"stateMutability":"nonpayable"},{"type":"function","name":"executeFlashSwap","inputs":[{"name":"pool","type":"address","internalType":"address"},{"name":"tokenIn","type":"address","internalType":"address"},{"name":"tokenOut","type":"address","internalType":"address"},{"name":"amountIn","type":"uint256","internalType":"uint256"},{"name":"workflow","type":"address","internalType":"address"},{"name":"workflowData","type":"bytes","internalType":"bytes"}],"outputs":[],"stateMutability":"nonpayable"},{"type":"function","name":"feeBps","inputs":[],"outputs":[{"name":"","type":"uint256","internalType":"uint256"}],"stateMutability":"view"},{"type":"function","name":"initialize","inputs":[{"name":"_owner","type":"address","internalType":"address"},{"name":"_feeBps","type":"uint256","internalType":"uint256"},{"name":"_minProfitBps","type":"uint256","internalType":"uint256"}],"outputs":[],"stateMutability":"nonpayable"},{"type":"function","name":"minProfitBps","inputs":[],"outputs":[{"name":"","type":"uint256","internalType":"uint256"}],"stateMutability":"view"},{"type":"function","name":"owner","inputs":[],"outputs":[{"name":"","type":"address","internalType":"address"}],"stateMutability":"view"},{"type":"function","name":"pause","inputs":[],"outputs":[],"stateMutability":"nonpayable"},{"type":"function","name":"paused","inputs":[],"outputs":[{"name":"","type":"bool","internalType":"bool"}],"stateMutability":"view"},{"type":"function","name":"proxiableUUID","inputs":[],"outputs":[{"name":"","type":"bytes32","internalType":"bytes32"}],"stateMutability":"view"},{"type":"function","name":"setFee","inputs":[{"name":"_feeBps","type":"uint256","internalType":"uint256"}],"outputs":[],"stateMutability":"nonpayable"},{"type":"function","name":"setMinProfit","inputs":[{"name":"_minProfitBps","type":"uint256","internalType":"uint256"}],"outputs":[],"stateMutability":"nonpayable"},{"type":"function","name":"transferOwnership","inputs":[{"name":"newOwner","type":"address","internalType":"address"}],"outputs":[],"stateMutability":"nonpayable"},{"type":"function","name":"uniswapV3SwapCallback","inputs":[{"name":"amount0Delta","type":"int256","internalType":"int256"},{"name":"amount1Delta","type":"int256","internalType":"int256"},{"name":"data","type":"bytes","internalType":"bytes"}],"outputs":[],"stateMutability":"nonpayable"},{"type":"function","name":"unpause","inputs":[],"outputs":[],"stateMutability":"nonpayable"},{"type":"function","name":"upgradeToAndCall","inputs":[{"name":"newImplementation","type":"address","internalType":"address"},{"name":"data","type":"bytes","internalType":"bytes"}],"outputs":[],"stateMutability":"payable"},{"type":"function","name":"withdrawFees","inputs":[{"name":"token","type":"address","internalType":"address"},{"name":"to","type":"address","internalType":"address"}],"outputs":[],"stateMutability":"nonpayable"},{"type":"event","name":"FeeUpdated","inputs":[{"name":"oldFee","type":"uint256","indexed":false,"internalType":"uint256"},{"name":"newFee","type":"uint256","indexed":false,"internalType":"uint256"}],"anonymous":false},{"type":"event","name":"FlashloanExecuted","inputs":[{"name":"user","type":"address","indexed":true,"internalType":"address"},{"name":"token","type":"address","indexed":true,"internalType":"address"},{"name":"amount","type":"uint256","indexed":false,"internalType":"uint256"},{"name":"success","type":"bool","indexed":false,"internalType":"bool"},{"name":"profit","type":"uint256","indexed":false,"internalType":"uint256"},{"name":"fee","type":"uint256","indexed":false,"internalType":"uint256"}],"anonymous":false},{"type":"event","name":"Initialized","inputs":[{"name":"version","type":"uint64","indexed":false,"internalType":"uint64"}],"anonymous":false},{"type":"event","name":"MinProfitUpdated","inputs":[{"name":"oldMinProfit","type":"uint256","indexed":false,"internalType":"uint256"},{"name":"newMinProfit","type":"uint256","indexed":false,"internalType":"uint256"}],"anonymous":false},{"type":"event","name":"OwnershipTransferred","inputs":[{"name":"previousOwner","type":"address","indexed":true,"internalType":"address"},{"name":"newOwner","type":"address","indexed":true,"internalType":"address"}],"anonymous":false},{"type":"event","name":"Paused","inputs":[{"name":"account","type":"address","indexed":false,"internalType":"address"}],"anonymous":false},{"type":"event","name":"Unpaused","inputs":[{"name":"account","type":"address","indexed":false,"internalType":"address"}],"anonymous":false},{"type":"event","name":"Upgraded","inputs":[{"name":"implementation","type":"address","indexed":true,"internalType":"address"}],"anonymous":false},{"type":"event","name":"WorkflowExecuted","inputs":[{"name":"workflow","type":"address","indexed":true,"internalType":"address"},{"name":"token","type":"address","indexed":true,"internalType":"address"},{"name":"amount","type":"uint256","indexed":false,"internalType":"uint256"},{"name":"success","type":"bool","indexed":false,"internalType":"bool"}],"anonymous":false},{"type":"error","name":"AddressEmptyCode","inputs":[{"name":"target","type":"address","internalType":"address"}]},{"type":"error","name":"ERC1967InvalidImplementation","inputs":[{"name":"implementation","type":"address","internalType":"address"}]},{"type":"error","name":"ERC1967NonPayable","inputs":[]},{"type":"error","name":"EnforcedPause","inputs":[]},{"type":"error","name":"ExpectedPause","inputs":[]},{"type":"error","name":"FailedCall","inputs":[]},{"type":"error","name":"FeeTooHigh","inputs":[]},{"type":"error","name":"FlashloanFailed","inputs":[]},{"type":"error","name":"InsufficientProfit","inputs":[]},{"type":"error","name":"InsufficientRepayment","inputs":[]},{"type":"error","name":"InvalidAmount","inputs":[]},{"type":"error","name":"InvalidFee","inputs":[]},{"type":"error","name":"InvalidInitialization","inputs":[]},{"type":"error","name":"InvalidPool","inputs":[]},{"type":"error","name":"InvalidToken","inputs":[]},{"type":"error","name":"InvalidWorkflow","inputs":[]},{"type":"error","name":"NotInitializing","inputs":[]},{"type":"error","name":"OnlyPool","inputs":[]},{"type":"error","name":"OperationAlreadyExecuted","inputs":[]},{"type":"error","name":"OperationNotInitialized","inputs":[]},{"type":"error","name":"OwnableInvalidOwner","inputs":[{"name":"owner","type":"address","internalType":"address"}]},{"type":"error","name":"OwnableUnauthorizedAccount","inputs":[{"name":"account","type":"address","internalType":"address"}]},{"type":"error","name":"ReentrancyGuardReentrantCall","inputs":[]},{"type":"error","name":"RepaymentFailed","inputs":[]},{"type":"error","name":"UUPSUnauthorizedCallContext","inputs":[]},{"type":"error","name":"UUPSUnsupportedProxiableUUID","inputs":[{"name":"slot","type":"bytes32","internalType":"bytes32"}]},{"type":"error","name":"WorkflowExecutionFailed","inputs":[]}],"bytecode":{"object":"0x60a0806040523461002a5730608052611ae5908161003082396080518181816113f4015261149c0152f35b600080fdfe608080604052600436101561001357600080fd5b60003560e01c90816324a9d853146116cb57508063383aeeae146116ad5780633f4ba83a1461163b5780634f1ef2861461145e57806352d1902d146113e15780635c975abb146113bb57806369fe0e2d1461135d57806378400f17146113095780637a1ac61e1461117e5780638456cb591461111c5780638da5cb5b146110f3578063ad3cb1cc14611096578063d55be8c614611079578063db2e21bc14610fdd578063ec0deb9d1461095b578063f05396ac14610839578063f255527814610736578063f2fde38b1461070b578063f3288bd0146106da5763fa461e33146100fb57600080fd5b346104565760603660031901126104565760043567ffffffffffffffff602435604435828111610456576101339036906004016117e5565b6004546001600160a01b039592949192908616156106c857600b549060ff82166106b6578660085416958633036106a45760405194630dfe168160e01b865260209687876004818c5afa96871561046257600097610685575b5060405163d21220a760e01b81529088826004818d5afa978815610462578b92600099610656575b506000861215610640576101ca6001919661186c565b9891965b60ff191617600b5560405163095ea7b360e01b8152600481019a909a5260001960248b01521697878160448160008d5af180156104625761060c575b508101604082820312610456578135948986168096036104565787830135908111610456576102399201611787565b9683156105fa576040816102779382519485928392634bf3e1dd60e01b8452169b8c60048401528960248401526060604484015260648301906117a5565b03816000885af1938415610462576000926000956105b9575b50886040519387855215917f5dee3edaeb80cf46cfae409cbfc46656849e646c6133b76a81faaddb19bd02156040841596878c820152a36105a75761271092836102dc60015487611893565b0494858082111561059d576102f091611920565b935b6102fe60025488611893565b04841061058b5760405187816024816370a0823160e01b9c8d82523060048301525afa9081156104625760009161055e575b501061054c5760405196875230600488015285876024818b5afa9687156104625760009761051d575b50600454169580610392575b50906080939291600080516020611a708339815191529560405194855284015260408301526060820152a3005b838681151580610513575b1561046e57506103ac91611920565b806103d5575b50906080939291600080516020611a70833981519152955b955090919293610365565b60405163a9059cbb60e01b81526001600160a01b03881660048201526024810191909152858160448160008c5af1801561046257156103b257939291908585813d831161045b575b6104278183611712565b8101031261045657600080516020611a708339815191529561044a6080966118a6565b509550909192936103b2565b600080fd5b503d61041d565b6040513d6000823e3d90fd5b60405163a9059cbb60e01b81526001600160a01b038a166004820152602481019390935290508160448160008c5af18015610462576104c4575b50906080939291600080516020611a70833981519152956103ca565b939291908585813d831161050c575b6104dd8183611712565b8101031261045657600080516020611a70833981519152956105006080966118a6565b509550909192936104a8565b503d6104d3565b508183101561039d565b9096508581813d8311610545575b6105358183611712565b8101031261045657519538610359565b503d61052b565b604051630443f54160e21b8152600490fd5b90508781813d8311610584575b6105758183611712565b81010312610456575138610330565b503d61056b565b604051632723fc7560e11b8152600490fd5b50506000936102f2565b604051632e1e7cab60e11b8152600490fd5b925093506040823d6040116105f2575b816105d660409383611712565b8101031261045657856105e8836118a6565b9201519338610290565b3d91506105c9565b604051634ef96acd60e01b8152600490fd5b8781813d8311610639575b6106218183611712565b8101031261045657610632906118a6565b503861020a565b503d610617565b9761064e600191969261186c565b9891966101ce565b6106779199508a3d8c1161067e575b61066f8183611712565b81019061184d565b97386101b4565b503d610665565b61069d919750883d8a1161067e5761066f8183611712565b953861018c565b604051634b60273560e01b8152600490fd5b604051632e108c6960e21b8152600490fd5b604051634ea3804360e01b8152600490fd5b34610456576020366003190112610456576004356000526003602052602060ff604060002054166040519015158152f35b34610456576020366003190112610456576107346107276116e6565b61072f61192d565b6118b3565b005b346104565760403660031901126104565761074f6116e6565b6107576116fc565b9061076061192d565b6040516370a0823160e01b81523060048201526001600160a01b0391909116916020918281602481875afa9081156104625760009161080c575b50806107a257005b60405163a9059cbb60e01b81526001600160a01b039290921660048301526024820152918190839060449082906000905af18015610462576107e057005b81813d8311610805575b6107f48183611712565b8101031261045657610734906118a6565b503d6107ea565b90508281813d8311610832575b6108238183611712565b8101031261045657518461079a565b503d610819565b346104565760003660031901126104565760018060a01b038060045416816005541690826006541660075491846008541694600954169060405191600096600a549561088487611813565b80865260209760019081811690811561093d57506001146108f8575b50506108b4856108ec9798999a0386611712565b60ff600b541696604051998a99610100968b528a015260408901526060880152608087015260a08601528060c08601528401906117a5565b90151560e08301520390f35b600a60009081529a50600080516020611a508339815191525b828c1061092a575050509784018601976108b4856108a0565b8054888d018b01529a89019a8101610911565b60ff1916888b01525050151560051b8501870198506108b4856108a0565b346104565760c0366003190112610456576109746116e6565b61097c6116fc565b604435916001600160a01b038316830361045657608435906001600160a01b03821682036104565760a43567ffffffffffffffff8111610456576109c49036906004016117e5565b9290936002600080516020611a908339815191525414610fcb576002600080516020611a90833981519152556109f8611959565b6001600160a01b03811615610fb95760643515610fa7576001600160a01b03831615610f9657604051630dfe168160e01b81526020816004816001600160a01b0388165afa90811561046257600091610f77575b5060405163d21220a760e01b81526020816004816001600160a01b0389165afa90811561046257600091610f58575b506001600160a01b03828116908416149081610f42575b8115610f11575b5015610ed657604051968761010081011067ffffffffffffffff6101008a011117610ec057610100880160409081523389526001600160a01b0384811660208b01529182169089015260643560608901528481166080890152831660a0880152610b04368688611750565b60c08801819052600060e08901528751600480546001600160a01b03199081166001600160a01b039384161790915560208a015160058054831691841691909117905560408a015160068054831691841691909117905560608a015160075560808a015160088054831691841691909117905560a08a0151600980549092169216919091179055805190979067ffffffffffffffff8111610ec057610baa600a54611813565b601f8111610e57575b506020601f8211600114610dd957918160e092600096959460409b9c8892610dce575b50508160011b9187199060031b1c191617600a555b0151151560ff8019600b5416911617600b5560018060a01b03169060018060a01b031614610c6f6080610c1f60643561186c565b94838514610db3576401000276a3975b808a519b8c9360018060a01b031660208501528b808501528160608501528484013785838284010152601f8019910116810103606081018a520188611712565b610cb3865197889687958694630251596160e31b86523060048701526024860152604485015260018060a01b0316606484015260a0608484015260a48301906117a5565b03926001600160a01b03165af1801561046257610d88575b50600060045560006005556000600655600060075560006008556000600955610cf5600a54611813565b80610d14575b6000600b556001600080516020611a9083398151915255005b601f8111600114610d2c57506000600a555b80610cfb565b601f600080516020611a50833981519152910160051c81017fc65a7bb8d6351c1cf70c95a316cc6a92839c986682d98bc35f958f4883f9d2a95b818110610d7c57505060009081600a5555610d26565b60008155600101610d66565b604090813d8311610dac575b610d9e8183611712565b810103126104565780610ccb565b503d610d94565b73fffd8963efd1fc6a506488495d951d5263988d2697610c2f565b015190508c80610bd6565b600a600052600080516020611a508339815191529960005b601f1984168110610e3f57508260409a9b60009796959360019360e096601f19811610610e27575b505050811b01600a55610beb565b0151881960f88460031b161c191690558c8080610e19565b828201518c556001909b019a60209283019201610df1565b600a600052601f820160051c600080516020611a508339815191520160208310610eab575b601f820160051c600080516020611a50833981519152018110610e9f5750610bb3565b60008155600101610e7c565b50600080516020611a50833981519152610e7c565b634e487b7160e01b600052604160045260246000fd5b60405162461bcd60e51b8152602060048201526013602482015272496e76616c696420706f6f6c20746f6b656e7360681b6044820152606490fd5b6001600160a01b03848116911614905080610f2d575b88610a99565b506001600160a01b0381811690881614610f27565b6001600160a01b03808216908a16149150610a92565b610f71915060203d60201161067e5761066f8183611712565b88610a7b565b610f90915060203d60201161067e5761066f8183611712565b87610a4c565b60405162820f3560e61b8152600490fd5b60405163162908e360e11b8152600490fd5b60405163c1ab6dc160e01b8152600490fd5b604051633ee5aeb560e01b8152600490fd5b3461045657600036600319011261045657610ff661192d565b6000805481908190819047906001600160a01b03165af13d15611074573d61101d81611734565b9061102b6040519283611712565b8152600060203d92013e5b1561103d57005b60405162461bcd60e51b815260206004820152600f60248201526e151c985b9cd9995c8819985a5b1959608a1b6044820152606490fd5b611036565b346104565760003660031901126104565760206040516103e88152f35b3461045657600036600319011261045657604051604081019080821067ffffffffffffffff831117610ec0576110ef9160405260058152640352e302e360dc1b60208201526040519182916020835260208301906117a5565b0390f35b34610456576000366003190112610456576000546040516001600160a01b039091168152602090f35b346104565760003660031901126104565761113561192d565b61113d611959565b6000805460ff60a01b1916600160a01b1790556040513381527f62e78cea01bee320cd4e420270b5ea74000d11b0c9f74754ebdbfc544b05a25890602090a1005b34610456576060366003190112610456576111976116e6565b602435907ff0c57e16840df040f15088dc2f81fe391c3923bec73e23a9662efc9c229c6a0091825460ff8160401c16159267ffffffffffffffff821680159081611301575b60011490816112f7575b1590816112ee575b506112dc5767ffffffffffffffff198216600117855561121f91846112bd575b5061121761197a565b61072f61197a565b61122761197a565b6001600080516020611a908339815191525561124161197a565b61124961197a565b6000805460ff60a01b191690556103e881116112ab5760015560443560025561126e57005b68ff00000000000000001981541690557fc7f505b2f371ae2175ee4913f4499e1f2633a7b5936321eed1cdaeb6115181d2602060405160018152a1005b60405163cd4e616760e01b8152600490fd5b68ffffffffffffffffff1916680100000000000000011785558561120e565b60405163f92ee8a960e01b8152600490fd5b905015866111ee565b303b1591506111e6565b8591506111dc565b34610456576020366003190112610456577f369aaa64746f21909173e6b1331c9929562f5d22457e9dead997fec9dfa0b903604060043561134861192d565b600254908060025582519182526020820152a1005b346104565760203660031901126104565760043561137961192d565b6103e881116112ab5760407f528d9479e9f9889a87a3c30c7f7ba537e5e59c4c85a37733b16e57c62df6130291600154908060015582519182526020820152a1005b3461045657600036600319011261045657602060ff60005460a01c166040519015158152f35b34610456576000366003190112610456577f00000000000000000000000000000000000000000000000000000000000000006001600160a01b0316300361144c5760206040517f360894a13ba1a3210667c828492db98dca3e2076cc3735a920a3ca505d382bbc8152f35b60405163703e46dd60e11b8152600490fd5b6040366003190112610456576114726116e6565b60243567ffffffffffffffff811161045657611492903690600401611787565b6001600160a01b037f0000000000000000000000000000000000000000000000000000000000000000811630811490811561160d575b5061144c576114d561192d565b8216916040516352d1902d60e01b8152602081600481875afa600091816115d9575b5061151557604051634c9c8ce360e01b815260048101859052602490fd5b7f360894a13ba1a3210667c828492db98dca3e2076cc3735a920a3ca505d382bbc908181036115c15750813b156115a85780546001600160a01b03191684179055604051927fbc7cd75a20ee27fd9adebab32041f755214dbc6bffa90cc0225b39da2e5c2d3b600080a28151156115905761073492506119bb565b50503461159957005b63b398979f60e01b8152600490fd5b604051634c9c8ce360e01b815260048101859052602490fd5b60249060405190632a87526960e21b82526004820152fd5b9091506020813d602011611605575b816115f560209383611712565b81010312610456575190856114f7565b3d91506115e8565b9050817f360894a13ba1a3210667c828492db98dca3e2076cc3735a920a3ca505d382bbc54161415846114c8565b346104565760003660031901126104565761165461192d565b60005460ff8160a01c161561169b5760ff60a01b19166000556040513381527f5db9ee0a495bf2e6ff9c91a7834c1ba4fdd244a5e8aa4e537bd38aeae4b073aa90602090a1005b604051638dfc202b60e01b8152600490fd5b34610456576000366003190112610456576020600254604051908152f35b34610456576000366003190112610456576020906001548152f35b600435906001600160a01b038216820361045657565b602435906001600160a01b038216820361045657565b90601f8019910116810190811067ffffffffffffffff821117610ec057604052565b67ffffffffffffffff8111610ec057601f01601f191660200190565b92919261175c82611734565b9161176a6040519384611712565b829481845281830111610456578281602093846000960137010152565b9080601f83011215610456578160206117a293359101611750565b90565b919082519283825260005b8481106117d1575050826000602080949584010152601f8019910116010190565b6020818301810151848301820152016117b0565b9181601f840112156104565782359167ffffffffffffffff8311610456576020838186019501011161045657565b90600182811c92168015611843575b602083101461182d57565b634e487b7160e01b600052602260045260246000fd5b91607f1691611822565b9081602091031261045657516001600160a01b03811681036104565790565b600160ff1b811461187d5760000390565b634e487b7160e01b600052601160045260246000fd5b8181029291811591840414171561187d57565b5190811515820361045657565b6001600160a01b0390811690811561190757600054826bffffffffffffffffffffffff60a01b821617600055167f8be0079c531659141344cd1fd0a4f28419497f9722a3daafe3b4186f6b6457e0600080a3565b604051631e4fbdf760e01b815260006004820152602490fd5b9190820391821161187d57565b6000546001600160a01b0316330361194157565b60405163118cdaa760e01b8152336004820152602490fd5b60ff60005460a01c1661196857565b60405163d93c066560e01b8152600490fd5b60ff7ff0c57e16840df040f15088dc2f81fe391c3923bec73e23a9662efc9c229c6a005460401c16156119a957565b604051631afcd79f60e31b8152600490fd5b9060008091602081519101845af48080611a3c575b156119f15750506040513d81523d6000602083013e60203d82010160405290565b15611a1857604051639996b31560e01b81526001600160a01b039091166004820152602490fd5b3d15611a2a576040513d6000823e3d90fd5b60405163d6bda27560e01b8152600490fd5b503d1515806119d05750813b15156119d056fec65a7bb8d6351c1cf70c95a316cc6a92839c986682d98bc35f958f4883f9d2a816b7d373c2893ea51f29d08638ec2be5ec165800baf41ceaab6e75b7842ed8af9b779b17422d0df92223018b32b4d1fa46e071723d6817e2486d003becc55f00a2646970667358221220d30bd43c5b189d5d96d14cc703960295780a3034338ba882981c50a6f6c68c6d64736f6c63430008160033","linkReferences":{}},"methodIdentifiers":{"MAX_FEE_BPS()":"d55be8c6","UPGRADE_INTERFACE_VERSION()":"ad3cb1cc","activeFlashloans(bytes32)":"f3288bd0","currentOperation()":"f05396ac","emergencyWithdraw()":"db2e21bc","executeFlashSwap(address,address,address,uint256,address,bytes)":"ec0deb9d","feeBps()":"24a9d853","initialize(address,uint256,uint256)":"7a1ac61e","minProfitBps()":"383aeeae","owner()":"8da5cb5b","pause()":"8456cb59","paused()":"5c975abb","proxiableUUID()":"52d1902d","setFee(uint256)":"69fe0e2d","setMinProfit(uint256)":"78400f17","transferOwnership(address)":"f2fde38b","uniswapV3SwapCallback(int256,int256,bytes)":"fa461e33","unpause()":"3f4ba83a","upgradeToAndCall(address,bytes)":"4f1ef286","withdrawFees(address,address)":"f2555278"},"id":37}