{"abi":[{"type":"function","name":"MAX_FEE_BPS","inputs":[],"outputs":[{"name":"","type":"uint256","internalType":"uint256"}],"stateMutability":"view"},{"type":"function","name":"UPGRADE_INTERFACE_VERSION","inputs":[],"outputs":[{"name":"","type":"string","internalType":"string"}],"stateMutability":"view"},{"type":"function","name":"activeFlashloans","inputs":[{"name":"","type":"bytes32","internalType":"bytes32"}],"outputs":[{"name":"","type":"bool","internalType":"bool"}],"stateMutability":"view"},{"type":"function","name":"currentOperation","inputs":[],"outputs":[{"name":"user","type":"address","internalType":"address"},{"name":"token","type":"address","internalType":"address"},{"name":"amount","type":"uint256","internalType":"uint256"},{"name":"workflow","type":"address","internalType":"address"},{"name":"workflowData","type":"bytes","internalType":"bytes"},{"name":"executed","type":"bool","internalType":"bool"}],"stateMutability":"view"},{"type":"function","name":"emergencyWithdraw","inputs":[],"outputs":[],"stateMutability":"nonpayable"},{"type":"function","name":"executeFlashloan","inputs":[{"name":"token","type":"address","internalType":"address"},{"name":"amount","type":"uint256","internalType":"uint256"},{"name":"workflow","type":"address","internalType":"address"},{"name":"workflowData","type":"bytes","internalType":"bytes"}],"outputs":[],"stateMutability":"nonpayable"},{"type":"function","name":"executeOperation","inputs":[{"name":"assets","type":"address[]","internalType":"address[]"},{"name":"amounts","type":"uint256[]","internalType":"uint256[]"},{"name":"premiums","type":"uint256[]","internalType":"uint256[]"},{"name":"","type":"address","internalType":"address"},{"name":"params","type":"bytes","internalType":"bytes"}],"outputs":[{"name":"","type":"bool","internalType":"bool"}],"stateMutability":"nonpayable"},{"type":"function","name":"feeBps","inputs":[],"outputs":[{"name":"","type":"uint256","internalType":"uint256"}],"stateMutability":"view"},{"type":"function","name":"initialize","inputs":[{"name":"_owner","type":"address","internalType":"address"},{"name":"_pool","type":"address","internalType":"address"},{"name":"_feeBps","type":"uint256","internalType":"uint256"},{"name":"_minProfitBps","type":"uint256","internalType":"uint256"}],"outputs":[],"stateMutability":"nonpayable"},{"type":"function","name":"minProfitBps","inputs":[],"outputs":[{"name":"","type":"uint256","internalType":"uint256"}],"stateMutability":"view"},{"type":"function","name":"owner","inputs":[],"outputs":[{"name":"","type":"address","internalType":"address"}],"stateMutability":"view"},{"type":"function","name":"pause","inputs":[],"outputs":[],"stateMutability":"nonpayable"},{"type":"function","name":"paused","inputs":[],"outputs":[{"name":"","type":"bool","internalType":"bool"}],"stateMutability":"view"},{"type":"function","name":"pool","inputs":[],"outputs":[{"name":"","type":"address","internalType":"contract IPool"}],"stateMutability":"view"},{"type":"function","name":"proxiableUUID","inputs":[],"outputs":[{"name":"","type":"bytes32","internalType":"bytes32"}],"stateMutability":"view"},{"type":"function","name":"setFee","inputs":[{"name":"_feeBps","type":"uint256","internalType":"uint256"}],"outputs":[],"stateMutability":"nonpayable"},{"type":"function","name":"setMinProfit","inputs":[{"name":"_minProfitBps","type":"uint256","internalType":"uint256"}],"outputs":[],"stateMutability":"nonpayable"},{"type":"function","name":"setPool","inputs":[{"name":"_pool","type":"address","internalType":"address"}],"outputs":[],"stateMutability":"nonpayable"},{"type":"function","name":"transferOwnership","inputs":[{"name":"newOwner","type":"address","internalType":"address"}],"outputs":[],"stateMutability":"nonpayable"},{"type":"function","name":"unpause","inputs":[],"outputs":[],"stateMutability":"nonpayable"},{"type":"function","name":"upgradeToAndCall","inputs":[{"name":"newImplementation","type":"address","internalType":"address"},{"name":"data","type":"bytes","internalType":"bytes"}],"outputs":[],"stateMutability":"payable"},{"type":"function","name":"withdrawFees","inputs":[{"name":"token","type":"address","internalType":"address"},{"name":"to","type":"address","internalType":"address"}],"outputs":[],"stateMutability":"nonpayable"},{"type":"event","name":"FeeUpdated","inputs":[{"name":"oldFee","type":"uint256","indexed":false,"internalType":"uint256"},{"name":"newFee","type":"uint256","indexed":false,"internalType":"uint256"}],"anonymous":false},{"type":"event","name":"FlashloanExecuted","inputs":[{"name":"user","type":"address","indexed":true,"internalType":"address"},{"name":"token","type":"address","indexed":true,"internalType":"address"},{"name":"amount","type":"uint256","indexed":false,"internalType":"uint256"},{"name":"success","type":"bool","indexed":false,"internalType":"bool"},{"name":"profit","type":"uint256","indexed":false,"internalType":"uint256"},{"name":"fee","type":"uint256","indexed":false,"internalType":"uint256"}],"anonymous":false},{"type":"event","name":"Initialized","inputs":[{"name":"version","type":"uint64","indexed":false,"internalType":"uint64"}],"anonymous":false},{"type":"event","name":"MinProfitUpdated","inputs":[{"name":"oldMinProfit","type":"uint256","indexed":false,"internalType":"uint256"},{"name":"newMinProfit","type":"uint256","indexed":false,"internalType":"uint256"}],"anonymous":false},{"type":"event","name":"OwnershipTransferred","inputs":[{"name":"previousOwner","type":"address","indexed":true,"internalType":"address"},{"name":"newOwner","type":"address","indexed":true,"internalType":"address"}],"anonymous":false},{"type":"event","name":"Paused","inputs":[{"name":"account","type":"address","indexed":false,"internalType":"address"}],"anonymous":false},{"type":"event","name":"Unpaused","inputs":[{"name":"account","type":"address","indexed":false,"internalType":"address"}],"anonymous":false},{"type":"event","name":"Upgraded","inputs":[{"name":"implementation","type":"address","indexed":true,"internalType":"address"}],"anonymous":false},{"type":"event","name":"WorkflowExecuted","inputs":[{"name":"workflow","type":"address","indexed":true,"internalType":"address"},{"name":"token","type":"address","indexed":true,"internalType":"address"},{"name":"amount","type":"uint256","indexed":false,"internalType":"uint256"},{"name":"success","type":"bool","indexed":false,"internalType":"bool"}],"anonymous":false},{"type":"error","name":"AddressEmptyCode","inputs":[{"name":"target","type":"address","internalType":"address"}]},{"type":"error","name":"ERC1967InvalidImplementation","inputs":[{"name":"implementation","type":"address","internalType":"address"}]},{"type":"error","name":"ERC1967NonPayable","inputs":[]},{"type":"error","name":"EnforcedPause","inputs":[]},{"type":"error","name":"ExpectedPause","inputs":[]},{"type":"error","name":"FailedCall","inputs":[]},{"type":"error","name":"FeeTooHigh","inputs":[]},{"type":"error","name":"FlashloanFailed","inputs":[]},{"type":"error","name":"InsufficientProfit","inputs":[]},{"type":"error","name":"InvalidAmount","inputs":[]},{"type":"error","name":"InvalidFee","inputs":[]},{"type":"error","name":"InvalidInitialization","inputs":[]},{"type":"error","name":"InvalidToken","inputs":[]},{"type":"error","name":"InvalidWorkflow","inputs":[]},{"type":"error","name":"NotInitializing","inputs":[]},{"type":"error","name":"OnlyPool","inputs":[]},{"type":"error","name":"OperationAlreadyExecuted","inputs":[]},{"type":"error","name":"OperationNotInitialized","inputs":[]},{"type":"error","name":"OwnableInvalidOwner","inputs":[{"name":"owner","type":"address","internalType":"address"}]},{"type":"error","name":"OwnableUnauthorizedAccount","inputs":[{"name":"account","type":"address","internalType":"address"}]},{"type":"error","name":"ReentrancyGuardReentrantCall","inputs":[]},{"type":"error","name":"RepaymentFailed","inputs":[]},{"type":"error","name":"UUPSUnauthorizedCallContext","inputs":[]},{"type":"error","name":"UUPSUnsupportedProxiableUUID","inputs":[{"name":"slot","type":"bytes32","internalType":"bytes32"}]},{"type":"error","name":"WorkflowExecutionFailed","inputs":[]}],"bytecode":{"object":"0x60a0806040523461002a573060805261230a908161003082396080518181816118dd01526119a40152f35b600080fdfe608080604052600436101561001357600080fd5b600090813560e01c90816316f0115b14611d1b5750806324a9d85314611cfd578063383aeeae14611cdf5780633f4ba83a14611c3d5780634437152a14611bd95780634f1ef2861461195757806352d1902d146118b55780635c26993c146110615780635c975abb1461103c57806369fe0e2d14610fdc57806378400f1714610f865780638456cb5914610efb5780638da5cb5b14610ec8578063920f5c8414610802578063ad3cb1cc146107a0578063d55be8c614610783578063db2e21bc146106b7578063eb990c5914610440578063f05396ac146102ea578063f255527814610171578063f2fde38b146101445763f3288bd01461011357600080fd5b346101415760206003193601126101415760ff60406020926004358152600384522054166040519015158152f35b80fd5b50346101415760206003193601126101415761016e610161611d4d565b610169612120565b61207d565b80f35b50346101415760406003193601126101415761018b611d4d565b73ffffffffffffffffffffffffffffffffffffffff6101a8611d70565b916101b1612120565b1690604051907f70a082310000000000000000000000000000000000000000000000000000000082523060048301526020918281602481875afa9081156102df5785916102ae575b5080610203578480f35b6040517fa9059cbb00000000000000000000000000000000000000000000000000000000815273ffffffffffffffffffffffffffffffffffffffff92909216600483015260248201529181908390604490829087905af180156102a35761026b575b80808480f35b81813d831161029c575b61027f8183611dde565b810103126102985761029090612070565b503880610265565b5080fd5b503d610275565b6040513d85823e3d90fd5b90508281813d83116102d8575b6102c58183611dde565b810103126102d45751386101f9565b8480fd5b503d6102bb565b6040513d87823e3d90fd5b503461014157806003193601126101415773ffffffffffffffffffffffffffffffffffffffff8060055416816006541660075492600854166040519085946009549661033588611f6b565b9081855260209889916001916001811690816000146103ff57506001146103a5575b5050505061036c836103999596970384611dde565b60ff600a54169460405197889788528701526040860152606085015260c0608085015260c0840190611f0d565b90151560a08301520390f35b92919850600983527f6e1540171b6c0c960b71a7020d9f60077f6af931a8bbf590da0223dacf75c7af5b8284106103ec5750505083019095019461036c8761039985610357565b80548785018b01529289019281016103cf565b7fffffffffffffffffffffffffffffffffffffffffffffffffffffffffffffff00168489015250505090151560051b840101955061036c8761039985610357565b50346101415760806003193601126101415761045a611d4d565b610462611d70565b906044357ff0c57e16840df040f15088dc2f81fe391c3923bec73e23a9662efc9c229c6a0092835460ff8160401c16159367ffffffffffffffff8216801590816106af575b60011490816106a5575b15908161069c575b5061067257818560017fffffffffffffffffffffffffffffffffffffffffffffffff0000000000000000610501951617885561063d575b506104f96121aa565b6101696121aa565b6105096121aa565b60017f9b779b17422d0df92223018b32b4d1fa46e071723d6817e2486d003becc55f00556105356121aa565b61053d6121aa565b7fffffffffffffffffffffff00ffffffffffffffffffffffffffffffffffffffff600054166000556103e882116106135773ffffffffffffffffffffffffffffffffffffffff91600155606435600255167fffffffffffffffffffffffff000000000000000000000000000000000000000060045416176004556105bf575080f35b7fffffffffffffffffffffffffffffffffffffffffffffff00ffffffffffffffff81541690557fc7f505b2f371ae2175ee4913f4499e1f2633a7b5936321eed1cdaeb6115181d2602060405160018152a180f35b60046040517fcd4e6167000000000000000000000000000000000000000000000000000000008152fd5b7fffffffffffffffffffffffffffffffffffffffffffffff0000000000000000001668010000000000000001178655386104f0565b60046040517ff92ee8a9000000000000000000000000000000000000000000000000000000008152fd5b905015386104b9565b303b1591506104b1565b8691506104a7565b50346101415780600319360112610141576106d0612120565b8080808073ffffffffffffffffffffffffffffffffffffffff81541647905af13d1561077e573d61070081611e1f565b9061070e6040519283611dde565b81528260203d92013e5b156107205780f35b60646040517f08c379a000000000000000000000000000000000000000000000000000000000815260206004820152600f60248201527f5472616e73666572206661696c656400000000000000000000000000000000006044820152fd5b610718565b503461014157806003193601126101415760206040516103e88152f35b50346101415780600319360112610141576107fe6040516107c081611d93565b600581527f352e302e300000000000000000000000000000000000000000000000000000006020820152604051918291602083526020830190611f0d565b0390f35b50346101415760a06003193601126101415767ffffffffffffffff9060043582811161029857610836903690600401611edc565b92909160248035838111610dbd57610852903690600401611edc565b9390956044358281116102d45761086d903690600401611edc565b9490976064359273ffffffffffffffffffffffffffffffffffffffff9384811603610ec357608435858111610db9576108aa903690600401611eae565b92909985600454163303610e9957856005541615610e6f57600a549260ff8416610e455715610e19573598858a16809a036102d45715610ded57359615610dc1577fffffffffffffffffffffffffffffffffffffffffffffffffffffffffffffff0016600117600a55870160408882031261029857873593838516809503610dbd5760209889810135918211610db957610945929101611e90565b978315610d8f576040610997998151809b81927f4bf3e1dd0000000000000000000000000000000000000000000000000000000083528b60048401528a8a840152606060448401526064830190611f0d565b038185885af1938415610c525782908395610d45575b899a50978099987f5dee3edaeb80cf46cfae409cbfc46656849e646c6133b76a81faaddb19bd021560408051948b865215948515809d820152a3610d1b57358501808611610cef576127109384610a066001548361202e565b049586821115610ce657868203918211610cbb5750935b610a296002548861202e565b048410610c915788610a9191846004541660405193849283927f095ea7b3000000000000000000000000000000000000000000000000000000008452600484016020909392919373ffffffffffffffffffffffffffffffffffffffff60408201951681520152565b0381858c5af18015610c5257610c5d575b5082610bb6575b83610afa575b50917f16b7d373c2893ea51f29d08638ec2be5ec165800baf41ceaab6e75b7842ed8af939160809360055416956040519384528884015260408301526060820152a360405160018152f35b6040517fa9059cbb00000000000000000000000000000000000000000000000000000000815230600482015260248101859052908882604481848c5af18015610ba957610b48575b50610aaf565b8882813d8311610ba2575b610b5d8183611dde565b8101031261014157509160809391610b967f16b7d373c2893ea51f29d08638ec2be5ec165800baf41ceaab6e75b7842ed8af9694612070565b50919381939550610b42565b503d610b53565b50604051903d90823e3d90fd5b6005546040517fa9059cbb00000000000000000000000000000000000000000000000000000000815290831673ffffffffffffffffffffffffffffffffffffffff166004820152602481018490528881604481858c5af18015610c5257610c1e575b50610aa9565b8881813d8311610c4b575b610c338183611dde565b8101031261029857610c4490612070565b5038610c18565b503d610c29565b6040513d84823e3d90fd5b8881813d8311610c8a575b610c728183611dde565b8101031261029857610c8390612070565b5038610aa2565b503d610c68565b60046040517f4e47f8ea000000000000000000000000000000000000000000000000000000008152fd5b837f4e487b710000000000000000000000000000000000000000000000000000000081526011600452fd5b50508193610a1d565b84827f4e487b710000000000000000000000000000000000000000000000000000000081526011600452fd5b60046040517f5c3cf956000000000000000000000000000000000000000000000000000000008152fd5b9450506040893d604011610d87575b81610d6160409383611dde565b8101031261029857888789610d79819c9b9a9b612070565b9201519590509897986109ad565b3d9150610d54565b60046040517f4ef96acd000000000000000000000000000000000000000000000000000000008152fd5b8380fd5b8280fd5b85837f4e487b710000000000000000000000000000000000000000000000000000000081526032600452fd5b86847f4e487b710000000000000000000000000000000000000000000000000000000081526032600452fd5b87857f4e487b710000000000000000000000000000000000000000000000000000000081526032600452fd5b60046040517fb84231a4000000000000000000000000000000000000000000000000000000008152fd5b60046040517f4ea38043000000000000000000000000000000000000000000000000000000008152fd5b60046040517f4b602735000000000000000000000000000000000000000000000000000000008152fd5b600080fd5b503461014157806003193601126101415773ffffffffffffffffffffffffffffffffffffffff6020915416604051908152f35b5034610141578060031936011261014157610f14612120565b610f1c612171565b740100000000000000000000000000000000000000007fffffffffffffffffffffff00ffffffffffffffffffffffffffffffffffffffff8254161781557f62e78cea01bee320cd4e420270b5ea74000d11b0c9f74754ebdbfc544b05a2586020604051338152a180f35b5034610141576020600319360112610141577f369aaa64746f21909173e6b1331c9929562f5d22457e9dead997fec9dfa0b9036040600435610fc6612120565b600254908060025582519182526020820152a180f35b503461014157602060031936011261014157600435610ff9612120565b6103e881116106135760407f528d9479e9f9889a87a3c30c7f7ba537e5e59c4c85a37733b16e57c62df6130291600154908060015582519182526020820152a180f35b503461014157806003193601126101415760ff6020915460a01c166040519015158152f35b50346101415760806003193601126101415761107b611d4d565b6044359073ffffffffffffffffffffffffffffffffffffffff82168203610dbd5760643567ffffffffffffffff8111610db9576110bc903690600401611eae565b9260027f9b779b17422d0df92223018b32b4d1fa46e071723d6817e2486d003becc55f00541461188b5760027f9b779b17422d0df92223018b32b4d1fa46e071723d6817e2486d003becc55f0055611112612171565b73ffffffffffffffffffffffffffffffffffffffff83161561186157602435156118375760405160c0810181811067ffffffffffffffff82111761180a5760405233815273ffffffffffffffffffffffffffffffffffffffff84166020820152602435604082015273ffffffffffffffffffffffffffffffffffffffff821660608201526111a1368685611e59565b8060808301528660a083015273ffffffffffffffffffffffffffffffffffffffff8251167fffffffffffffffffffffffff0000000000000000000000000000000000000000600554161760055573ffffffffffffffffffffffffffffffffffffffff6020830151167fffffffffffffffffffffffff00000000000000000000000000000000000000006006541617600655604082015160075573ffffffffffffffffffffffffffffffffffffffff6060830151167fffffffffffffffffffffffff0000000000000000000000000000000000000000600854161760085580519067ffffffffffffffff82116117dd5761129b600954611f6b565b601f8111611740575b50602090601f831160011461164157611406938360809473ffffffffffffffffffffffffffffffffffffffff98979460a0948d92611636575b50507fffffffffffffffffffffffffffffffffffffffffffffffffffffffffffffffff8260011b9260031b1c1916176009555b0151151560ff7fffffffffffffffffffffffffffffffffffffffffffffffffffffffffffffff00600a5416911617600a55846040519661134f88611d93565b60018852602036818a01371661136487611fbe565b527fffffffffffffffffffffffffffffffffffffffffffffffffffffffffffffffe0601f604051986113958a611d93565b60018a52602036818c01376024356113ac8b611fbe565b5280604051976113bb89611d93565b60018952602036818b01378c6113d08a611fbe565b52604051998a96166020870152604080870152816060870152868601378a85828601015201168101036060810185520183611dde565b73ffffffffffffffffffffffffffffffffffffffff6004541692833b156116325793918593916040519586947fab9c4b5d00000000000000000000000000000000000000000000000000000000865260e4860130600488015260e06024880152825180915260206101048801930190885b8181106116005750505085936114b488946114a2856114cc956003198a809903016044890152611ffa565b90600319868303016064870152611ffa565b903060848501526003198483030160a4850152611f0d565b8260c483015203925af18015610c52576115bb575b50806005558060065580600755806008556114fd600954611f6b565b8061152f575b5080600a5560017f9b779b17422d0df92223018b32b4d1fa46e071723d6817e2486d003becc55f005580f35b601f8111600114611547575060006009555b38611503565b9060098152601f7f6e1540171b6c0c960b71a7020d9f60077f6af931a8bbf590da0223dacf75c7af920160051c8201917f6e1540171b6c0c960b71a7020d9f60077f6af931a8bbf590da0223dacf75c7b05b8381106115af5750819250600060095555611541565b60008155600101611599565b67ffffffffffffffff81116115d357604052386114e1565b6024827f4e487b710000000000000000000000000000000000000000000000000000000081526041600452fd5b825173ffffffffffffffffffffffffffffffffffffffff1685528b99508a985060209485019490920191600101611477565b8580fd5b0151905038806112dd565b90600989527f6e1540171b6c0c960b71a7020d9f60077f6af931a8bbf590da0223dacf75c7af91895b7fffffffffffffffffffffffffffffffffffffffffffffffffffffffffffffffe08516811061172857509360018473ffffffffffffffffffffffffffffffffffffffff98979460a09461140698837fffffffffffffffffffffffffffffffffffffffffffffffffffffffffffffffe060809a16106116f1575b505050811b01600955611310565b01517fffffffffffffffffffffffffffffffffffffffffffffffffffffffffffffffff60f88460031b161c191690553880806116e3565b9192602060018192868501518155019401920161166a565b60098952601f830160051c7f6e1540171b6c0c960b71a7020d9f60077f6af931a8bbf590da0223dacf75c7af01602084106117b6575b601f820160051c7f6e1540171b6c0c960b71a7020d9f60077f6af931a8bbf590da0223dacf75c7af0181106117ab57506112a4565b898155600101611776565b507f6e1540171b6c0c960b71a7020d9f60077f6af931a8bbf590da0223dacf75c7af611776565b6024887f4e487b710000000000000000000000000000000000000000000000000000000081526041600452fd5b6024877f4e487b710000000000000000000000000000000000000000000000000000000081526041600452fd5b60046040517f2c5211c6000000000000000000000000000000000000000000000000000000008152fd5b60046040517fc1ab6dc1000000000000000000000000000000000000000000000000000000008152fd5b60046040517f3ee5aeb5000000000000000000000000000000000000000000000000000000008152fd5b503461014157806003193601126101415773ffffffffffffffffffffffffffffffffffffffff7f000000000000000000000000000000000000000000000000000000000000000016300361192d5760206040517f360894a13ba1a3210667c828492db98dca3e2076cc3735a920a3ca505d382bbc8152f35b60046040517fe07c8dba000000000000000000000000000000000000000000000000000000008152fd5b5060406003193601126101415761196c611d4d565b60243567ffffffffffffffff8111610dbd5761198c903690600401611e90565b73ffffffffffffffffffffffffffffffffffffffff807f000000000000000000000000000000000000000000000000000000000000000016803014908115611bab575b5061192d576119dc612120565b8216916040517f52d1902d000000000000000000000000000000000000000000000000000000008152602081600481875afa859181611b77575b50611a4c57602484604051907f4c9c8ce30000000000000000000000000000000000000000000000000000000082526004820152fd5b7f360894a13ba1a3210667c828492db98dca3e2076cc3735a920a3ca505d382bbc90818103611b465750813b15611b1557837fffffffffffffffffffffffff0000000000000000000000000000000000000000825416179055604051927fbc7cd75a20ee27fd9adebab32041f755214dbc6bffa90cc0225b39da2e5c2d3b8580a2815115611ae257611ade9250612203565b5080f35b505034611aed575080f35b807fb398979f0000000000000000000000000000000000000000000000000000000060049252fd5b602484604051907f4c9c8ce30000000000000000000000000000000000000000000000000000000082526004820152fd5b602490604051907faa1d49a40000000000000000000000000000000000000000000000000000000082526004820152fd5b9091506020813d602011611ba3575b81611b9360209383611dde565b8101031261163257519038611a16565b3d9150611b86565b9050817f360894a13ba1a3210667c828492db98dca3e2076cc3735a920a3ca505d382bbc54161415386119cf565b50346101415760206003193601126101415773ffffffffffffffffffffffffffffffffffffffff611c08611d4d565b611c10612120565b167fffffffffffffffffffffffff0000000000000000000000000000000000000000600454161760045580f35b5034610141578060031936011261014157611c56612120565b805460ff8160a01c1615611cb5577fffffffffffffffffffffff00ffffffffffffffffffffffffffffffffffffffff1681557f5db9ee0a495bf2e6ff9c91a7834c1ba4fdd244a5e8aa4e537bd38aeae4b073aa6020604051338152a180f35b60046040517f8dfc202b000000000000000000000000000000000000000000000000000000008152fd5b50346101415780600319360112610141576020600254604051908152f35b50346101415780600319360112610141576020600154604051908152f35b90503461029857816003193601126102985760209073ffffffffffffffffffffffffffffffffffffffff600454168152f35b6004359073ffffffffffffffffffffffffffffffffffffffff82168203610ec357565b6024359073ffffffffffffffffffffffffffffffffffffffff82168203610ec357565b6040810190811067ffffffffffffffff821117611daf57604052565b7f4e487b7100000000000000000000000000000000000000000000000000000000600052604160045260246000fd5b90601f7fffffffffffffffffffffffffffffffffffffffffffffffffffffffffffffffe0910116810190811067ffffffffffffffff821117611daf57604052565b67ffffffffffffffff8111611daf57601f017fffffffffffffffffffffffffffffffffffffffffffffffffffffffffffffffe01660200190565b929192611e6582611e1f565b91611e736040519384611dde565b829481845281830111610ec3578281602093846000960137010152565b9080601f83011215610ec357816020611eab93359101611e59565b90565b9181601f84011215610ec35782359167ffffffffffffffff8311610ec35760208381860195010111610ec357565b9181601f84011215610ec35782359167ffffffffffffffff8311610ec3576020808501948460051b010111610ec357565b919082519283825260005b848110611f575750507fffffffffffffffffffffffffffffffffffffffffffffffffffffffffffffffe0601f8460006020809697860101520116010190565b602081830181015184830182015201611f18565b90600182811c92168015611fb4575b6020831014611f8557565b7f4e487b7100000000000000000000000000000000000000000000000000000000600052602260045260246000fd5b91607f1691611f7a565b805115611fcb5760200190565b7f4e487b7100000000000000000000000000000000000000000000000000000000600052603260045260246000fd5b90815180825260208080930193019160005b82811061201a575050505090565b83518552938101939281019260010161200c565b8181029291811591840414171561204157565b7f4e487b7100000000000000000000000000000000000000000000000000000000600052601160045260246000fd5b51908115158203610ec357565b73ffffffffffffffffffffffffffffffffffffffff8091169081156120ef57600054827fffffffffffffffffffffffff0000000000000000000000000000000000000000821617600055167f8be0079c531659141344cd1fd0a4f28419497f9722a3daafe3b4186f6b6457e0600080a3565b60246040517f1e4fbdf700000000000000000000000000000000000000000000000000000000815260006004820152fd5b73ffffffffffffffffffffffffffffffffffffffff60005416330361214157565b60246040517f118cdaa7000000000000000000000000000000000000000000000000000000008152336004820152fd5b60ff60005460a01c1661218057565b60046040517fd93c0665000000000000000000000000000000000000000000000000000000008152fd5b60ff7ff0c57e16840df040f15088dc2f81fe391c3923bec73e23a9662efc9c229c6a005460401c16156121d957565b60046040517fd7e6bcf8000000000000000000000000000000000000000000000000000000008152fd5b9060008091602081519101845af480806122c1575b156122395750506040513d81523d6000602083013e60203d82010160405290565b156122855760249073ffffffffffffffffffffffffffffffffffffffff604051917f9996b315000000000000000000000000000000000000000000000000000000008352166004820152fd5b3d15612297576040513d6000823e3d90fd5b60046040517fd6bda275000000000000000000000000000000000000000000000000000000008152fd5b503d1515806122185750813b151561221856fea26469706673582212209e07bd98db94f599f9b85de869acff16645fc60cb43bdacf28545f9cb589200c64736f6c63430008160033","linkReferences":{}},"methodIdentifiers":{"MAX_FEE_BPS()":"d55be8c6","UPGRADE_INTERFACE_VERSION()":"ad3cb1cc","activeFlashloans(bytes32)":"f3288bd0","currentOperation()":"f05396ac","emergencyWithdraw()":"db2e21bc","executeFlashloan(address,uint256,address,bytes)":"5c26993c","executeOperation(address[],uint256[],uint256[],address,bytes)":"920f5c84","feeBps()":"24a9d853","initialize(address,address,uint256,uint256)":"eb990c59","minProfitBps()":"383aeeae","owner()":"8da5cb5b","pause()":"8456cb59","paused()":"5c975abb","pool()":"16f0115b","proxiableUUID()":"52d1902d","setFee(uint256)":"69fe0e2d","setMinProfit(uint256)":"78400f17","setPool(address)":"4437152a","transferOwnership(address)":"f2fde38b","unpause()":"3f4ba83a","upgradeToAndCall(address,bytes)":"4f1ef286","withdrawFees(address,address)":"f2555278"},"id":33}