{"abi":[{"type":"function","name":"MAX_FEE_BPS","inputs":[],"outputs":[{"name":"","type":"uint256","internalType":"uint256"}],"stateMutability":"view"},{"type":"function","name":"UPGRADE_INTERFACE_VERSION","inputs":[],"outputs":[{"name":"","type":"string","internalType":"string"}],"stateMutability":"view"},{"type":"function","name":"activeFlashloans","inputs":[{"name":"","type":"bytes32","internalType":"bytes32"}],"outputs":[{"name":"","type":"bool","internalType":"bool"}],"stateMutability":"view"},{"type":"function","name":"currentOperation","inputs":[],"outputs":[{"name":"user","type":"address","internalType":"address"},{"name":"token","type":"address","internalType":"address"},{"name":"amount","type":"uint256","internalType":"uint256"},{"name":"workflow","type":"address","internalType":"address"},{"name":"workflowData","type":"bytes","internalType":"bytes"},{"name":"executed","type":"bool","internalType":"bool"}],"stateMutability":"view"},{"type":"function","name":"emergencyWithdraw","inputs":[],"outputs":[],"stateMutability":"nonpayable"},{"type":"function","name":"executeFlashloan","inputs":[{"name":"token","type":"address","internalType":"address"},{"name":"amount","type":"uint256","internalType":"uint256"},{"name":"workflow","type":"address","internalType":"address"},{"name":"workflowData","type":"bytes","internalType":"bytes"}],"outputs":[],"stateMutability":"nonpayable"},{"type":"function","name":"executeOperation","inputs":[{"name":"assets","type":"address[]","internalType":"address[]"},{"name":"amounts","type":"uint256[]","internalType":"uint256[]"},{"name":"premiums","type":"uint256[]","internalType":"uint256[]"},{"name":"","type":"address","internalType":"address"},{"name":"params","type":"bytes","internalType":"bytes"}],"outputs":[{"name":"","type":"bool","internalType":"bool"}],"stateMutability":"nonpayable"},{"type":"function","name":"feeBps","inputs":[],"outputs":[{"name":"","type":"uint256","internalType":"uint256"}],"stateMutability":"view"},{"type":"function","name":"initialize","inputs":[{"name":"_owner","type":"address","internalType":"address"},{"name":"_pool","type":"address","internalType":"address"},{"name":"_feeBps","type":"uint256","internalType":"uint256"},{"name":"_minProfitBps","type":"uint256","internalType":"uint256"}],"outputs":[],"stateMutability":"nonpayable"},{"type":"function","name":"minProfitBps","inputs":[],"outputs":[{"name":"","type":"uint256","internalType":"uint256"}],"stateMutability":"view"},{"type":"function","name":"owner","inputs":[],"outputs":[{"name":"","type":"address","internalType":"address"}],"stateMutability":"view"},{"type":"function","name":"pause","inputs":[],"outputs":[],"stateMutability":"nonpayable"},{"type":"function","name":"paused","inputs":[],"outputs":[{"name":"","type":"bool","internalType":"bool"}],"stateMutability":"view"},{"type":"function","name":"pool","inputs":[],"outputs":[{"name":"","type":"address","internalType":"contract IPool"}],"stateMutability":"view"},{"type":"function","name":"proxiableUUID","inputs":[],"outputs":[{"name":"","type":"bytes32","internalType":"bytes32"}],"stateMutability":"view"},{"type":"function","name":"setFee","inputs":[{"name":"_feeBps","type":"uint256","internalType":"uint256"}],"outputs":[],"stateMutability":"nonpayable"},{"type":"function","name":"setMinProfit","inputs":[{"name":"_minProfitBps","type":"uint256","internalType":"uint256"}],"outputs":[],"stateMutability":"nonpayable"},{"type":"function","name":"setPool","inputs":[{"name":"_pool","type":"address","internalType":"address"}],"outputs":[],"stateMutability":"nonpayable"},{"type":"function","name":"transferOwnership","inputs":[{"name":"newOwner","type":"address","internalType":"address"}],"outputs":[],"stateMutability":"nonpayable"},{"type":"function","name":"unpause","inputs":[],"outputs":[],"stateMutability":"nonpayable"},{"type":"function","name":"upgradeToAndCall","inputs":[{"name":"newImplementation","type":"address","internalType":"address"},{"name":"data","type":"bytes","internalType":"bytes"}],"outputs":[],"stateMutability":"payable"},{"type":"function","name":"withdrawFees","inputs":[{"name":"token","type":"address","internalType":"address"},{"name":"to","type":"address","internalType":"address"}],"outputs":[],"stateMutability":"nonpayable"},{"type":"event","name":"FeeUpdated","inputs":[{"name":"oldFee","type":"uint256","indexed":false,"internalType":"uint256"},{"name":"newFee","type":"uint256","indexed":false,"internalType":"uint256"}],"anonymous":false},{"type":"event","name":"FlashloanExecuted","inputs":[{"name":"user","type":"address","indexed":true,"internalType":"address"},{"name":"token","type":"address","indexed":true,"internalType":"address"},{"name":"amount","type":"uint256","indexed":false,"internalType":"uint256"},{"name":"success","type":"bool","indexed":false,"internalType":"bool"},{"name":"profit","type":"uint256","indexed":false,"internalType":"uint256"},{"name":"fee","type":"uint256","indexed":false,"internalType":"uint256"}],"anonymous":false},{"type":"event","name":"Initialized","inputs":[{"name":"version","type":"uint64","indexed":false,"internalType":"uint64"}],"anonymous":false},{"type":"event","name":"MinProfitUpdated","inputs":[{"name":"oldMinProfit","type":"uint256","indexed":false,"internalType":"uint256"},{"name":"newMinProfit","type":"uint256","indexed":false,"internalType":"uint256"}],"anonymous":false},{"type":"event","name":"OwnershipTransferred","inputs":[{"name":"previousOwner","type":"address","indexed":true,"internalType":"address"},{"name":"newOwner","type":"address","indexed":true,"internalType":"address"}],"anonymous":false},{"type":"event","name":"Paused","inputs":[{"name":"account","type":"address","indexed":false,"internalType":"address"}],"anonymous":false},{"type":"event","name":"Unpaused","inputs":[{"name":"account","type":"address","indexed":false,"internalType":"address"}],"anonymous":false},{"type":"event","name":"Upgraded","inputs":[{"name":"implementation","type":"address","indexed":true,"internalType":"address"}],"anonymous":false},{"type":"event","name":"WorkflowExecuted","inputs":[{"name":"workflow","type":"address","indexed":true,"internalType":"address"},{"name":"token","type":"address","indexed":true,"internalType":"address"},{"name":"amount","type":"uint256","indexed":false,"internalType":"uint256"},{"name":"success","type":"bool","indexed":false,"internalType":"bool"}],"anonymous":false},{"type":"error","name":"AddressEmptyCode","inputs":[{"name":"target","type":"address","internalType":"address"}]},{"type":"error","name":"ERC1967InvalidImplementation","inputs":[{"name":"implementation","type":"address","internalType":"address"}]},{"type":"error","name":"ERC1967NonPayable","inputs":[]},{"type":"error","name":"EnforcedPause","inputs":[]},{"type":"error","name":"ExpectedPause","inputs":[]},{"type":"error","name":"FailedCall","inputs":[]},{"type":"error","name":"FeeTooHigh","inputs":[]},{"type":"error","name":"FlashloanFailed","inputs":[]},{"type":"error","name":"InsufficientProfit","inputs":[]},{"type":"error","name":"InvalidAmount","inputs":[]},{"type":"error","name":"InvalidFee","inputs":[]},{"type":"error","name":"InvalidInitialization","inputs":[]},{"type":"error","name":"InvalidToken","inputs":[]},{"type":"error","name":"InvalidWorkflow","inputs":[]},{"type":"error","name":"NotInitializing","inputs":[]},{"type":"error","name":"OnlyPool","inputs":[]},{"type":"error","name":"OperationAlreadyExecuted","inputs":[]},{"type":"error","name":"OperationNotInitialized","inputs":[]},{"type":"error","name":"OwnableInvalidOwner","inputs":[{"name":"owner","type":"address","internalType":"address"}]},{"type":"error","name":"OwnableUnauthorizedAccount","inputs":[{"name":"account","type":"address","internalType":"address"}]},{"type":"error","name":"ReentrancyGuardReentrantCall","inputs":[]},{"type":"error","name":"RepaymentFailed","inputs":[]},{"type":"error","name":"UUPSUnauthorizedCallContext","inputs":[]},{"type":"error","name":"UUPSUnsupportedProxiableUUID","inputs":[{"name":"slot","type":"bytes32","internalType":"bytes32"}]},{"type":"error","name":"WorkflowExecutionFailed","inputs":[]}],"bytecode":{"object":"0x60a0806040523461002a5730608052611a1b90816100308239608051818181611266015261130f0152f35b600080fdfe608080604052600436101561001357600080fd5b600090813560e01c90816316f0115b1461159f5750806324a9d85314611581578063383aeeae146115635780633f4ba83a146114f25780634437152a146114b25780634f1ef286146112d057806352d1902d146112535780635c26993c14610cd35780635c975abb14610cae57806369fe0e2d14610c4e57806378400f1714610bf85780638456cb5914610b975780638da5cb5b14610b70578063920f5c8414610669578063ad3cb1cc1461061f578063d55be8c614610602578063db2e21bc1461056b578063eb990c59146103b8578063f05396ac146102a0578063f255527814610171578063f2fde38b146101445763f3288bd01461011357600080fd5b346101415760203660031901126101415760ff60406020926004358152600384522054166040519015158152f35b80fd5b50346101415760203660031901126101415761016e6101616115c4565b610169611883565b61181b565b80f35b50346101415760403660031901126101415761018b6115c4565b6101936115da565b9061019c611883565b6040516370a0823160e01b81523060048201526001600160a01b0391909116916020918281602481875afa908115610295578591610264575b50806101df578480f35b60405163a9059cbb60e01b81526001600160a01b0392909216600483015260248201529181908390604490829087905af1801561025957610221575b80808480f35b81813d8311610252575b6102358183611622565b8101031261024e576102469061180e565b50388061021b565b5080fd5b503d61022b565b6040513d85823e3d90fd5b90508281813d831161028e575b61027b8183611622565b8101031261028a5751386101d5565b8480fd5b503d610271565b6040513d87823e3d90fd5b503461014157806003193601126101415760018060a01b03806005541681600654166007549260085416604051908594600954966102dd88611754565b908185526020988991600191600181169081600014610395575060011461034d575b50505050610314836103419596970384611622565b60ff600a54169460405197889788528701526040860152606085015260c0608085015260c0840190611714565b90151560a08301520390f35b92919850600983526000805160206119a68339815191525b8284106103825750505083019095019461031487610341856102ff565b80548785018b0152928901928101610365565b60ff19168489015250505090151560051b840101955061031487610341856102ff565b5034610141576080366003190112610141576103d26115c4565b6103da6115da565b90604435917ff0c57e16840df040f15088dc2f81fe391c3923bec73e23a9662efc9c229c6a0092835460ff8160401c16159367ffffffffffffffff821680159081610563575b6001149081610559575b159081610550575b5061053e5767ffffffffffffffff1982166001178655610463918561051f575b5061045b6118d0565b6101696118d0565b61046b6118d0565b60016000805160206119c6833981519152556104856118d0565b61048d6118d0565b6000805460ff60a01b191690556103e8811161050d5760015560643560025560018060a01b03166001600160601b0360a01b60045416176004556104cf575080f35b68ff00000000000000001981541690557fc7f505b2f371ae2175ee4913f4499e1f2633a7b5936321eed1cdaeb6115181d2602060405160018152a180f35b60405163cd4e616760e01b8152600490fd5b68ffffffffffffffffff19166801000000000000000117865538610452565b60405163f92ee8a960e01b8152600490fd5b90501538610432565b303b15915061042a565b869150610420565b5034610141578060031936011261014157610584611883565b8080808060018060a01b0381541647905af13d156105fd573d6105a681611644565b906105b46040519283611622565b81528260203d92013e5b156105c65780f35b60405162461bcd60e51b815260206004820152600f60248201526e151c985b9cd9995c8819985a5b1959608a1b6044820152606490fd5b6105be565b503461014157806003193601126101415760206040516103e88152f35b503461014157806003193601126101415761066560405161063f816115f0565b60058152640352e302e360dc1b6020820152604051918291602083526020830190611714565b0390f35b50346101415760a03660031901126101415767ffffffffffffffff9060043582811161024e5761069d9036906004016116e3565b92909160248035838111610af8576106b99036906004016116e3565b93909560443582811161028a576106d49036906004016116e3565b909790946001600160a01b039290919060643584811603610b6b57608435858111610af4576107079036906004016116b5565b92909985600454163303610b5957856005541615610b4757600a549260ff8416610b355715610b22573598858a16809a0361028a5715610b0f57359615610afc5760ff1916600117600a55870160408882031261024e57873593838516809503610af85760209889810135918211610af457610784929101611697565b978315610ae25760406107bd998151809b8192634bf3e1dd60e01b83528b60048401528a8a840152606060448401526064830190611714565b038185885af1938415610a075782908395610a98575b899a50978099987f5dee3edaeb80cf46cfae409cbfc46656849e646c6133b76a81faaddb19bd021560408051948b865215948515809d820152a3610a8657358501808611610a7357612710938461082c600154836117e5565b049586821115610a6a57868203918211610a585750935b61084f600254886117e5565b048410610a46576004805460405163095ea7b360e01b81529085166001600160a01b03169181019190915260248101919091528881604481858c5af18015610a0757610a12575b5082610991575b836108ee575b50917f16b7d373c2893ea51f29d08638ec2be5ec165800baf41ceaab6e75b7842ed8af939160809360055416956040519384528884015260408301526060820152a360405160018152f35b60405163a9059cbb60e01b815230600482015260248101859052908882604481848c5af1801561098457610923575b506108a3565b8882813d831161097d575b6109388183611622565b81010312610141575091608093916109717f16b7d373c2893ea51f29d08638ec2be5ec165800baf41ceaab6e75b7842ed8af969461180e565b5091938193955061091d565b503d61092e565b50604051903d90823e3d90fd5b60055460405163a9059cbb60e01b81529083166001600160a01b03166004820152602481018490528881604481858c5af18015610a07576109d3575b5061089d565b8881813d8311610a00575b6109e88183611622565b8101031261024e576109f99061180e565b50386109cd565b503d6109de565b6040513d84823e3d90fd5b8881813d8311610a3f575b610a278183611622565b8101031261024e57610a389061180e565b5038610896565b503d610a1d565b604051632723fc7560e11b8152600490fd5b634e487b7160e01b8452601160045283fd5b50508193610843565b634e487b7160e01b825260116004528482fd5b604051632e1e7cab60e11b8152600490fd5b9450506040893d604011610ada575b81610ab460409383611622565b8101031261024e57888789610acc819c9b9a9b61180e565b9201519590509897986107d3565b3d9150610aa7565b604051634ef96acd60e01b8152600490fd5b8380fd5b8280fd5b634e487b7160e01b835260326004528583fd5b634e487b7160e01b845260326004528684fd5b634e487b7160e01b855260326004528785fd5b604051632e108c6960e21b8152600490fd5b604051634ea3804360e01b8152600490fd5b604051634b60273560e01b8152600490fd5b600080fd5b5034610141578060031936011261014157546040516001600160a01b039091168152602090f35b5034610141578060031936011261014157610bb0611883565b610bb86118af565b805460ff60a01b1916600160a01b1781556040513381527f62e78cea01bee320cd4e420270b5ea74000d11b0c9f74754ebdbfc544b05a25890602090a180f35b5034610141576020366003190112610141577f369aaa64746f21909173e6b1331c9929562f5d22457e9dead997fec9dfa0b9036040600435610c38611883565b600254908060025582519182526020820152a180f35b503461014157602036600319011261014157600435610c6b611883565b6103e8811161050d5760407f528d9479e9f9889a87a3c30c7f7ba537e5e59c4c85a37733b16e57c62df6130291600154908060015582519182526020820152a180f35b503461014157806003193601126101415760ff6020915460a01c166040519015158152f35b503461014157608036600319011261014157610ced6115c4565b604435906001600160a01b0382168203610af85760643567ffffffffffffffff8111610af457610d219036906004016116b5565b60026000805160206119c683398151915254146112415760026000805160206119c683398151915255610d526118af565b6001600160a01b0383161561122f576024351561121d5760405160c0810181811067ffffffffffffffff8211176112095760409081523382526001600160a01b0385811660208401526024359183019190915285166060820152610db7368385611660565b8060808301528660a083015260018060a01b038251166001600160601b0360a01b600554161760055560018060a01b036020830151166001600160601b0360a01b6006541617600655604082015160075560018060a01b036060830151166001600160601b0360a01b600854161760085580519067ffffffffffffffff82116111f557610e45600954611754565b601f811161118e575b50602090601f83116001146111175760a093929189918361110c575b50508160011b916000199060031b1c1916176009555b0151151560ff8019600a5416911617600a5560405192610e9f846115f0565b60018452602036818601376001600160a01b0316610ebc8461178e565b52610f4c608060405195610ecf876115f0565b6001875260203681890137602435610ee68861178e565b5260405193610ef4856115f0565b600185526020368187013788610f098661178e565b528060405196879360018060a01b031660208501526040808501528160608501528484013788838284010152601f80199101168101036060810185520183611622565b6004546001600160a01b031692833b1561110857939185939160405195869463ab9c4b5d60e01b865260e4860130600488015260e06024880152825180915260206101048801930190885b8181106110e3575050508593610fd48894610fc28795610fec956003198883030160448901526117b1565b858103600319016064870152906117b1565b3060848501528381036003190160a485015290611714565b8260c483015203925af18015610a07576110b7575b508060055580600655806007558060085561101d600954611754565b8061103d575b5080600a5560016000805160206119c68339815191525580f35b601f8111600114611055575060006009555b38611023565b9060098152601f6000805160206119a6833981519152920160051c8201917f6e1540171b6c0c960b71a7020d9f60077f6af931a8bbf590da0223dacf75c7b05b8381106110ab575081925060006009555561104f565b60008155600101611095565b67ffffffffffffffff81116110cf5760405238611001565b634e487b7160e01b82526041600452602482fd5b82516001600160a01b031685528b99508a985060209485019490920191600101610f97565b8580fd5b015190503880610e6a565b90600989526000805160206119a683398151915291895b601f1985168110611176575091839160019360a09695601f1981161061115d575b505050811b01600955610e80565b015160001960f88460031b161c1916905538808061114f565b9192602060018192868501518155019401920161112e565b60098952601f830160051c6000805160206119a683398151915201602084106111e0575b601f820160051c6000805160206119a68339815191520181106111d55750610e4e565b8981556001016111b2565b506000805160206119a68339815191526111b2565b634e487b7160e01b88526041600452602488fd5b634e487b7160e01b87526041600452602487fd5b60405163162908e360e11b8152600490fd5b60405163c1ab6dc160e01b8152600490fd5b604051633ee5aeb560e01b8152600490fd5b50346101415780600319360112610141577f00000000000000000000000000000000000000000000000000000000000000006001600160a01b031630036112be5760206040517f360894a13ba1a3210667c828492db98dca3e2076cc3735a920a3ca505d382bbc8152f35b60405163703e46dd60e11b8152600490fd5b506040366003190112610141576112e56115c4565b60243567ffffffffffffffff8111610af857611305903690600401611697565b6001600160a01b037f00000000000000000000000000000000000000000000000000000000000000008116308114908115611484575b506112be57611348611883565b8216916040516352d1902d60e01b8152602081600481875afa859181611450575b5061138757604051634c9c8ce360e01b815260048101859052602490fd5b7f360894a13ba1a3210667c828492db98dca3e2076cc3735a920a3ca505d382bbc908181036114385750813b1561141f5780546001600160a01b03191684179055604051927fbc7cd75a20ee27fd9adebab32041f755214dbc6bffa90cc0225b39da2e5c2d3b8580a2815115611405576114019250611911565b5080f35b505034611410575080f35b63b398979f60e01b8152600490fd5b604051634c9c8ce360e01b815260048101859052602490fd5b60249060405190632a87526960e21b82526004820152fd5b9091506020813d60201161147c575b8161146c60209383611622565b8101031261110857519038611369565b3d915061145f565b9050817f360894a13ba1a3210667c828492db98dca3e2076cc3735a920a3ca505d382bbc541614153861133b565b5034610141576020366003190112610141576114cc6115c4565b6114d4611883565b60018060a01b03166001600160601b0360a01b600454161760045580f35b503461014157806003193601126101415761150b611883565b805460ff8160a01c16156115515760ff60a01b191681556040513381527f5db9ee0a495bf2e6ff9c91a7834c1ba4fdd244a5e8aa4e537bd38aeae4b073aa90602090a180f35b604051638dfc202b60e01b8152600490fd5b50346101415780600319360112610141576020600254604051908152f35b50346101415780600319360112610141576020600154604051908152f35b90503461024e578160031936011261024e576004546001600160a01b03168152602090f35b600435906001600160a01b0382168203610b6b57565b602435906001600160a01b0382168203610b6b57565b6040810190811067ffffffffffffffff82111761160c57604052565b634e487b7160e01b600052604160045260246000fd5b90601f8019910116810190811067ffffffffffffffff82111761160c57604052565b67ffffffffffffffff811161160c57601f01601f191660200190565b92919261166c82611644565b9161167a6040519384611622565b829481845281830111610b6b578281602093846000960137010152565b9080601f83011215610b6b578160206116b293359101611660565b90565b9181601f84011215610b6b5782359167ffffffffffffffff8311610b6b5760208381860195010111610b6b57565b9181601f84011215610b6b5782359167ffffffffffffffff8311610b6b576020808501948460051b010111610b6b57565b919082519283825260005b848110611740575050826000602080949584010152601f8019910116010190565b60208183018101518483018201520161171f565b90600182811c92168015611784575b602083101461176e57565b634e487b7160e01b600052602260045260246000fd5b91607f1691611763565b80511561179b5760200190565b634e487b7160e01b600052603260045260246000fd5b90815180825260208080930193019160005b8281106117d1575050505090565b8351855293810193928101926001016117c3565b818102929181159184041417156117f857565b634e487b7160e01b600052601160045260246000fd5b51908115158203610b6b57565b6001600160a01b0390811690811561186a57600054826001600160601b0360a01b821617600055167f8be0079c531659141344cd1fd0a4f28419497f9722a3daafe3b4186f6b6457e0600080a3565b604051631e4fbdf760e01b815260006004820152602490fd5b6000546001600160a01b0316330361189757565b60405163118cdaa760e01b8152336004820152602490fd5b60ff60005460a01c166118be57565b60405163d93c066560e01b8152600490fd5b60ff7ff0c57e16840df040f15088dc2f81fe391c3923bec73e23a9662efc9c229c6a005460401c16156118ff57565b604051631afcd79f60e31b8152600490fd5b9060008091602081519101845af48080611992575b156119475750506040513d81523d6000602083013e60203d82010160405290565b1561196e57604051639996b31560e01b81526001600160a01b039091166004820152602490fd5b3d15611980576040513d6000823e3d90fd5b60405163d6bda27560e01b8152600490fd5b503d1515806119265750813b151561192656fe6e1540171b6c0c960b71a7020d9f60077f6af931a8bbf590da0223dacf75c7af9b779b17422d0df92223018b32b4d1fa46e071723d6817e2486d003becc55f00a2646970667358221220aed61c3082d6aa64c8adfc592742668e0da4f305591074736f834bb492e47fe664736f6c63430008160033","linkReferences":{}},"methodIdentifiers":{"MAX_FEE_BPS()":"d55be8c6","UPGRADE_INTERFACE_VERSION()":"ad3cb1cc","activeFlashloans(bytes32)":"f3288bd0","currentOperation()":"f05396ac","emergencyWithdraw()":"db2e21bc","executeFlashloan(address,uint256,address,bytes)":"5c26993c","executeOperation(address[],uint256[],uint256[],address,bytes)":"920f5c84","feeBps()":"24a9d853","initialize(address,address,uint256,uint256)":"eb990c59","minProfitBps()":"383aeeae","owner()":"8da5cb5b","pause()":"8456cb59","paused()":"5c975abb","pool()":"16f0115b","proxiableUUID()":"52d1902d","setFee(uint256)":"69fe0e2d","setMinProfit(uint256)":"78400f17","setPool(address)":"4437152a","transferOwnership(address)":"f2fde38b","unpause()":"3f4ba83a","upgradeToAndCall(address,bytes)":"4f1ef286","withdrawFees(address,address)":"f2555278"},"id":33}